{
  "contractName": "DNSSECImpl",
  "abi": [
    {
      "inputs": [
        {
          "internalType": "bytes",
          "name": "_anchors",
          "type": "bytes"
        }
      ],
      "stateMutability": "nonpayable",
      "type": "constructor"
    },
    {
      "anonymous": false,
      "inputs": [
        {
          "indexed": false,
          "internalType": "uint8",
          "name": "id",
          "type": "uint8"
        },
        {
          "indexed": false,
          "internalType": "address",
          "name": "addr",
          "type": "address"
        }
      ],
      "name": "AlgorithmUpdated",
      "type": "event"
    },
    {
      "anonymous": false,
      "inputs": [
        {
          "indexed": false,
          "internalType": "uint8",
          "name": "id",
          "type": "uint8"
        },
        {
          "indexed": false,
          "internalType": "address",
          "name": "addr",
          "type": "address"
        }
      ],
      "name": "DigestUpdated",
      "type": "event"
    },
    {
      "anonymous": false,
      "inputs": [],
      "name": "Marker",
      "type": "event"
    },
    {
      "anonymous": false,
      "inputs": [
        {
          "indexed": false,
          "internalType": "uint8",
          "name": "id",
          "type": "uint8"
        },
        {
          "indexed": false,
          "internalType": "address",
          "name": "addr",
          "type": "address"
        }
      ],
      "name": "NSEC3DigestUpdated",
      "type": "event"
    },
    {
      "anonymous": false,
      "inputs": [
        {
          "indexed": false,
          "internalType": "bytes",
          "name": "name",
          "type": "bytes"
        },
        {
          "indexed": false,
          "internalType": "bytes",
          "name": "rrset",
          "type": "bytes"
        }
      ],
      "name": "RRSetUpdated",
      "type": "event"
    },
    {
      "anonymous": false,
      "inputs": [
        {
          "indexed": false,
          "internalType": "uint256",
          "name": "t",
          "type": "uint256"
        }
      ],
      "name": "Test",
      "type": "event"
    },
    {
      "inputs": [
        {
          "internalType": "uint8",
          "name": "",
          "type": "uint8"
        }
      ],
      "name": "algorithms",
      "outputs": [
        {
          "internalType": "contract Algorithm",
          "name": "",
          "type": "address"
        }
      ],
      "stateMutability": "view",
      "type": "function"
    },
    {
      "inputs": [],
      "name": "anchors",
      "outputs": [
        {
          "internalType": "bytes",
          "name": "",
          "type": "bytes"
        }
      ],
      "stateMutability": "view",
      "type": "function"
    },
    {
      "inputs": [
        {
          "internalType": "uint8",
          "name": "",
          "type": "uint8"
        }
      ],
      "name": "digests",
      "outputs": [
        {
          "internalType": "contract Digest",
          "name": "",
          "type": "address"
        }
      ],
      "stateMutability": "view",
      "type": "function"
    },
    {
      "inputs": [
        {
          "internalType": "uint8",
          "name": "",
          "type": "uint8"
        }
      ],
      "name": "nsec3Digests",
      "outputs": [
        {
          "internalType": "contract NSEC3Digest",
          "name": "",
          "type": "address"
        }
      ],
      "stateMutability": "view",
      "type": "function"
    },
    {
      "inputs": [],
      "name": "owner",
      "outputs": [
        {
          "internalType": "address",
          "name": "",
          "type": "address"
        }
      ],
      "stateMutability": "view",
      "type": "function"
    },
    {
      "inputs": [
        {
          "internalType": "address",
          "name": "newOwner",
          "type": "address"
        }
      ],
      "name": "setOwner",
      "outputs": [],
      "stateMutability": "nonpayable",
      "type": "function"
    },
    {
      "inputs": [
        {
          "internalType": "uint8",
          "name": "id",
          "type": "uint8"
        },
        {
          "internalType": "contract Algorithm",
          "name": "algo",
          "type": "address"
        }
      ],
      "name": "setAlgorithm",
      "outputs": [],
      "stateMutability": "nonpayable",
      "type": "function"
    },
    {
      "inputs": [
        {
          "internalType": "uint8",
          "name": "id",
          "type": "uint8"
        },
        {
          "internalType": "contract Digest",
          "name": "digest",
          "type": "address"
        }
      ],
      "name": "setDigest",
      "outputs": [],
      "stateMutability": "nonpayable",
      "type": "function"
    },
    {
      "inputs": [
        {
          "internalType": "uint8",
          "name": "id",
          "type": "uint8"
        },
        {
          "internalType": "contract NSEC3Digest",
          "name": "digest",
          "type": "address"
        }
      ],
      "name": "setNSEC3Digest",
      "outputs": [],
      "stateMutability": "nonpayable",
      "type": "function"
    },
    {
      "inputs": [
        {
          "internalType": "bytes",
          "name": "data",
          "type": "bytes"
        },
        {
          "internalType": "bytes",
          "name": "_proof",
          "type": "bytes"
        }
      ],
      "name": "submitRRSets",
      "outputs": [
        {
          "internalType": "bytes",
          "name": "",
          "type": "bytes"
        }
      ],
      "stateMutability": "nonpayable",
      "type": "function"
    },
    {
      "inputs": [
        {
          "components": [
            {
              "internalType": "bytes",
              "name": "rrset",
              "type": "bytes"
            },
            {
              "internalType": "bytes",
              "name": "sig",
              "type": "bytes"
            }
          ],
          "internalType": "struct DNSSEC.RRSetWithSignature",
          "name": "input",
          "type": "tuple"
        },
        {
          "internalType": "bytes",
          "name": "proof",
          "type": "bytes"
        }
      ],
      "name": "submitRRSet",
      "outputs": [
        {
          "internalType": "bytes",
          "name": "",
          "type": "bytes"
        }
      ],
      "stateMutability": "nonpayable",
      "type": "function"
    },
    {
      "inputs": [
        {
          "internalType": "uint16",
          "name": "deleteType",
          "type": "uint16"
        },
        {
          "internalType": "bytes",
          "name": "deleteName",
          "type": "bytes"
        },
        {
          "components": [
            {
              "internalType": "bytes",
              "name": "rrset",
              "type": "bytes"
            },
            {
              "internalType": "bytes",
              "name": "sig",
              "type": "bytes"
            }
          ],
          "internalType": "struct DNSSEC.RRSetWithSignature",
          "name": "nsec",
          "type": "tuple"
        },
        {
          "internalType": "bytes",
          "name": "proof",
          "type": "bytes"
        }
      ],
      "name": "deleteRRSet",
      "outputs": [],
      "stateMutability": "nonpayable",
      "type": "function"
    },
    {
      "inputs": [
        {
          "internalType": "uint16",
          "name": "deleteType",
          "type": "uint16"
        },
        {
          "internalType": "bytes",
          "name": "deleteName",
          "type": "bytes"
        },
        {
          "components": [
            {
              "internalType": "bytes",
              "name": "rrset",
              "type": "bytes"
            },
            {
              "internalType": "bytes",
              "name": "sig",
              "type": "bytes"
            }
          ],
          "internalType": "struct DNSSEC.RRSetWithSignature",
          "name": "closestEncloser",
          "type": "tuple"
        },
        {
          "components": [
            {
              "internalType": "bytes",
              "name": "rrset",
              "type": "bytes"
            },
            {
              "internalType": "bytes",
              "name": "sig",
              "type": "bytes"
            }
          ],
          "internalType": "struct DNSSEC.RRSetWithSignature",
          "name": "nextClosest",
          "type": "tuple"
        },
        {
          "internalType": "bytes",
          "name": "dnskey",
          "type": "bytes"
        }
      ],
      "name": "deleteRRSetNSEC3",
      "outputs": [],
      "stateMutability": "nonpayable",
      "type": "function"
    },
    {
      "inputs": [
        {
          "internalType": "uint16",
          "name": "dnstype",
          "type": "uint16"
        },
        {
          "internalType": "bytes",
          "name": "name",
          "type": "bytes"
        }
      ],
      "name": "rrdata",
      "outputs": [
        {
          "internalType": "uint32",
          "name": "",
          "type": "uint32"
        },
        {
          "internalType": "uint64",
          "name": "",
          "type": "uint64"
        },
        {
          "internalType": "bytes20",
          "name": "",
          "type": "bytes20"
        }
      ],
      "stateMutability": "view",
      "type": "function"
    }
  ],
  "bytecode": "0x60806040523480156200001157600080fd5b50604051620040dd380380620040dd833981810160405281019062000037919062000311565b33600160006101000a81548173ffffffffffffffffffffffffffffffffffffffff021916908373ffffffffffffffffffffffffffffffffffffffff160217905550806000908051906020019062000090929190620001ff565b506040518060600160405280600063ffffffff1681526020014267ffffffffffffffff1681526020016000604051620000ca9190620004ad565b60405180910390206bffffffffffffffffffffffff1916815250600260007fbc36789e7a1e281436464229828f817d6612f7b477d66591ff96a9e064bcc98a81526020019081526020016000206000602b61ffff1661ffff16815260200190815260200160002060008201518160000160006101000a81548163ffffffff021916908363ffffffff16021790555060208201518160000160046101000a81548167ffffffffffffffff021916908367ffffffffffffffff160217905550604082015181600001600c6101000a81548173ffffffffffffffffffffffffffffffffffffffff021916908360601c02179055509050507f55ced933cdd5a34dd03eb5d4bef19ec6ebb251dcd7a988eee0c1b9a13baaa88b6000604051620001f09190620004c6565b60405180910390a150620005cf565b828054600181600116156101000203166002900490600052602060002090601f01602090048101928262000237576000855562000283565b82601f106200025257805160ff191683800117855562000283565b8280016001018555821562000283579182015b828111156200028257825182559160200191906001019062000265565b5b50905062000292919062000296565b5090565b5b80821115620002b157600081600090555060010162000297565b5090565b600082601f830112620002c757600080fd5b8151620002de620002d88262000533565b620004ff565b91508082526020830160208301858383011115620002fb57600080fd5b6200030883828462000597565b50505092915050565b6000602082840312156200032457600080fd5b600082015167ffffffffffffffff8111156200033f57600080fd5b6200034d84828501620002b5565b91505092915050565b6000815460018116600081146200037657600181146200039f57620003e9565b607f60028304166200038981876200057b565b955060ff198316865260208601935050620003e9565b60028204620003af81876200057b565b9550620003bc8562000566565b60005b82811015620003e057815481890152600182019150602081019050620003bf565b80880195505050505b505092915050565b600081546001811660008114620004115760018114620004395762000483565b607f60028304166200042481876200058c565b955060ff198316865280860193505062000483565b600282046200044981876200058c565b9550620004568562000566565b60005b828110156200047a5781548189015260018201915060208101905062000459565b82880195505050505b505092915050565b60006200049a6001836200057b565b9150600080830152602082019050919050565b6000620004bb8284620003f1565b915081905092915050565b60006040820190508181036000830152620004e1816200048b565b90508181036020830152620004f7818462000356565b905092915050565b6000604051905081810181811067ffffffffffffffff82111715620005295762000528620005cd565b5b8060405250919050565b600067ffffffffffffffff821115620005515762000550620005cd565b5b601f19601f8301169050602081019050919050565b60008190508160005260206000209050919050565b600082825260208201905092915050565b600081905092915050565b60005b83811015620005b75780820151818401526020810190506200059a565b83811115620005c7576000848401525b50505050565bfe5b613afe80620005df6000396000f3fe608060405234801561001057600080fd5b50600436106100ea5760003560e01c806376a14d1d1161008c57806398d35f201161006657806398d35f2014610247578063bd7ed31a14610265578063c327deef14610295578063d7b82ebe146102c5576100ea565b806376a14d1d146101dd5780638438dc041461020d5780638da5cb5b14610229576100ea565b806313af4035116100c857806313af40351461015957806328e7677d146101755780632c095cbb1461019157806373cc48a6146101ad576100ea565b8063020ed8d3146100ef578063087991bc1461010b5780630b1a24951461013d575b600080fd5b610109600480360381019061010491906133ac565b6102f5565b005b610125600480360381019061012091906131a9565b6103e4565b60405161013493929190613714565b60405180910390f35b610157600480360381019061015291906132ac565b61047f565b005b610173600480360381019061016e9190613056565b61070b565b005b61018f600480360381019061018a91906133e8565b6107a9565b005b6101ab60048036038101906101a69190613201565b610898565b005b6101c760048036038101906101c29190613383565b6109f5565b6040516101d491906136be565b60405180910390f35b6101f760048036038101906101f291906130d1565b610a28565b60405161020491906135b9565b60405180910390f35b61022760048036038101906102229190613424565b610ae6565b005b610231610bd5565b60405161023e919061359e565b60405180910390f35b61024f610bfb565b60405161025c91906135b9565b60405180910390f35b61027f600480360381019061027a9190613383565b610c99565b60405161028c91906136d9565b60405180910390f35b6102af60048036038101906102aa9190613383565b610ccc565b6040516102bc91906136a3565b60405180910390f35b6102df60048036038101906102da919061313d565b610cff565b6040516102ec91906135b9565b60405180910390f35b600160009054906101000a900473ffffffffffffffffffffffffffffffffffffffff1673ffffffffffffffffffffffffffffffffffffffff163373ffffffffffffffffffffffffffffffffffffffff161461034f57600080fd5b80600360008460ff1660ff16815260200190815260200160002060006101000a81548173ffffffffffffffffffffffffffffffffffffffff021916908373ffffffffffffffffffffffffffffffffffffffff1602179055507ff73c3c226af96b7f1ba666a21b3ceaf2be3ee6a365e3178fd9cd1eaae0075aa882826040516103d892919061374b565b60405180910390a15050565b6000806000806002600087876040516103fe929190613585565b6040518091039020815260200190815260200160002060008861ffff1661ffff16815260200190815260200160002090508060000160009054906101000a900463ffffffff168160000160049054906101000a900467ffffffffffffffff1682600001600c9054906101000a900460601b9350935093505093509350939050565b6000600260008680519060200120815260200190815260200160002060008761ffff1661ffff16815260200190815260200160002060000160009054906101000a900463ffffffff1690506104d2612cfb565b6104dc8584610d13565b90506104e9818784610dd0565b6104f1612cfb565b60008560000151511115610517576105098585610d13565b9050610516818885610dd0565b5b61051f612d6e565b61052883610e1d565b9050600060fe82602001511660ff161461054157600080fd5b610555602782610e6790919063ffffffff16565b15801561058e5750610571600282610e6790919063ffffffff16565b158061058d575061058c600682610e6790919063ffffffff16565b5b5b61059757600080fd5b6105a8898985610120015184610e81565b1561064157600260008980519060200120815260200190815260200160002060008a61ffff1661ffff168152602001908152602001600020600080820160006101000a81549063ffffffff02191690556000820160046101000a81549067ffffffffffffffff021916905560008201600c6101000a81549073ffffffffffffffffffffffffffffffffffffffff02191690555050610700565b61066189898561012001518486610120015161065c88610e1d565b610ebb565b156106fa57600260008980519060200120815260200190815260200160002060008a61ffff1661ffff168152602001908152602001600020600080820160006101000a81549063ffffffff02191690556000820160046101000a81549067ffffffffffffffff021916905560008201600c6101000a81549073ffffffffffffffffffffffffffffffffffffffff021916905550506106ff565b600080fd5b5b505050505050505050565b600160009054906101000a900473ffffffffffffffffffffffffffffffffffffffff1673ffffffffffffffffffffffffffffffffffffffff163373ffffffffffffffffffffffffffffffffffffffff161461076557600080fd5b80600160006101000a81548173ffffffffffffffffffffffffffffffffffffffff021916908373ffffffffffffffffffffffffffffffffffffffff16021790555050565b600160009054906101000a900473ffffffffffffffffffffffffffffffffffffffff1673ffffffffffffffffffffffffffffffffffffffff163373ffffffffffffffffffffffffffffffffffffffff161461080357600080fd5b80600460008460ff1660ff16815260200190815260200160002060006101000a81548173ffffffffffffffffffffffffffffffffffffffff021916908373ffffffffffffffffffffffffffffffffffffffff1602179055507f2fcc274c3b72dd483ab201bfa87295e3817e8b9b10693219873b722ca1af00c7828260405161088c92919061374b565b60405180910390a15050565b6108a0612cfb565b6108aa8383610d13565b9050602f61ffff16816000015161ffff16146108c557600080fd5b6000600260008680519060200120815260200190815260200160002060008761ffff1661ffff16815260200190815260200160002060000160009054906101000a900463ffffffff168260a001510360030b121561092257600080fd5b61092a612db1565b61093382610fe2565b905061093e81611001565b6109e957610953818361012001518789611017565b600260008680519060200120815260200190815260200160002060008761ffff1661ffff168152602001908152602001600020600080820160006101000a81549063ffffffff02191690556000820160046101000a81549067ffffffffffffffff021916905560008201600c6101000a81549073ffffffffffffffffffffffffffffffffffffffff0219169055505050506109ef565b50600080fd5b50505050565b60046020528060005260406000206000915054906101000a900473ffffffffffffffffffffffffffffffffffffffff1681565b6060600060608390505b8451821015610adb57610a43612dfc565b610a7160028401610a5d858961122590919063ffffffff16565b61ffff168861124b9092919063ffffffff16565b816000018190525060028160000151510183019250610ab460028401610aa0858961122590919063ffffffff16565b61ffff168861124b9092919063ffffffff16565b816020018190525060028160200151510183019250610ad381836112d5565b915050610a32565b809250505092915050565b600160009054906101000a900473ffffffffffffffffffffffffffffffffffffffff1673ffffffffffffffffffffffffffffffffffffffff163373ffffffffffffffffffffffffffffffffffffffff1614610b4057600080fd5b80600560008460ff1660ff16815260200190815260200160002060006101000a81548173ffffffffffffffffffffffffffffffffffffffff021916908373ffffffffffffffffffffffffffffffffffffffff1602179055507fc7eec866a7a1386188cc3ca20ffea75b71bd3e90a60b6791b1d3f0971145118d8282604051610bc992919061374b565b60405180910390a15050565b600160009054906101000a900473ffffffffffffffffffffffffffffffffffffffff1681565b60008054600181600116156101000203166002900480601f016020809104026020016040519081016040528092919081815260200182805460018160011615610100020316600290048015610c915780601f10610c6657610100808354040283529160200191610c91565b820191906000526020600020905b815481529060010190602001808311610c7457829003601f168201915b505050505081565b60056020528060005260406000206000915054906101000a900473ffffffffffffffffffffffffffffffffffffffff1681565b60036020528060005260406000206000915054906101000a900473ffffffffffffffffffffffffffffffffffffffff1681565b6060610d0b83836112d5565b905092915050565b610d1b612cfb565b610d2883600001516114e8565b9050610d388160e0015183611652565b610d4157600080fd5b6060610d518283600001516116f1565b9050816040015160ff16610d6f6000836117c890919063ffffffff16565b14610d7957600080fd5b80826101200181905250600042836080015163ffffffff160360030b1215610da057600080fd5b60008260a0015163ffffffff16420360030b1215610dbd57600080fd5b610dc981838686611828565b5092915050565b6000818460a001510360030b1215610de757600080fd5b603261ffff16836000015161ffff1614610e0057600080fd5b610e0f83610120015183611925565b610e1857600080fd5b505050565b610e25612d6e565b610e2d612db1565b610e3683610fe2565b9050610e5f8160a001518260a001518360c001510383600001516119a69092919063ffffffff16565b915050919050565b6000610e798360a00151600084611af4565b905092915050565b6000610e8e828486611c07565b15610eae57610ea68583610e6790919063ffffffff16565b159050610eb3565b600090505b949350505050565b60008060fe83602001511660ff1614610ed357600080fd5b6000610ede86611c31565b90506000610eeb85611c31565b90506000806001610f0660008c611c6690919063ffffffff16565b0160ff1690505b8951811015610fcf5783610f3889610f3384858f51038f61124b9092919063ffffffff16565b611c8a565b1415610faa576000610f6187610f5c85868f51038f61124b9092919063ffffffff16565b611c8a565b90508660800151841015610f8d578381118015610f815750866080015181105b95505050505050610fd8565b83811180610f9e5750866080015181105b95505050505050610fd8565b8091506001610fc2828c611c6690919063ffffffff16565b0160ff1681019050610f0d565b50600093505050505b9695505050505050565b610fea612db1565b610ffa8261010001516000611d66565b9050919050565b6000816000015151826020015110159050919050565b60008460a0015190506000611039828760000151611d9090919063ffffffff16565b905060008660a001518760c0015103905081811161105657600080fd5b600061106b8787611deb90919063ffffffff16565b905060008114156110a057611091838501868a60000151611af49092919063ffffffff16565b1561109b57600080fd5b611107565b60606110bb85858b6000015161124b9092919063ffffffff16565b9050600082136110ca57600080fd5b60006110df828a611deb90919063ffffffff16565b12156111055760006110fa8289611deb90919063ffffffff16565b1261110457600080fd5b5b505b5050505050505050565b8060c0015181602001818152505080600001515181602001511061113457611222565b600061114882600001518360200151611d90565b826020015101905061116781836000015161122590919063ffffffff16565b826040019061ffff16908161ffff168152505060028101905061119781836000015161122590919063ffffffff16565b826060019061ffff16908161ffff16815250506002810190506111c7818360000151611f7a90919063ffffffff16565b826080019063ffffffff16908163ffffffff168152505060048101905060006111fd82846000015161122590919063ffffffff16565b61ffff169050600282019150818360a00181815250508082018360c001818152505050505b50565b6000825160028301111561123857600080fd5b61ffff8260028501015116905092915050565b60608351828401111561125d57600080fd5b60608267ffffffffffffffff8111801561127657600080fd5b506040519080825280601f01601f1916602001820160405280156112a95781602001600182028036833780820191505090505b50905060008060208301915085602088010190506112c8828287611fa2565b8293505050509392505050565b60606112df612cfb565b6112e98484610d13565b90506000600260008361012001518051906020012081526020019081526020016000206000836000015161ffff1661ffff168152602001908152602001600020905060008160000160049054906101000a900467ffffffffffffffff1667ffffffffffffffff1611156113825760008160000160009054906101000a900463ffffffff168360a001510360030b121561138157600080fd5b5b60405180606001604052808360a0015163ffffffff1681526020014267ffffffffffffffff168152602001836101000151805190602001206bffffffffffffffffffffffff1916815250600260008461012001518051906020012081526020019081526020016000206000846000015161ffff1661ffff16815260200190815260200160002060008201518160000160006101000a81548163ffffffff021916908363ffffffff16021790555060208201518160000160046101000a81548167ffffffffffffffff021916908367ffffffffffffffff160217905550604082015181600001600c6101000a81548173ffffffffffffffffffffffffffffffffffffffff021916908360601c02179055509050507f55ced933cdd5a34dd03eb5d4bef19ec6ebb251dcd7a988eee0c1b9a13baaa88b8261012001518361010001516040516114d09291906135db565b60405180910390a18161010001519250505092915050565b6114f0612cfb565b61150460008361122590919063ffffffff16565b816000019061ffff16908161ffff168152505061152b600283611c6690919063ffffffff16565b816020019060ff16908160ff1681525050611550600383611c6690919063ffffffff16565b816040019060ff16908160ff1681525050611575600483611f7a90919063ffffffff16565b816060019063ffffffff16908163ffffffff16815250506115a0600883611f7a90919063ffffffff16565b816080019063ffffffff16908163ffffffff16815250506115cb600c83611f7a90919063ffffffff16565b8160a0019063ffffffff16908163ffffffff16815250506115f660108361122590919063ffffffff16565b8160c0019061ffff16908161ffff1681525050611614826012611feb565b8160e001819052506116448160e00151516012018260e00151516012855103038461124b9092919063ffffffff16565b816101000181905250919050565b60008061167b61166c600085611d9090919063ffffffff16565b8461122590919063ffffffff16565b905082805190602001206bffffffffffffffffffffffff1916600260008680519060200120815260200190815260200160002060008361ffff1661ffff168152602001908152602001600020600001600c9054906101000a900460601b6bffffffffffffffffffffffff19161491505092915050565b60606116fb612db1565b61170484610fe2565b90505b61171081611001565b6117c157600161ffff16816060015161ffff161461172d57600080fd5b6000825114156117475761174081612019565b915061179b565b61176281602001518260000151611d9090919063ffffffff16565b82511461176e57600080fd5b61179160008260000151836020015185518661205090949392919063ffffffff16565b61179a57600080fd5b5b8261ffff16816040015161ffff16146117b357600080fd5b6117bc81611111565b611707565b5092915050565b600080600090505b60011561181e57835183106117e157fe5b60006117f68486611c6690919063ffffffff16565b60ff16905060018101840193506000811415611812575061181e565b600182019150506117d0565b8091505092915050565b83518360e0015151111561183b57600080fd5b61185f6000858560e00151518751038660e00151612074909392919063ffffffff16565b61186857600080fd5b611870612db1565b611884600083611d6690919063ffffffff16565b9050602b61ffff16816040015161ffff1614156118b4576118a684848361209d565b6118af57600080fd5b61191e565b603061ffff16816040015161ffff1614156118e2576118d4848483612153565b6118dd57600080fd5b61191d565b6040517f08c379a0000000000000000000000000000000000000000000000000000000008152600401611914906136f4565b60405180910390fd5b5b5050505050565b600080600161193e600086611c6690919063ffffffff16565b0160ff16905060005b83518110156119995761196781868487612074909392919063ffffffff16565b15611977576001925050506119a0565b600161198c8286611c6690919063ffffffff16565b0160ff1681019050611947565b6000925050505b92915050565b6119ae612d6e565b600082840190506119cb6000850186611c6690919063ffffffff16565b826000019060ff16908160ff16815250506119f26001850186611c6690919063ffffffff16565b826020019060ff16908160ff1681525050611a19600285018661122590919063ffffffff16565b826040019061ffff16908161ffff16815250506000611a446004860187611c6690919063ffffffff16565b9050600585019450611a64858260ff168861124b9092919063ffffffff16565b83606001819052508060ff16850194506000611a898688611c6690919063ffffffff16565b905060208160ff161115611a9c57600080fd5b600186019550611aba868260ff16896122159092919063ffffffff16565b8460800181815250508060ff1686019550611ae2868785038961124b9092919063ffffffff16565b8460a001819052505050509392505050565b60008060088361ffff16901c90506000600860ff851661ffff1681611b1557fe5b04905060006007851660070360ff16600160ff16901b905060008690505b8751811015611bf7576000611b51828a611c6690919063ffffffff16565b90506000611b6b600184018b611c6690919063ffffffff16565b90508160ff168660ff161015611b8a5760009650505050505050611c00565b8160ff168660ff161415611be5578460ff168160ff1611611bb45760009650505050505050611c00565b600084611bd260028860ff168701018d611c6690919063ffffffff16565b1660ff1614159650505050505050611c00565b6002810160ff16830192505050611b33565b50600093505050505b9392505050565b600080611c148584611c8a565b90506000611c2185611c31565b9050808214925050509392505050565b6000611c5f6001611c4c600085611c6690919063ffffffff16565b60ff16846122549092919063ffffffff16565b9050919050565b6000828281518110611c7457fe5b602001015160f81c60f81b60f81c905092915050565b600060056000846000015160ff1660ff16815260200190815260200160002060009054906101000a900473ffffffffffffffffffffffffffffffffffffffff1673ffffffffffffffffffffffffffffffffffffffff166368f9dab284606001518486604001516040518463ffffffff1660e01b8152600401611d0e9392919061365e565b60206040518083038186803b158015611d2657600080fd5b505afa158015611d3a573d6000803e3d6000fd5b505050506040513d601f19601f82011682018060405250810190611d5e91906130a8565b905092915050565b611d6e612db1565b828160000181905250818160c0018181525050611d8a81611111565b92915050565b6000808290505b600115611ddf5783518110611da857fe5b6000611dbd8286611c6690919063ffffffff16565b60ff16905060018101820191506000811415611dd95750611ddf565b50611d97565b82810391505092915050565b6000611e00828461248190919063ffffffff16565b15611e0e5760009050611f74565b6000806000806000611e218860006117c8565b90506000611e308860006117c8565b90505b80821115611e5857859350611e4889876124a8565b9550818060019003925050611e33565b5b81811115611e7e57849250611e6e88866124a8565b9450808060019003915050611e59565b5b600082118015611ea35750611ea18689878c612074909392919063ffffffff16565b155b15611ed157859350611eb589876124a8565b9550849250611ec488866124a8565b9450600182039150611e7f565b6000861415611f08577fffffffffffffffffffffffffffffffffffffffffffffffffffffffffffffffff9650505050505050611f74565b6000851415611f205760019650505050505050611f74565b611f6b60018501611f3a868c611c6690919063ffffffff16565b60ff168a60018701611f55888e611c6690919063ffffffff16565b60ff168e6124cd9095949392919063ffffffff16565b96505050505050505b92915050565b60008251600483011115611f8d57600080fd5b63ffffffff8260048501015116905092915050565b5b60208110611fc65781518352602083019250602082019150602081039050611fa3565b60006001826020036101000a0390508019835116818551168181178652505050505050565b60606000611ff98484611d90565b905061201083828661124b9092919063ffffffff16565b91505092915050565b6060612049826020015161203584600001518560200151611d90565b846000015161124b9092919063ffffffff16565b9050919050565b600061205d8484846125a8565b6120688787856125a8565b14905095945050505050565b60006120848383848651036125a8565b6120928686878951036125a8565b149050949350505050565b60006120a7612db1565b6120b085610fe2565b90505b6120bc81611001565b61214657603061ffff16816040015161ffff16146120d957600080fd5b60606120e4826125cb565b90506120ee612e16565b61210560008351846125fb9092919063ffffffff16565b9050612113818389896126a4565b156121365761212c61212484612019565b868385612803565b935050505061214c565b505061214181611111565b6120b3565b50600090505b9392505050565b60006121748460e0015161216684612019565b61248190919063ffffffff16565b61217d57600080fd5b5b61218782611001565b61220d576121aa8460e0015161219c84612019565b61248190919063ffffffff16565b6121b357600080fd5b60606121be836125cb565b90506121c8612e16565b6121df60008351846125fb9092919063ffffffff16565b90506121ed818388886126a4565b156121fd5760019250505061220e565b505061220882611111565b61217e565b5b9392505050565b6000602082111561222557600080fd5b8351828401111561223557600080fd5b6001826020036101000a03198084602087010151169150509392505050565b6000603482111561226457600080fd5b60008080600090505b84811015612370576000878288018151811061228557fe5b602001015160f81c60f81b9050603060f81b817effffffffffffffffffffffffffffffffffffffffffffffffffffffffffffff1916101580156122ee5750607a60f81b817effffffffffffffffffffffffffffffffffffffffffffffffffffffffffffff191611155b6122f757600080fd5b604051806080016040528060478152602001613a826047913960308260f81c60ff16038151811061232457fe5b602001015160f81c60f81b60f81c925060208360ff16111561234557600080fd5b600186038214156123565750612370565b8260ff16600585901b17935050808060010191505061226d565b50600060058502905060006008868161238557fe5b06141561239d578160ff16600584901b17925061246a565b6002600886816123a957fe5b0614156123ce5760028260ff16901c60ff16600384901b179250600281039050612469565b6004600886816123da57fe5b0614156123ff5760048260ff16901c60ff16600184901b179250600481039050612468565b60056008868161240b57fe5b0614156124305760018260ff16901c60ff16600484901b179250600181039050612467565b60076008868161243c57fe5b0614156124615760038260ff16901c60ff16600284901b179250600381039050612466565b600080fd5b5b5b5b5b806101000383901b60001b93505050509392505050565b6000815183511480156124a0575061249f8360008460008751612050565b5b905092915050565b60006124bd8284611c6690919063ffffffff16565b60ff166001830101905092915050565b600080859050858310156124df578290505b600080602089018a019150602086018701905060005b8381101561259457600080845191508351905080821461257b5760006020871115612542577fffffffffffffffffffffffffffffffffffffffffffffffffffffffffffffffff9050612555565b600184886020030160080260020a031990505b60008183168285160390506000811461257857809850505050505050505061259e565b50505b60208501945060208401935050506020810190506124f5565b5084880393505050505b9695505050505050565b6000835182840111156125ba57600080fd5b818360208601012090509392505050565b60606125f48260a001518360a001518460c0015103846000015161124b9092919063ffffffff16565b9050919050565b612603612e16565b612619600084018561122590919063ffffffff16565b816000019061ffff16908161ffff16815250506126426002840185611c6690919063ffffffff16565b816020019060ff16908160ff16815250506126696003840185611c6690919063ffffffff16565b816040019060ff16908160ff168152505061269560048401600484038661124b9092919063ffffffff16565b81606001819052509392505050565b60006003856020015160ff16146126be57600090506127fb565b826020015160ff16856040015160ff16146126dc57600090506127fb565b60006126e785612924565b90508360c0015161ffff168161ffff16146127065760009150506127fb565b6000610100876000015161ffff161614156127255760009150506127fb565b60036000876040015160ff1660ff16815260200190815260200160002060009054906101000a900473ffffffffffffffffffffffffffffffffffffffff1673ffffffffffffffffffffffffffffffffffffffff1663de8f50a186856000015186602001516040518463ffffffff1660e01b81526004016127a793929190613612565b60206040518083038186803b1580156127bf57600080fd5b505afa1580156127d3573d6000803e3d6000fd5b505050506040513d601f19601f820116820180604052508101906127f7919061307f565b9150505b949350505050565b60008061280f83612924565b90505b61281b85611001565b61291657606061282a866125cb565b9050612834612e48565b61285b8760a001518860a001518960c0015103896000015161299d9092919063ffffffff16565b90508261ffff16816000015161ffff1614612877575050612908565b856040015160ff16816020015160ff1614612893575050612908565b61289b612e7a565b6128b286518a510182612a4690919063ffffffff16565b506128c68982612a9a90919063ffffffff16565b506128da8682612a9a90919063ffffffff16565b506128f2826040015182600001518460600151612abc565b1561290457600194505050505061291c565b5050505b61291185611111565b612812565b60009150505b949350505050565b60008060005b835181101561298d5760006001821614612959576129518185611c6690919063ffffffff16565b60ff16612978565b600861296e8286611c6690919063ffffffff16565b60ff1661ffff16901b5b61ffff1682019150808060010191505061292a565b50601081901c8101915050919050565b6129a5612e48565b6129bb600084018561122590919063ffffffff16565b816000019061ffff16908161ffff16815250506129e46002840185611c6690919063ffffffff16565b816020019060ff16908160ff1681525050612a0b6003840185611c6690919063ffffffff16565b816040019060ff16908160ff1681525050612a3760048401600484038661124b9092919063ffffffff16565b81606001819052509392505050565b612a4e612e7a565b600060208381612a5a57fe5b0614612a735760208281612a6a57fe5b06602003820191505b81836020018181525050604051808452600081528281016020016040525082905092915050565b612aa2612e7a565b612ab483846000015151848551612c02565b905092915050565b60008073ffffffffffffffffffffffffffffffffffffffff16600460008660ff1660ff16815260200190815260200160002060009054906101000a900473ffffffffffffffffffffffffffffffffffffffff1673ffffffffffffffffffffffffffffffffffffffff161415612b345760009050612bfb565b600460008560ff1660ff16815260200190815260200160002060009054906101000a900473ffffffffffffffffffffffffffffffffffffffff1673ffffffffffffffffffffffffffffffffffffffff1663f7e83aee84846040518363ffffffff1660e01b8152600401612ba89291906135db565b60206040518083038186803b158015612bc057600080fd5b505afa158015612bd4573d6000803e3d6000fd5b505050506040513d601f19601f82011682018060405250810190612bf8919061307f565b90505b9392505050565b612c0a612e7a565b8251821115612c1857600080fd5b84602001518285011115612c4357612c42856002612c3c8860200151888701612cbb565b02612cd7565b5b600080865180518760208301019350808887011115612c625787860182525b60208701925050505b60208410612c8e5780518252602082019150602081019050602084039350612c6b565b60006001856020036101000a03905080198251168184511681811785525050879350505050949350505050565b600081831115612ccd57829050612cd1565b8190505b92915050565b606082600001519050612cea8383612a46565b50612cf58382612a9a565b50505050565b604051806101400160405280600061ffff168152602001600060ff168152602001600060ff168152602001600063ffffffff168152602001600063ffffffff168152602001600063ffffffff168152602001600061ffff1681526020016060815260200160608152602001606081525090565b6040518060c00160405280600060ff168152602001600060ff168152602001600061ffff1681526020016060815260200160008019168152602001606081525090565b6040518060e001604052806060815260200160008152602001600061ffff168152602001600061ffff168152602001600063ffffffff16815260200160008152602001600081525090565b604051806040016040528060608152602001606081525090565b6040518060800160405280600061ffff168152602001600060ff168152602001600060ff168152602001606081525090565b6040518060800160405280600061ffff168152602001600060ff168152602001600060ff168152602001606081525090565b604051806040016040528060608152602001600081525090565b600081359050612ea3816139c9565b92915050565b600081519050612eb8816139e0565b92915050565b600081519050612ecd816139f7565b92915050565b60008083601f840112612ee557600080fd5b8235905067ffffffffffffffff811115612efe57600080fd5b602083019150836001820283011115612f1657600080fd5b9250929050565b600082601f830112612f2e57600080fd5b8135612f41612f3c826137a5565b613774565b91508082526020830160208301858383011115612f5d57600080fd5b612f68838284613974565b50505092915050565b600081359050612f8081613a0e565b92915050565b600081359050612f9581613a25565b92915050565b600081359050612faa81613a3c565b92915050565b600060408284031215612fc257600080fd5b612fcc6040613774565b9050600082013567ffffffffffffffff811115612fe857600080fd5b612ff484828501612f1d565b600083015250602082013567ffffffffffffffff81111561301457600080fd5b61302084828501612f1d565b60208301525092915050565b60008135905061303b81613a53565b92915050565b60008135905061305081613a6a565b92915050565b60006020828403121561306857600080fd5b600061307684828501612e94565b91505092915050565b60006020828403121561309157600080fd5b600061309f84828501612ea9565b91505092915050565b6000602082840312156130ba57600080fd5b60006130c884828501612ebe565b91505092915050565b600080604083850312156130e457600080fd5b600083013567ffffffffffffffff8111156130fe57600080fd5b61310a85828601612f1d565b925050602083013567ffffffffffffffff81111561312757600080fd5b61313385828601612f1d565b9150509250929050565b6000806040838503121561315057600080fd5b600083013567ffffffffffffffff81111561316a57600080fd5b61317685828601612fb0565b925050602083013567ffffffffffffffff81111561319357600080fd5b61319f85828601612f1d565b9150509250929050565b6000806000604084860312156131be57600080fd5b60006131cc8682870161302c565b935050602084013567ffffffffffffffff8111156131e957600080fd5b6131f586828701612ed3565b92509250509250925092565b6000806000806080858703121561321757600080fd5b60006132258782880161302c565b945050602085013567ffffffffffffffff81111561324257600080fd5b61324e87828801612f1d565b935050604085013567ffffffffffffffff81111561326b57600080fd5b61327787828801612fb0565b925050606085013567ffffffffffffffff81111561329457600080fd5b6132a087828801612f1d565b91505092959194509250565b600080600080600060a086880312156132c457600080fd5b60006132d28882890161302c565b955050602086013567ffffffffffffffff8111156132ef57600080fd5b6132fb88828901612f1d565b945050604086013567ffffffffffffffff81111561331857600080fd5b61332488828901612fb0565b935050606086013567ffffffffffffffff81111561334157600080fd5b61334d88828901612fb0565b925050608086013567ffffffffffffffff81111561336a57600080fd5b61337688828901612f1d565b9150509295509295909350565b60006020828403121561339557600080fd5b60006133a384828501613041565b91505092915050565b600080604083850312156133bf57600080fd5b60006133cd85828601613041565b92505060206133de85828601612f71565b9150509250929050565b600080604083850312156133fb57600080fd5b600061340985828601613041565b925050602061341a85828601612f86565b9150509250929050565b6000806040838503121561343757600080fd5b600061344585828601613041565b925050602061345685828601612f9b565b9150509250929050565b6134698161380d565b82525050565b6134788161382b565b82525050565b600061348a83856137f1565b9350613497838584613974565b82840190509392505050565b60006134ae826137d5565b6134b881856137e0565b93506134c8818560208601613983565b6134d1816139b8565b840191505092915050565b6134e5816138f6565b82525050565b6134f48161391a565b82525050565b6135038161393e565b82525050565b60006135166014836137fc565b91507f4e6f2076616c69642070726f6f6620666f756e640000000000000000000000006000830152602082019050919050565b61355281613962565b82525050565b613561816138c5565b82525050565b613570816138d5565b82525050565b61357f816138e9565b82525050565b600061359282848661347e565b91508190509392505050565b60006020820190506135b36000830184613460565b92915050565b600060208201905081810360008301526135d381846134a3565b905092915050565b600060408201905081810360008301526135f581856134a3565b9050818103602083015261360981846134a3565b90509392505050565b6000606082019050818103600083015261362c81866134a3565b9050818103602083015261364081856134a3565b9050818103604083015261365481846134a3565b9050949350505050565b6000606082019050818103600083015261367881866134a3565b9050818103602083015261368c81856134a3565b905061369b6040830184613549565b949350505050565b60006020820190506136b860008301846134dc565b92915050565b60006020820190506136d360008301846134eb565b92915050565b60006020820190506136ee60008301846134fa565b92915050565b6000602082019050818103600083015261370d81613509565b9050919050565b60006060820190506137296000830186613558565b6137366020830185613567565b613743604083018461346f565b949350505050565b60006040820190506137606000830185613576565b61376d6020830184613460565b9392505050565b6000604051905081810181811067ffffffffffffffff8211171561379b5761379a6139b6565b5b8060405250919050565b600067ffffffffffffffff8211156137c0576137bf6139b6565b5b601f19601f8301169050602081019050919050565b600081519050919050565b600082825260208201905092915050565b600081905092915050565b600082825260208201905092915050565b6000613818826138a5565b9050919050565b60008115159050919050565b60007fffffffffffffffffffffffffffffffffffffffff00000000000000000000000082169050919050565b6000819050919050565b600061386c8261380d565b9050919050565b600061387e8261380d565b9050919050565b60006138908261380d565b9050919050565b600061ffff82169050919050565b600073ffffffffffffffffffffffffffffffffffffffff82169050919050565b600063ffffffff82169050919050565b600067ffffffffffffffff82169050919050565b600060ff82169050919050565b600061390182613908565b9050919050565b6000613913826138a5565b9050919050565b60006139258261392c565b9050919050565b6000613937826138a5565b9050919050565b600061394982613950565b9050919050565b600061395b826138a5565b9050919050565b600061396d82613897565b9050919050565b82818337600083830152505050565b60005b838110156139a1578082015181840152602081019050613986565b838111156139b0576000848401525b50505050565bfe5b6000601f19601f8301169050919050565b6139d28161380d565b81146139dd57600080fd5b50565b6139e98161381f565b81146139f457600080fd5b50565b613a0081613857565b8114613a0b57600080fd5b50565b613a1781613861565b8114613a2257600080fd5b50565b613a2e81613873565b8114613a3957600080fd5b50565b613a4581613885565b8114613a5057600080fd5b50565b613a5c81613897565b8114613a6757600080fd5b50565b613a73816138e9565b8114613a7e57600080fd5b5056fe00010203040506070809ffffffffffffff0a0b0c0d0e0f101112131415161718191a1b1c1d1e1fffffffffffffffffffff0a0b0c0d0e0f101112131415161718191a1b1c1d1e1fa26469706673582212200216645409792671f8799f90a91efe98143ca44c41d86ddbe5ca89906d1f857964736f6c63430007040033",
  "immutableReferences": {},
  "source": "pragma solidity ^0.7.4;\npragma experimental ABIEncoderV2;\n\nimport \"./Owned.sol\";\nimport \"./BytesUtils.sol\";\nimport \"./RRUtils.sol\";\nimport \"./DNSSEC.sol\";\nimport \"./algorithms/Algorithm.sol\";\nimport \"./digests/Digest.sol\";\nimport \"./nsec3digests/NSEC3Digest.sol\";\nimport \"@ensdomains/buffer/contracts/Buffer.sol\";\n\n/*\n * @dev An oracle contract that verifies and stores DNSSEC-validated DNS records.\n *\n * TODO: Support for NSEC3 records\n */\ncontract DNSSECImpl is DNSSEC, Owned {\n    using Buffer for Buffer.buffer;\n    using BytesUtils for bytes;\n    using RRUtils for *;\n\n    uint16 constant DNSCLASS_IN = 1;\n\n    uint16 constant DNSTYPE_NS = 2;\n    uint16 constant DNSTYPE_SOA = 6;\n    uint16 constant DNSTYPE_DNAME = 39;\n    uint16 constant DNSTYPE_DS = 43;\n    uint16 constant DNSTYPE_RRSIG = 46;\n    uint16 constant DNSTYPE_NSEC = 47;\n    uint16 constant DNSTYPE_DNSKEY = 48;\n    uint16 constant DNSTYPE_NSEC3 = 50;\n\n    uint constant DNSKEY_FLAG_ZONEKEY = 0x100;\n\n    uint8 constant ALGORITHM_RSASHA256 = 8;\n\n    uint8 constant DIGEST_ALGORITHM_SHA256 = 2;\n\n    struct RRSet {\n        uint32 inception;\n        uint64 inserted;\n        bytes20 hash;\n    }\n\n    // (name, type) => RRSet\n    mapping (bytes32 => mapping(uint16 => RRSet)) rrsets;\n\n    mapping (uint8 => Algorithm) public algorithms;\n    mapping (uint8 => Digest) public digests;\n    mapping (uint8 => NSEC3Digest) public nsec3Digests;\n\n    event Test(uint t);\n    event Marker();\n\n    /**\n     * @dev Constructor.\n     * @param _anchors The binary format RR entries for the root DS records.\n     */\n    constructor(bytes memory _anchors) public {\n        // Insert the 'trust anchors' - the key hashes that start the chain\n        // of trust for all other records.\n        anchors = _anchors;\n        rrsets[keccak256(hex\"00\")][DNSTYPE_DS] = RRSet({\n            inception: uint32(0),\n            inserted: uint64(block.timestamp),\n            hash: bytes20(keccak256(anchors))\n        });\n        emit RRSetUpdated(hex\"00\", anchors);\n    }\n\n    /**\n     * @dev Sets the contract address for a signature verification algorithm.\n     *      Callable only by the owner.\n     * @param id The algorithm ID\n     * @param algo The address of the algorithm contract.\n     */\n    function setAlgorithm(uint8 id, Algorithm algo) public owner_only {\n        algorithms[id] = algo;\n        emit AlgorithmUpdated(id, address(algo));\n    }\n\n    /**\n     * @dev Sets the contract address for a digest verification algorithm.\n     *      Callable only by the owner.\n     * @param id The digest ID\n     * @param digest The address of the digest contract.\n     */\n    function setDigest(uint8 id, Digest digest) public owner_only {\n        digests[id] = digest;\n        emit DigestUpdated(id, address(digest));\n    }\n\n    /**\n     * @dev Sets the contract address for an NSEC3 digest algorithm.\n     *      Callable only by the owner.\n     * @param id The digest ID\n     * @param digest The address of the digest contract.\n     */\n    function setNSEC3Digest(uint8 id, NSEC3Digest digest) public owner_only {\n        nsec3Digests[id] = digest;\n        emit NSEC3DigestUpdated(id, address(digest));\n    }\n\n    /**\n     * @dev Submits multiple RRSets\n     * @param data The data to submit, as a series of chunks. Each chunk is\n     *        in the format <uint16 length><bytes input><uint16 length><bytes sig>\n     * @param _proof The DNSKEY or DS to validate the first signature against.\n     * @return The last RRSET submitted.\n     */\n    function submitRRSets(bytes memory data, bytes memory _proof) public override returns (bytes memory) {\n        uint offset = 0;\n        bytes memory proof = _proof;\n        while(offset < data.length) {\n            RRSetWithSignature memory input;\n            input.rrset = data.substring(offset + 2, data.readUint16(offset));\n            offset += input.rrset.length + 2;\n            input.sig = data.substring(offset + 2, data.readUint16(offset));\n            offset += input.sig.length + 2;\n            proof = _submitRRSet(input, proof);\n        }\n        return proof;\n    }\n\n    /**\n     * @dev Submits a signed set of RRs to the oracle.\n     *\n     * RRSETs are only accepted if they are signed with a key that is already\n     * trusted, or if they are self-signed, and the signing key is identified by\n     * a DS record that is already trusted.\n     *\n     * @param input The signed RR set. This is in the format described in section\n     *        5.3.2 of RFC4035: The RRDATA section from the RRSIG without the signature\n     *        data, followed by a series of canonicalised RR records that the signature\n     *        applies to.\n     * @param proof The DNSKEY or DS to validate the signature against. Must Already\n     *        have been submitted and proved previously.\n     */\n    function submitRRSet(RRSetWithSignature memory input, bytes memory proof)\n        public override\n        returns (bytes memory)\n    {\n        return _submitRRSet(input, proof);\n    }\n\n    /**\n     * @dev Deletes an RR from the oracle.\n     *\n     * @param deleteType The DNS record type to delete.\n     * @param deleteName which you want to delete\n     * @param nsec The signed NSEC RRset. This is in the format described in section\n     *        5.3.2 of RFC4035: The RRDATA section from the RRSIG without the signature\n     *        data, followed by a series of canonicalised RR records that the signature\n     *        applies to.\n     */\n    function deleteRRSet(uint16 deleteType, bytes memory deleteName, RRSetWithSignature memory nsec, bytes memory proof)\n        public override\n    {\n        RRUtils.SignedSet memory rrset;\n        rrset = validateSignedSet(nsec, proof);\n        require(rrset.typeCovered == DNSTYPE_NSEC);\n\n        // Don't let someone use an old proof to delete a new name\n        require(int32(rrset.inception - rrsets[keccak256(deleteName)][deleteType].inception) >= 0);\n\n        for (RRUtils.RRIterator memory iter = rrset.rrs(); !iter.done(); iter.next()) {\n            // We're dealing with three names here:\n            //   - deleteName is the name the user wants us to delete\n            //   - nsecName is the owner name of the NSEC record\n            //   - nextName is the next name specified in the NSEC record\n            //\n            // And three cases:\n            //   - deleteName equals nsecName, in which case we can delete the\n            //     record if it's not in the type bitmap.\n            //   - nextName comes after nsecName, in which case we can delete\n            //     the record if deleteName comes between nextName and nsecName.\n            //   - nextName comes before nsecName, in which case nextName is the\n            //     zone apex, and deleteName must come after nsecName.\n            checkNsecName(iter, rrset.name, deleteName, deleteType);\n            delete rrsets[keccak256(deleteName)][deleteType];\n            return;\n        }\n        // We should never reach this point\n        revert();\n    }\n\n    function checkNsecName(RRUtils.RRIterator memory iter, bytes memory nsecName, bytes memory deleteName, uint16 deleteType) private pure {\n        uint rdataOffset = iter.rdataOffset;\n        uint nextNameLength = iter.data.nameLength(rdataOffset);\n        uint rDataLength = iter.nextOffset - iter.rdataOffset;\n\n        // We assume that there is always typed bitmap after the next domain name\n        require(rDataLength > nextNameLength);\n\n        int compareResult = deleteName.compareNames(nsecName);\n        if(compareResult == 0) {\n            // Name to delete is on the same label as the NSEC record\n            require(!iter.data.checkTypeBitmap(rdataOffset + nextNameLength, deleteType));\n        } else {\n            // First check if the NSEC next name comes after the NSEC name.\n            bytes memory nextName = iter.data.substring(rdataOffset,nextNameLength);\n            // deleteName must come after nsecName\n            require(compareResult > 0);\n            if(nsecName.compareNames(nextName) < 0) {\n                // deleteName must also come before nextName\n                require(deleteName.compareNames(nextName) < 0);\n            }\n        }\n    }\n\n    /**\n     * @dev Deletes an RR from the oracle using an NSEC3 proof.\n     *      Deleting a record using NSEC3 requires using up to two NSEC3 records. There are two cases:\n     *       1. The name exists, but the record type doesn't. Eg, example.com has A records but no TXT records.\n     *       2. The name does not exist, but a parent name does.\n     *      In the first case, we submit one NSEC3 proof in `closestEncloser` that matches the target name\n     *      but does not have the bit for `deleteType` set in its type bitmap. In the second case, we submit\n     *      two proofs: closestEncloser and nextClosest, that together prove that the name does not exist.\n     *      NSEC3 records are in the format described in section 5.3.2 of RFC4035: The RRDATA section\n     *      from the RRSIG without the signature data, followed by a series of canonicalised RR records\n     *      that the signature applies to.\n     *\n     * @param deleteType The DNS record type to delete.\n     * @param deleteName The name to delete.\n     * @param closestEncloser An NSEC3 proof matching the closest enclosing name - that is,\n     *        the nearest ancestor of the target name that *does* exist.\n     * @param nextClosest An NSEC3 proof covering the next closest name. This proves that the immediate\n     *        subdomain of the closestEncloser does not exist.\n     * @param dnskey An encoded DNSKEY record that has already been submitted to the oracle and can be used\n     *        to verify the signatures closestEncloserSig and nextClosestSig\n     */\n    function deleteRRSetNSEC3(uint16 deleteType, bytes memory deleteName, RRSetWithSignature memory closestEncloser, RRSetWithSignature memory nextClosest, bytes memory dnskey)\n        public override\n    {\n        int32 originalInception = int32(rrsets[keccak256(deleteName)][deleteType].inception);\n\n        RRUtils.SignedSet memory ce = validateSignedSet(closestEncloser, dnskey);\n        checkNSEC3Validity(ce, deleteName, originalInception);\n\n        RRUtils.SignedSet memory nc;\n        if(nextClosest.rrset.length > 0) {\n            nc = validateSignedSet(nextClosest, dnskey);\n            checkNSEC3Validity(nc, deleteName, originalInception);\n        }\n\n        RRUtils.NSEC3 memory ceNSEC3 = readNSEC3(ce);\n        // The flags field must be 0 or 1 (RFC5155 section 8.2).\n        require(ceNSEC3.flags & 0xfe == 0);\n        // Check that the closest encloser is from the correct zone (RFC5155 section 8.3)\n        // \"The DNAME type bit must not be set and the NS type bit may only be set if the SOA type bit is set.\"\n        require(!ceNSEC3.checkTypeBitmap(DNSTYPE_DNAME) && (!ceNSEC3.checkTypeBitmap(DNSTYPE_NS) || ceNSEC3.checkTypeBitmap(DNSTYPE_SOA)));\n\n        // Case 1: deleteName does exist, but no records of RRTYPE deleteType do.\n        if(isMatchingNSEC3Record(deleteType, deleteName, ce.name, ceNSEC3)) {\n            delete rrsets[keccak256(deleteName)][deleteType];\n        // Case 2: deleteName does not exist.\n        } else if(isCoveringNSEC3Record(deleteType, deleteName, ce.name, ceNSEC3, nc.name, readNSEC3(nc))) {\n            delete rrsets[keccak256(deleteName)][deleteType];\n        } else {\n            revert();\n        }\n    }\n\n    function checkNSEC3Validity(RRUtils.SignedSet memory nsec, bytes memory deleteName, int32 originalInception) private pure {\n        // The records must have been signed after the record we're trying to delete\n        require(int32(nsec.inception) - originalInception >= 0);\n\n        // The record must be an NSEC3\n        require(nsec.typeCovered == DNSTYPE_NSEC3);\n\n        // nsecName is of the form <hash>.zone.xyz. <hash> is the NSEC3 hash of the entire name the NSEC3 record matches, while\n        // zone.xyz can be any ancestor of that name. We'll check that, so someone can't use a record on foo.com\n        // as proof of the nonexistence of bar.org.\n        require(checkNSEC3OwnerName(nsec.name, deleteName));\n    }\n\n    function isMatchingNSEC3Record(uint16 deleteType, bytes memory deleteName, bytes memory closestEncloserName, RRUtils.NSEC3 memory closestEncloser) private view returns(bool) {\n        // Check the record matches the hashed name, but the type bitmap does not include the type\n        if(checkNSEC3Name(closestEncloser, closestEncloserName, deleteName)) {\n            return !closestEncloser.checkTypeBitmap(deleteType);\n        }\n\n        return false;\n    }\n\n    function isCoveringNSEC3Record(uint16 deleteType, bytes memory deleteName, bytes memory ceName, RRUtils.NSEC3 memory ce, bytes memory ncName, RRUtils.NSEC3 memory nc) private view returns(bool) {\n        // The flags field must be 0 or 1 (RFC5155 section 8.2).\n        require(nc.flags & 0xfe == 0);\n\n        bytes32 ceNameHash = decodeOwnerNameHash(ceName);\n        bytes32 ncNameHash = decodeOwnerNameHash(ncName);\n\n        uint lastOffset = 0;\n        // Iterate over suffixes of the name to delete until one matches the closest encloser\n        for(uint offset = deleteName.readUint8(0) + 1; offset < deleteName.length; offset += deleteName.readUint8(offset) + 1) {\n            if(hashName(ce, deleteName.substring(offset, deleteName.length - offset)) == ceNameHash) {\n                // Check that the next closest record encloses the name one label longer\n                bytes32 checkHash = hashName(nc, deleteName.substring(lastOffset, deleteName.length - lastOffset));\n                if(ncNameHash < nc.nextHashedOwnerName) {\n                    return checkHash > ncNameHash && checkHash < nc.nextHashedOwnerName;\n                } else {\n                    return checkHash > ncNameHash || checkHash < nc.nextHashedOwnerName;\n                }\n            }\n            lastOffset = offset;\n        }\n        // If we reached the root without finding a match, return false.\n        return false;\n    }\n\n    function readNSEC3(RRUtils.SignedSet memory ss) private pure returns(RRUtils.NSEC3 memory) {\n        RRUtils.RRIterator memory iter = ss.rrs();\n        return iter.data.readNSEC3(iter.rdataOffset, iter.nextOffset - iter.rdataOffset);\n    }\n\n    function checkNSEC3Name(RRUtils.NSEC3 memory nsec, bytes memory ownerName, bytes memory deleteName) private view returns(bool) {\n        // Compute the NSEC3 name hash of the name to delete.\n        bytes32 deleteNameHash = hashName(nsec, deleteName);\n\n        // Decode the NSEC3 name hash from the first label of the NSEC3 owner name.\n        bytes32 nsecNameHash = decodeOwnerNameHash(ownerName);\n\n        return deleteNameHash == nsecNameHash;\n    }\n\n    function hashName(RRUtils.NSEC3 memory nsec, bytes memory name) private view returns(bytes32) {\n        return nsec3Digests[nsec.hashAlgorithm].hash(nsec.salt, name, nsec.iterations);\n    }\n\n    function decodeOwnerNameHash(bytes memory name) private pure returns(bytes32) {\n        return name.base32HexDecodeWord(1, uint(name.readUint8(0)));\n    }\n\n    function checkNSEC3OwnerName(bytes memory nsecName, bytes memory deleteName) private pure returns(bool) {\n        uint nsecNameOffset = nsecName.readUint8(0) + 1;\n        uint deleteNameOffset = 0;\n        while(deleteNameOffset < deleteName.length) {\n            if(deleteName.equals(deleteNameOffset, nsecName, nsecNameOffset)) {\n                return true;\n            }\n            deleteNameOffset += deleteName.readUint8(deleteNameOffset) + 1;\n        }\n        return false;\n    }\n\n    /**\n     * @dev Returns data about the RRs (if any) known to this oracle with the provided type and name.\n     * @param dnstype The DNS record type to query.\n     * @param name The name to query, in DNS label-sequence format.\n     * @return inception The unix timestamp at which the signature for this RRSET was created.\n     * @return inserted The unix timestamp at which this RRSET was inserted into the oracle.\n     * @return hash The hash of the RRset that was inserted.\n     */\n    function rrdata(uint16 dnstype, bytes calldata name) external override view returns (uint32, uint64, bytes20) {\n        RRSet storage result = rrsets[keccak256(name)][dnstype];\n        return (result.inception, result.inserted, result.hash);\n    }\n\n    function _submitRRSet(RRSetWithSignature memory input, bytes memory proof) internal returns (bytes memory) {\n        RRUtils.SignedSet memory rrset;\n        rrset = validateSignedSet(input, proof);\n\n        RRSet storage storedSet = rrsets[keccak256(rrset.name)][rrset.typeCovered];\n        if (storedSet.inserted > 0) {\n            // To replace an existing rrset, the signature must be at least as new\n            require(int32(rrset.inception - storedSet.inception) >= 0);\n        }\n\n        rrsets[keccak256(rrset.name)][rrset.typeCovered] = RRSet({\n            inception: rrset.inception,\n            inserted: uint64(block.timestamp),\n            hash: bytes20(keccak256(rrset.data))\n        });\n\n        emit RRSetUpdated(rrset.name, rrset.data);\n\n        return rrset.data;\n    }\n\n    /**\n     * @dev Submits a signed set of RRs to the oracle.\n     *\n     * RRSETs are only accepted if they are signed with a key that is already\n     * trusted, or if they are self-signed, and the signing key is identified by\n     * a DS record that is already trusted.\n     *\n     * @param input The signed RR set. This is in the format described in section\n     *        5.3.2 of RFC4035: The RRDATA section from the RRSIG without the signature\n     *        data, followed by a series of canonicalised RR records that the signature\n     *        applies to.\n     * @param proof The DNSKEY or DS to validate the signature against. Must Already\n     *        have been submitted and proved previously.\n     */\n    function validateSignedSet(RRSetWithSignature memory input, bytes memory proof) internal view returns(RRUtils.SignedSet memory rrset) {\n        rrset = input.rrset.readSignedSet();\n        require(validProof(rrset.signerName, proof));\n\n        // Do some basic checks on the RRs and extract the name\n        bytes memory name = validateRRs(rrset, rrset.typeCovered);\n        require(name.labelCount(0) == rrset.labels);\n        rrset.name = name;\n\n        // All comparisons involving the Signature Expiration and\n        // Inception fields MUST use \"serial number arithmetic\", as\n        // defined in RFC 1982\n\n        // o  The validator's notion of the current time MUST be less than or\n        //    equal to the time listed in the RRSIG RR's Expiration field.\n        require(int32(rrset.expiration - block.timestamp) >= 0);\n\n        // o  The validator's notion of the current time MUST be greater than or\n        //    equal to the time listed in the RRSIG RR's Inception field.\n        require(int32(block.timestamp - rrset.inception) >= 0);\n\n        // Validate the signature\n        verifySignature(name, rrset, input, proof);\n\n        return rrset;\n    }\n\n    function validProof(bytes memory name, bytes memory proof) internal view returns(bool) {\n        uint16 dnstype = proof.readUint16(proof.nameLength(0));\n        return rrsets[keccak256(name)][dnstype].hash == bytes20(keccak256(proof));\n    }\n\n    /**\n     * @dev Validates a set of RRs.\n     * @param rrset The RR set.\n     * @param typecovered The type covered by the RRSIG record.\n     */\n    function validateRRs(RRUtils.SignedSet memory rrset, uint16 typecovered) internal pure returns (bytes memory name) {\n        // Iterate over all the RRs\n        for (RRUtils.RRIterator memory iter = rrset.rrs(); !iter.done(); iter.next()) {\n            // We only support class IN (Internet)\n            require(iter.class == DNSCLASS_IN);\n\n            if(name.length == 0) {\n                name = iter.name();\n            } else {\n                // Name must be the same on all RRs. We do things this way to avoid copying the name\n                // repeatedly.\n                require(name.length == iter.data.nameLength(iter.offset));\n                require(name.equals(0, iter.data, iter.offset, name.length));\n            }\n\n            // o  The RRSIG RR's Type Covered field MUST equal the RRset's type.\n            require(iter.dnstype == typecovered);\n        }\n    }\n\n    /**\n     * @dev Performs signature verification.\n     *\n     * Throws or reverts if unable to verify the record.\n     *\n     * @param name The name of the RRSIG record, in DNS label-sequence format.\n     * @param data The original data to verify.\n     * @param proof A DS or DNSKEY record that's already verified by the oracle.\n     */\n    function verifySignature(bytes memory name, RRUtils.SignedSet memory rrset, RRSetWithSignature memory data, bytes memory proof) internal view {\n        // o  The RRSIG RR's Signer's Name field MUST be the name of the zone\n        //    that contains the RRset.\n        require(rrset.signerName.length <= name.length);\n        require(rrset.signerName.equals(0, name, name.length - rrset.signerName.length));\n\n        RRUtils.RRIterator memory proofRR = proof.iterateRRs(0);\n        // Check the proof\n        if (proofRR.dnstype == DNSTYPE_DS) {\n            require(verifyWithDS(rrset, data, proofRR));\n        } else if (proofRR.dnstype == DNSTYPE_DNSKEY) {\n            require(verifyWithKnownKey(rrset, data, proofRR));\n        } else {\n            revert(\"No valid proof found\");\n        }\n    }\n\n    /**\n     * @dev Attempts to verify a signed RRSET against an already known public key.\n     * @param rrset The signed set to verify.\n     * @param data The original data the signed set was read from.\n     * @param proof The serialized DS or DNSKEY record to use as proof.\n     * @return True if the RRSET could be verified, false otherwise.\n     */\n    function verifyWithKnownKey(RRUtils.SignedSet memory rrset, RRSetWithSignature memory data, RRUtils.RRIterator memory proof) internal view returns(bool) {\n        // Check the DNSKEY's owner name matches the signer name on the RRSIG\n        require(proof.name().equals(rrset.signerName));\n        for(; !proof.done(); proof.next()) {\n            require(proof.name().equals(rrset.signerName));\n            bytes memory keyrdata = proof.rdata();\n            RRUtils.DNSKEY memory dnskey = keyrdata.readDNSKEY(0, keyrdata.length);\n            if(verifySignatureWithKey(dnskey, keyrdata, rrset, data)) {\n                return true;\n            }\n        }\n    }\n\n    /**\n     * @dev Attempts to verify some data using a provided key and a signature.\n     * @param dnskey The dns key record to verify the signature with.\n     * @param rrset The signed RRSET being verified.\n     * @param data The original data `rrset` was decoded from.\n     * @return True iff the key verifies the signature.\n     */\n    function verifySignatureWithKey(RRUtils.DNSKEY memory dnskey, bytes memory keyrdata, RRUtils.SignedSet memory rrset, RRSetWithSignature memory data)\n        internal\n        view\n        returns (bool)\n    {\n        // TODO: Check key isn't expired, unless updating key itself\n\n        // The Protocol Field MUST have value 3 (RFC4034 2.1.2)\n        if(dnskey.protocol != 3) {\n            return false;\n        }\n\n        // o The RRSIG RR's Signer's Name, Algorithm, and Key Tag fields MUST\n        //   match the owner name, algorithm, and key tag for some DNSKEY RR in\n        //   the zone's apex DNSKEY RRset.\n        if(dnskey.algorithm != rrset.algorithm) {\n            return false;\n        }\n        uint16 computedkeytag = computeKeytag(keyrdata);\n        if (computedkeytag != rrset.keytag) {\n            return false;\n        }\n\n        // o The matching DNSKEY RR MUST be present in the zone's apex DNSKEY\n        //   RRset, and MUST have the Zone Flag bit (DNSKEY RDATA Flag bit 7)\n        //   set.\n        if (dnskey.flags & DNSKEY_FLAG_ZONEKEY == 0) {\n            return false;\n        }\n\n        return algorithms[dnskey.algorithm].verify(keyrdata, data.rrset, data.sig);\n    }\n\n    /**\n     * @dev Attempts to verify a signed RRSET against an already known hash. This function assumes\n     *      that the record \n     * @param rrset The signed set to verify.\n     * @param data The original data the signed set was read from.\n     * @param proof The serialized DS or DNSKEY record to use as proof.\n     * @return True if the RRSET could be verified, false otherwise.\n     */\n    function verifyWithDS(RRUtils.SignedSet memory rrset, RRSetWithSignature memory data, RRUtils.RRIterator memory proof) internal view returns(bool) {\n        for(RRUtils.RRIterator memory iter = rrset.rrs(); !iter.done(); iter.next()) {\n            require(iter.dnstype == DNSTYPE_DNSKEY);\n            bytes memory keyrdata = iter.rdata();\n            RRUtils.DNSKEY memory dnskey = keyrdata.readDNSKEY(0, keyrdata.length);\n            if (verifySignatureWithKey(dnskey, keyrdata, rrset, data)) {\n                // It's self-signed - look for a DS record to verify it.\n                return verifyKeyWithDS(iter.name(), proof, dnskey, keyrdata);\n            }\n        }\n        return false;\n    }\n\n    /**\n     * @dev Attempts to verify a key using DS records.\n     * @param keyname The DNS name of the key, in DNS label-sequence format.\n     * @param dsrrs The DS records to use in verification.\n     * @param dnskey The dnskey to verify.\n     * @param keyrdata The RDATA section of the key.\n     * @return True if a DS record verifies this key.\n     */\n    function verifyKeyWithDS(bytes memory keyname, RRUtils.RRIterator memory dsrrs, RRUtils.DNSKEY memory dnskey, bytes memory keyrdata)\n        internal view returns (bool)\n    {\n        uint16 keytag = computeKeytag(keyrdata);\n        for (; !dsrrs.done(); dsrrs.next()) {\n            bytes memory rdata = dsrrs.rdata();\n            RRUtils.DS memory ds = dsrrs.data.readDS(dsrrs.rdataOffset, dsrrs.nextOffset - dsrrs.rdataOffset);\n            if(ds.keytag != keytag) {\n                continue;\n            }\n            if (ds.algorithm != dnskey.algorithm) {\n                continue;\n            }\n\n            Buffer.buffer memory buf;\n            buf.init(keyname.length + keyrdata.length);\n            buf.append(keyname);\n            buf.append(keyrdata);\n            if (verifyDSHash(ds.digestType, buf.buf, ds.digest)) {\n                return true;\n            }\n        }\n        return false;\n    }\n\n    /**\n     * @dev Attempts to verify a DS record's hash value against some data.\n     * @param digesttype The digest ID from the DS record.\n     * @param data The data to digest.\n     * @param digest The digest data to check against.\n     * @return True iff the digest matches.\n     */\n    function verifyDSHash(uint8 digesttype, bytes memory data, bytes memory digest) internal view returns (bool) {\n        if (address(digests[digesttype]) == address(0)) {\n            return false;\n        }\n        return digests[digesttype].verify(data, digest);\n    }\n\n    /**\n     * @dev Computes the keytag for a chunk of data.\n     * @param data The data to compute a keytag for.\n     * @return The computed key tag.\n     */\n    function computeKeytag(bytes memory data) internal pure returns (uint16) {\n        uint ac;\n        for (uint i = 0; i < data.length; i++) {\n            ac += i & 1 == 0 ? uint16(data.readUint8(i)) << 8 : data.readUint8(i);\n        }\n        return uint16(ac + (ac >> 16));\n    }\n}\n",
  "sourcePath": "/home/arachnid/Dropbox/projects/enssec/contracts/DNSSECImpl.sol",
  "compiler": {
    "name": "solc",
    "version": "0.7.4+commit.3f05b770.Emscripten.clang"
  },
  "schemaVersion": "3.3.2",
  "updatedAt": "2021-01-20T20:53:41.142Z",
  "devdoc": {
    "kind": "dev",
    "methods": {
      "constructor": {
        "details": "Constructor.",
        "params": {
          "_anchors": "The binary format RR entries for the root DS records."
        }
      },
      "deleteRRSet(uint16,bytes,(bytes,bytes),bytes)": {
        "details": "Deletes an RR from the oracle.",
        "params": {
          "deleteName": "which you want to delete",
          "deleteType": "The DNS record type to delete.",
          "nsec": "The signed NSEC RRset. This is in the format described in section        5.3.2 of RFC4035: The RRDATA section from the RRSIG without the signature        data, followed by a series of canonicalised RR records that the signature        applies to."
        }
      },
      "deleteRRSetNSEC3(uint16,bytes,(bytes,bytes),(bytes,bytes),bytes)": {
        "details": "Deletes an RR from the oracle using an NSEC3 proof.      Deleting a record using NSEC3 requires using up to two NSEC3 records. There are two cases:       1. The name exists, but the record type doesn't. Eg, example.com has A records but no TXT records.       2. The name does not exist, but a parent name does.      In the first case, we submit one NSEC3 proof in `closestEncloser` that matches the target name      but does not have the bit for `deleteType` set in its type bitmap. In the second case, we submit      two proofs: closestEncloser and nextClosest, that together prove that the name does not exist.      NSEC3 records are in the format described in section 5.3.2 of RFC4035: The RRDATA section      from the RRSIG without the signature data, followed by a series of canonicalised RR records      that the signature applies to.",
        "params": {
          "closestEncloser": "An NSEC3 proof matching the closest enclosing name - that is,        the nearest ancestor of the target name that *does* exist.",
          "deleteName": "The name to delete.",
          "deleteType": "The DNS record type to delete.",
          "dnskey": "An encoded DNSKEY record that has already been submitted to the oracle and can be used        to verify the signatures closestEncloserSig and nextClosestSig",
          "nextClosest": "An NSEC3 proof covering the next closest name. This proves that the immediate        subdomain of the closestEncloser does not exist."
        }
      },
      "rrdata(uint16,bytes)": {
        "details": "Returns data about the RRs (if any) known to this oracle with the provided type and name.",
        "params": {
          "dnstype": "The DNS record type to query.",
          "name": "The name to query, in DNS label-sequence format."
        },
        "returns": {
          "_0": "inception The unix timestamp at which the signature for this RRSET was created.",
          "_1": "inserted The unix timestamp at which this RRSET was inserted into the oracle.",
          "_2": "hash The hash of the RRset that was inserted."
        }
      },
      "setAlgorithm(uint8,address)": {
        "details": "Sets the contract address for a signature verification algorithm.      Callable only by the owner.",
        "params": {
          "algo": "The address of the algorithm contract.",
          "id": "The algorithm ID"
        }
      },
      "setDigest(uint8,address)": {
        "details": "Sets the contract address for a digest verification algorithm.      Callable only by the owner.",
        "params": {
          "digest": "The address of the digest contract.",
          "id": "The digest ID"
        }
      },
      "setNSEC3Digest(uint8,address)": {
        "details": "Sets the contract address for an NSEC3 digest algorithm.      Callable only by the owner.",
        "params": {
          "digest": "The address of the digest contract.",
          "id": "The digest ID"
        }
      },
      "submitRRSet((bytes,bytes),bytes)": {
        "details": "Submits a signed set of RRs to the oracle. RRSETs are only accepted if they are signed with a key that is already trusted, or if they are self-signed, and the signing key is identified by a DS record that is already trusted.",
        "params": {
          "input": "The signed RR set. This is in the format described in section        5.3.2 of RFC4035: The RRDATA section from the RRSIG without the signature        data, followed by a series of canonicalised RR records that the signature        applies to.",
          "proof": "The DNSKEY or DS to validate the signature against. Must Already        have been submitted and proved previously."
        }
      },
      "submitRRSets(bytes,bytes)": {
        "details": "Submits multiple RRSets",
        "params": {
          "_proof": "The DNSKEY or DS to validate the first signature against.",
          "data": "The data to submit, as a series of chunks. Each chunk is        in the format <uint16 length><bytes input><uint16 length><bytes sig>"
        },
        "returns": {
          "_0": "The last RRSET submitted."
        }
      }
    },
    "version": 1
  },
  "userdoc": {
    "kind": "user",
    "methods": {},
    "version": 1
  }
}