{
  "contractName": "P256SHA256Algorithm",
  "abi": [
    {
      "inputs": [
        {
          "internalType": "uint256",
          "name": "x0",
          "type": "uint256"
        },
        {
          "internalType": "uint256",
          "name": "y0",
          "type": "uint256"
        },
        {
          "internalType": "uint256",
          "name": "x1",
          "type": "uint256"
        },
        {
          "internalType": "uint256",
          "name": "y1",
          "type": "uint256"
        }
      ],
      "name": "add",
      "outputs": [
        {
          "internalType": "uint256",
          "name": "",
          "type": "uint256"
        },
        {
          "internalType": "uint256",
          "name": "",
          "type": "uint256"
        }
      ],
      "stateMutability": "pure",
      "type": "function"
    },
    {
      "inputs": [
        {
          "internalType": "uint256",
          "name": "x1",
          "type": "uint256"
        },
        {
          "internalType": "uint256",
          "name": "y1",
          "type": "uint256"
        },
        {
          "internalType": "uint256",
          "name": "x2",
          "type": "uint256"
        },
        {
          "internalType": "uint256",
          "name": "y2",
          "type": "uint256"
        }
      ],
      "name": "addAndReturnProjectivePoint",
      "outputs": [
        {
          "internalType": "uint256[3]",
          "name": "P",
          "type": "uint256[3]"
        }
      ],
      "stateMutability": "pure",
      "type": "function"
    },
    {
      "inputs": [
        {
          "internalType": "uint256",
          "name": "x0",
          "type": "uint256"
        },
        {
          "internalType": "uint256",
          "name": "y0",
          "type": "uint256"
        },
        {
          "internalType": "uint256",
          "name": "z0",
          "type": "uint256"
        },
        {
          "internalType": "uint256",
          "name": "x1",
          "type": "uint256"
        },
        {
          "internalType": "uint256",
          "name": "y1",
          "type": "uint256"
        },
        {
          "internalType": "uint256",
          "name": "z1",
          "type": "uint256"
        }
      ],
      "name": "addProj",
      "outputs": [
        {
          "internalType": "uint256",
          "name": "x2",
          "type": "uint256"
        },
        {
          "internalType": "uint256",
          "name": "y2",
          "type": "uint256"
        },
        {
          "internalType": "uint256",
          "name": "z2",
          "type": "uint256"
        }
      ],
      "stateMutability": "pure",
      "type": "function"
    },
    {
      "inputs": [
        {
          "internalType": "uint256",
          "name": "x",
          "type": "uint256"
        },
        {
          "internalType": "uint256",
          "name": "y",
          "type": "uint256"
        }
      ],
      "name": "isOnCurve",
      "outputs": [
        {
          "internalType": "bool",
          "name": "",
          "type": "bool"
        }
      ],
      "stateMutability": "pure",
      "type": "function"
    },
    {
      "inputs": [
        {
          "internalType": "uint256",
          "name": "x0",
          "type": "uint256"
        },
        {
          "internalType": "uint256",
          "name": "y0",
          "type": "uint256"
        }
      ],
      "name": "isZeroCurve",
      "outputs": [
        {
          "internalType": "bool",
          "name": "isZero",
          "type": "bool"
        }
      ],
      "stateMutability": "pure",
      "type": "function"
    },
    {
      "inputs": [
        {
          "internalType": "uint256",
          "name": "scalar",
          "type": "uint256"
        }
      ],
      "name": "multipleGeneratorByScalar",
      "outputs": [
        {
          "internalType": "uint256",
          "name": "",
          "type": "uint256"
        },
        {
          "internalType": "uint256",
          "name": "",
          "type": "uint256"
        }
      ],
      "stateMutability": "pure",
      "type": "function"
    },
    {
      "inputs": [
        {
          "internalType": "uint256",
          "name": "x0",
          "type": "uint256"
        },
        {
          "internalType": "uint256",
          "name": "y0",
          "type": "uint256"
        },
        {
          "internalType": "uint256",
          "name": "exp",
          "type": "uint256"
        }
      ],
      "name": "multiplyPowerBase2",
      "outputs": [
        {
          "internalType": "uint256",
          "name": "",
          "type": "uint256"
        },
        {
          "internalType": "uint256",
          "name": "",
          "type": "uint256"
        }
      ],
      "stateMutability": "pure",
      "type": "function"
    },
    {
      "inputs": [
        {
          "internalType": "uint256",
          "name": "x0",
          "type": "uint256"
        },
        {
          "internalType": "uint256",
          "name": "y0",
          "type": "uint256"
        },
        {
          "internalType": "uint256",
          "name": "scalar",
          "type": "uint256"
        }
      ],
      "name": "multiplyScalar",
      "outputs": [
        {
          "internalType": "uint256",
          "name": "x1",
          "type": "uint256"
        },
        {
          "internalType": "uint256",
          "name": "y1",
          "type": "uint256"
        }
      ],
      "stateMutability": "pure",
      "type": "function"
    },
    {
      "inputs": [
        {
          "internalType": "uint256",
          "name": "x0",
          "type": "uint256"
        },
        {
          "internalType": "uint256",
          "name": "y0",
          "type": "uint256"
        },
        {
          "internalType": "uint256",
          "name": "z0",
          "type": "uint256"
        }
      ],
      "name": "toAffinePoint",
      "outputs": [
        {
          "internalType": "uint256",
          "name": "x1",
          "type": "uint256"
        },
        {
          "internalType": "uint256",
          "name": "y1",
          "type": "uint256"
        }
      ],
      "stateMutability": "pure",
      "type": "function"
    },
    {
      "inputs": [
        {
          "internalType": "uint256",
          "name": "x0",
          "type": "uint256"
        },
        {
          "internalType": "uint256",
          "name": "y0",
          "type": "uint256"
        }
      ],
      "name": "toProjectivePoint",
      "outputs": [
        {
          "internalType": "uint256[3]",
          "name": "P",
          "type": "uint256[3]"
        }
      ],
      "stateMutability": "pure",
      "type": "function"
    },
    {
      "inputs": [
        {
          "internalType": "uint256",
          "name": "x0",
          "type": "uint256"
        },
        {
          "internalType": "uint256",
          "name": "y0",
          "type": "uint256"
        }
      ],
      "name": "twice",
      "outputs": [
        {
          "internalType": "uint256",
          "name": "",
          "type": "uint256"
        },
        {
          "internalType": "uint256",
          "name": "",
          "type": "uint256"
        }
      ],
      "stateMutability": "pure",
      "type": "function"
    },
    {
      "inputs": [
        {
          "internalType": "uint256",
          "name": "x0",
          "type": "uint256"
        },
        {
          "internalType": "uint256",
          "name": "y0",
          "type": "uint256"
        },
        {
          "internalType": "uint256",
          "name": "z0",
          "type": "uint256"
        }
      ],
      "name": "twiceProj",
      "outputs": [
        {
          "internalType": "uint256",
          "name": "x1",
          "type": "uint256"
        },
        {
          "internalType": "uint256",
          "name": "y1",
          "type": "uint256"
        },
        {
          "internalType": "uint256",
          "name": "z1",
          "type": "uint256"
        }
      ],
      "stateMutability": "pure",
      "type": "function"
    },
    {
      "inputs": [
        {
          "internalType": "bytes32",
          "name": "message",
          "type": "bytes32"
        },
        {
          "internalType": "uint256[2]",
          "name": "rs",
          "type": "uint256[2]"
        },
        {
          "internalType": "uint256[2]",
          "name": "Q",
          "type": "uint256[2]"
        }
      ],
      "name": "validateSignature",
      "outputs": [
        {
          "internalType": "bool",
          "name": "",
          "type": "bool"
        }
      ],
      "stateMutability": "pure",
      "type": "function"
    },
    {
      "inputs": [],
      "name": "zeroAffine",
      "outputs": [
        {
          "internalType": "uint256",
          "name": "x",
          "type": "uint256"
        },
        {
          "internalType": "uint256",
          "name": "y",
          "type": "uint256"
        }
      ],
      "stateMutability": "pure",
      "type": "function"
    },
    {
      "inputs": [],
      "name": "zeroProj",
      "outputs": [
        {
          "internalType": "uint256",
          "name": "x",
          "type": "uint256"
        },
        {
          "internalType": "uint256",
          "name": "y",
          "type": "uint256"
        },
        {
          "internalType": "uint256",
          "name": "z",
          "type": "uint256"
        }
      ],
      "stateMutability": "pure",
      "type": "function"
    },
    {
      "inputs": [
        {
          "internalType": "bytes",
          "name": "key",
          "type": "bytes"
        },
        {
          "internalType": "bytes",
          "name": "data",
          "type": "bytes"
        },
        {
          "internalType": "bytes",
          "name": "signature",
          "type": "bytes"
        }
      ],
      "name": "verify",
      "outputs": [
        {
          "internalType": "bool",
          "name": "",
          "type": "bool"
        }
      ],
      "stateMutability": "view",
      "type": "function"
    }
  ],
  "bytecode": "0x608060405234801561001057600080fd5b50611e25806100206000396000f3fe608060405234801561001057600080fd5b50600436106101005760003560e01c806372fb4a1411610097578063c80edca411610066578063c80edca414610567578063de8f50a1146105cb578063e022d77c14610704578063f214aba01461076b57610100565b806372fb4a14146104235780637ec8da8d1461048057806384dfba46146104f4578063c30cfa2d1461051957610100565b806314c67060116100d357806314c67060146102b5578063322b24aa146102e1578063675ca0431461033e578063713eca281461039b57610100565b806304e960d71461010557806309d3ef31146101cb5780630afb4ddc1461021e5780630b0dbcfa14610267575b600080fd5b6101b3600480360360a081101561011b57600080fd5b810190808035906020019092919080604001906002806020026040519081016040528092919082600260200280828437600081840152601f19601f820116905080830192505050505050919291929080604001906002806020026040519081016040528092919082600260200280828437600081840152601f19601f82011690508083019250505050505091929192905050506107ed565b60405180821515815260200191505060405180910390f35b610201600480360360408110156101e157600080fd5b810190808035906020019092919080359060200190929190505050610b0b565b604051808381526020018281526020019250505060405180910390f35b61024a6004803603602081101561023457600080fd5b8101908080359060200190929190505050610b3f565b604051808381526020018281526020019250505060405180910390f35b61029d6004803603604081101561027d57600080fd5b810190808035906020019092919080359060200190929190505050610b96565b60405180821515815260200191505060405180910390f35b6102bd610db5565b60405180848152602001838152602001828152602001935050505060405180910390f35b610321600480360360608110156102f757600080fd5b81019080803590602001909291908035906020019092919080359060200190929190505050610dca565b604051808381526020018281526020019250505060405180910390f35b61037e6004803603606081101561035457600080fd5b81019080803590602001909291908035906020019092919080359060200190929190505050610e27565b604051808381526020018281526020019250505060405180910390f35b6103e5600480360360808110156103b157600080fd5b8101908080359060200190929190803590602001909291908035906020019092919080359060200190929190505050610ebb565b6040518082600360200280838360005b838110156104105780820151818401526020810190506103f5565b5050505090500191505060405180910390f35b6104636004803603606081101561043957600080fd5b81019080803590602001909291908035906020019092919080359060200190929190505050610ef0565b604051808381526020018281526020019250505060405180910390f35b6104b66004803603604081101561049657600080fd5b810190808035906020019092919080359060200190929190505050610ff2565b6040518082600360200280838360005b838110156104e15780820151818401526020810190506104c6565b5050505090500191505060405180910390f35b6104fc6110e7565b604051808381526020018281526020019250505060405180910390f35b61054f6004803603604081101561052f57600080fd5b8101908080359060200190929190803590602001909291905050506110f5565b60405180821515815260200191505060405180910390f35b6105a76004803603606081101561057d57600080fd5b8101908080359060200190929190803590602001909291908035906020019092919050505061111f565b60405180848152602001838152602001828152602001935050505060405180910390f35b6106ec600480360360608110156105e157600080fd5b81019080803590602001906401000000008111156105fe57600080fd5b82018360208201111561061057600080fd5b8035906020019184600183028401116401000000008311171561063257600080fd5b90919293919293908035906020019064010000000081111561065357600080fd5b82018360208201111561066557600080fd5b8035906020019184600183028401116401000000008311171561068757600080fd5b9091929391929390803590602001906401000000008111156106a857600080fd5b8201836020820111156106ba57600080fd5b803590602001918460018302840111640100000000831117156106dc57600080fd5b90919293919293905050506115c7565b60405180821515815260200191505060405180910390f35b61074e6004803603608081101561071a57600080fd5b81019080803590602001909291908035906020019092919080359060200190929190803590602001909291905050506116d3565b604051808381526020018281526020019250505060405180910390f35b6107c9600480360360c081101561078157600080fd5b8101908080359060200190929190803590602001909291908035906020019092919080359060200190929190803590602001909291908035906020019092919050505061170d565b60405180848152602001838152602001828152602001935050505060405180910390f35b600080836000600281106107fd57fe5b6020020151148061083f57507fffffffff00000000ffffffffffffffffbce6faada7179e84f3b9cac2fc6325518360006002811061083757fe5b602002015110155b8061085b575060008360016002811061085457fe5b6020020151145b156108695760009050610b04565b6108958260006002811061087957fe5b60200201518360016002811061088b57fe5b6020020151610b96565b6108a25760009050610b04565b60008060008060006108e5886001600281106108ba57fe5b60200201517fffffffff00000000ffffffffffffffffbce6faada7179e84f3b9cac2fc6325516118a3565b905061095f7f6b17d1f2e12c4247f8bce6e563a440f277037d812deb33a0f4a13945d898c2967f4fe342e2fe1a7f9b8ee7eb4a7c0f9e162bce33576b315ececbb6406837bf51f57fffffffff00000000ffffffffffffffffbce6faada7179e84f3b9cac2fc6325518061095457fe5b848d60001c09610ef0565b80945081965050506109cf8760006002811061097757fe5b60200201518860016002811061098957fe5b60200201517fffffffff00000000ffffffffffffffffbce6faada7179e84f3b9cac2fc632551806109b657fe5b848c6000600281106109c457fe5b602002015109610ef0565b80935081955050506109df611dab565b6109eb86858786610ebb565b90506000816002600381106109fc57fe5b60200201511415610a165760009650505050505050610b04565b6000610a5382600260038110610a2857fe5b60200201517fffffffff00000001000000000000000000000000ffffffffffffffffffffffff6118a3565b90507fffffffff00000001000000000000000000000000ffffffffffffffffffffffff80610a7d57fe5b7fffffffff00000001000000000000000000000000ffffffffffffffffffffffff80610aa557fe5b82830983600060038110610ab557fe5b602002015109905089600060028110610aca57fe5b60200201517fffffffff00000000ffffffffffffffffbce6faada7179e84f3b9cac2fc6325518281610af857fe5b06149750505050505050505b9392505050565b6000806000610b1c8585600161111f565b809350819650829750505050610b33858583610e27565b92509250509250929050565b600080610b8d7f6b17d1f2e12c4247f8bce6e563a440f277037d812deb33a0f4a13945d898c2967f4fe342e2fe1a7f9b8ee7eb4a7c0f9e162bce33576b315ececbb6406837bf51f585610ef0565b91509150915091565b60008260001480610bc657507fffffffff00000001000000000000000000000000ffffffffffffffffffffffff83145b80610bd15750816000145b80610bfb57507fffffffff00000001000000000000000000000000ffffffffffffffffffffffff82145b15610c095760009050610daf565b60007fffffffff00000001000000000000000000000000ffffffffffffffffffffffff80610c3357fe5b838409905060007fffffffff00000001000000000000000000000000ffffffffffffffffffffffff80610c6257fe5b857fffffffff00000001000000000000000000000000ffffffffffffffffffffffff80610c8b57fe5b87880909905060007fffffffff00000001000000000000000000000000fffffffffffffffffffffffc14610d31577fffffffff00000001000000000000000000000000ffffffffffffffffffffffff80610ce157fe5b7fffffffff00000001000000000000000000000000ffffffffffffffffffffffff80610d0957fe5b7fffffffff00000001000000000000000000000000fffffffffffffffffffffffc8709820890505b60007f5ac635d8aa3a93e7b3ebbd55769886bc651d06b0cc53b0f63bce3c3e27d2604b14610da7577fffffffff00000001000000000000000000000000ffffffffffffffffffffffff80610d8157fe5b7f5ac635d8aa3a93e7b3ebbd55769886bc651d06b0cc53b0f63bce3c3e27d2604b820890505b808214925050505b92915050565b60008060008060016000925092509250909192565b6000806000859050600085905060006001905060005b86811015610e0c57610df384848461111f565b8094508195508296505050508080600101915050610de0565b50610e18838383610e27565b94509450505050935093915050565b6000806000610e56847fffffffff00000001000000000000000000000000ffffffffffffffffffffffff6118a3565b90507fffffffff00000001000000000000000000000000ffffffffffffffffffffffff80610e8057fe5b81870992507fffffffff00000001000000000000000000000000ffffffffffffffffffffffff80610ead57fe5b818609915050935093915050565b610ec3611dab565b600080610ed2878787876116d3565b8092508193505050610ee48282610ff2565b92505050949350505050565b6000806000831415610f0d57610f046110e7565b91509150610fea565b6001831415610f2157848491509150610fea565b6002831415610f3d57610f348585610b0b565b91509150610fea565b60008590506000859050600060019050600060019050889550879450600060028881610f6557fe5b061415610f7457600094508495505b600187901c96505b6000871115610fd657610f9084848461111f565b809450819550829650505050600160028881610fa857fe5b061415610fca57610fbd84848489898661170d565b8093508197508298505050505b600187901c9650610f7c565b610fe1868683610e27565b95509550505050505b935093915050565b610ffa611dab565b7fffffffff00000001000000000000000000000000ffffffffffffffffffffffff8061102257fe5b60016000088160026003811061103457fe5b6020020181815250507fffffffff00000001000000000000000000000000ffffffffffffffffffffffff8061106557fe5b8160026003811061107257fe5b602002015184098160006003811061108657fe5b6020020181815250507fffffffff00000001000000000000000000000000ffffffffffffffffffffffff806110b757fe5b816002600381106110c457fe5b60200201518309816001600381106110d857fe5b60200201818152505092915050565b600080600080915091509091565b600080831480156111065750600082145b156111145760019050611119565b600090505b92915050565b60008060008060008060006111348a8a6110f5565b1561115057611141610db5565b965096509650505050506115be565b7fffffffff00000001000000000000000000000000ffffffffffffffffffffffff8061117857fe5b888a0992507fffffffff00000001000000000000000000000000ffffffffffffffffffffffff806111a557fe5b6002840992507fffffffff00000001000000000000000000000000ffffffffffffffffffffffff806111d357fe5b8a840991507fffffffff00000001000000000000000000000000ffffffffffffffffffffffff8061120057fe5b89830991507fffffffff00000001000000000000000000000000ffffffffffffffffffffffff8061122d57fe5b6002830991507fffffffff00000001000000000000000000000000ffffffffffffffffffffffff8061125b57fe5b8a8b0999507fffffffff00000001000000000000000000000000ffffffffffffffffffffffff8061128857fe5b60038b0993507fffffffff00000001000000000000000000000000ffffffffffffffffffffffff806112b657fe5b88890997507fffffffff00000001000000000000000000000000ffffffffffffffffffffffff806112e357fe5b7fffffffff00000001000000000000000000000000fffffffffffffffffffffffc890997507fffffffff00000001000000000000000000000000ffffffffffffffffffffffff8061133057fe5b88850893507fffffffff00000001000000000000000000000000ffffffffffffffffffffffff8061135d57fe5b84850990507fffffffff00000001000000000000000000000000ffffffffffffffffffffffff8061138a57fe5b8260020999507fffffffff00000001000000000000000000000000ffffffffffffffffffffffff806113b857fe5b8a7fffffffff00000001000000000000000000000000ffffffffffffffffffffffff03820890507fffffffff00000001000000000000000000000000ffffffffffffffffffffffff8061140757fe5b817fffffffff00000001000000000000000000000000ffffffffffffffffffffffff03830899507fffffffff00000001000000000000000000000000ffffffffffffffffffffffff8061145657fe5b8a850999507fffffffff00000001000000000000000000000000ffffffffffffffffffffffff8061148357fe5b838a0998507fffffffff00000001000000000000000000000000ffffffffffffffffffffffff806114b057fe5b898a0998507fffffffff00000001000000000000000000000000ffffffffffffffffffffffff806114dd57fe5b8960020998507fffffffff00000001000000000000000000000000ffffffffffffffffffffffff8061150b57fe5b897fffffffff00000001000000000000000000000000ffffffffffffffffffffffff038b0895507fffffffff00000001000000000000000000000000ffffffffffffffffffffffff8061155a57fe5b81840996507fffffffff00000001000000000000000000000000ffffffffffffffffffffffff8061158757fe5b83840994507fffffffff00000001000000000000000000000000ffffffffffffffffffffffff806115b457fe5b8386099450505050505b93509350939050565b60006116c760028686604051808383808284378083019250505092505050602060405180830381855afa158015611602573d6000803e3d6000fd5b5050506040513d602081101561161757600080fd5b810190808051906020019092919050505061167585858080601f016020809104026020016040519081016040528093929190818152602001838380828437600081840152601f19601f82011690508083019250505050505050611953565b6116c28a8a8080601f016020809104026020016040519081016040528093929190818152602001838380828437600081840152601f19601f820116905080830192505050505050506119a3565b6107ed565b90509695505050505050565b60008060006116e8878760018888600161170d565b8093508198508299505050506116ff878783610e27565b925092505094509492505050565b60008060008060008060006117228d8d6110f5565b156117395789898996509650965050505050611897565b6117438a8a6110f5565b1561175a578c8c8c96509650965050505050611897565b7fffffffff00000001000000000000000000000000ffffffffffffffffffffffff8061178257fe5b888d0993507fffffffff00000001000000000000000000000000ffffffffffffffffffffffff806117af57fe5b8b8a0992507fffffffff00000001000000000000000000000000ffffffffffffffffffffffff806117dc57fe5b888e0991507fffffffff00000001000000000000000000000000ffffffffffffffffffffffff8061180957fe5b8b8b0990508082141561184f5782841415611838576118298d8d8d61111f565b96509650965050505050611897565b611840610db5565b96509650965050505050611897565b6118867fffffffff00000001000000000000000000000000ffffffffffffffffffffffff8061187a57fe5b898d09838386886119f3565b809750819850829950505050505050505b96509650969350505050565b6000808314806118b257508183145b806118bd5750600082145b156118cb576000905061194d565b818311156118e0578183816118dc57fe5b0692505b600080600190506000849050600086905060005b600082146119295781838161190557fe5b049050838482028603838484028603809550819650829750839850505050506118f4565b6000851215611944578460000387039550505050505061194d565b84955050505050505b92915050565b61195b611dcd565b604051806040016040528061197a600085611d8990919063ffffffff16565b60001c8152602001611996602085611d8990919063ffffffff16565b60001c8152509050919050565b6119ab611dcd565b60405180604001604052806119ca600485611d8990919063ffffffff16565b60001c81526020016119e6602485611d8990919063ffffffff16565b60001c8152509050919050565b6000806000806000806000807fffffffff00000001000000000000000000000000ffffffffffffffffffffffff80611a2757fe5b8a7fffffffff00000001000000000000000000000000ffffffffffffffffffffffff038a0890507fffffffff00000001000000000000000000000000ffffffffffffffffffffffff80611a7657fe5b8b7fffffffff00000001000000000000000000000000ffffffffffffffffffffffff038d0894507fffffffff00000001000000000000000000000000ffffffffffffffffffffffff80611ac557fe5b85860993507fffffffff00000001000000000000000000000000ffffffffffffffffffffffff80611af257fe5b81820991507fffffffff00000001000000000000000000000000ffffffffffffffffffffffff80611b1f57fe5b8d830991507fffffffff00000001000000000000000000000000ffffffffffffffffffffffff80611b4c57fe5b8c8c089a507fffffffff00000001000000000000000000000000ffffffffffffffffffffffff80611b7957fe5b848c099a507fffffffff00000001000000000000000000000000ffffffffffffffffffffffff80611ba657fe5b8b7fffffffff00000001000000000000000000000000ffffffffffffffffffffffff03830891507fffffffff00000001000000000000000000000000ffffffffffffffffffffffff80611bf557fe5b82860997507fffffffff00000001000000000000000000000000ffffffffffffffffffffffff80611c2257fe5b85850992507fffffffff00000001000000000000000000000000ffffffffffffffffffffffff80611c4f57fe5b848d099b507fffffffff00000001000000000000000000000000ffffffffffffffffffffffff80611c7c57fe5b827fffffffff00000001000000000000000000000000ffffffffffffffffffffffff038d089b507fffffffff00000001000000000000000000000000ffffffffffffffffffffffff80611ccb57fe5b8c820990507fffffffff00000001000000000000000000000000ffffffffffffffffffffffff80611cf857fe5b838a0998507fffffffff00000001000000000000000000000000ffffffffffffffffffffffff80611d2557fe5b897fffffffff00000001000000000000000000000000ffffffffffffffffffffffff03820896507fffffffff00000001000000000000000000000000ffffffffffffffffffffffff80611d7457fe5b8d840995505050505050955095509592505050565b60008251602083011115611d9c57600080fd5b81602084010151905092915050565b6040518060600160405280600390602082028036833780820191505090505090565b604051806040016040528060029060208202803683378082019150509050509056fea2646970667358221220b3b37f7a5ce9a9e5b0f97e43fae2b708436bc1869d0335fe0b82356eaba4655664736f6c63430007040033",
  "immutableReferences": {},
  "source": "pragma solidity ^0.7.4;\n\nimport \"./Algorithm.sol\";\nimport \"./EllipticCurve.sol\";\nimport \"../BytesUtils.sol\";\n\ncontract P256SHA256Algorithm is Algorithm, EllipticCurve {\n\n    using BytesUtils for *;\n\n    /**\n    * @dev Verifies a signature.\n    * @param key The public key to verify with.\n    * @param data The signed data to verify.\n    * @param signature The signature to verify.\n    * @return True iff the signature is valid.\n    */\n    function verify(bytes calldata key, bytes calldata data, bytes calldata signature) external override view returns (bool) {\n        return validateSignature(sha256(data), parseSignature(signature), parseKey(key));\n    }\n\n    function parseSignature(bytes memory data) internal pure returns (uint256[2] memory) {\n        return [uint256(data.readBytes32(0)), uint256(data.readBytes32(32))];\n    }\n\n    function parseKey(bytes memory data) internal pure returns (uint256[2] memory) {\n        return [uint256(data.readBytes32(4)), uint256(data.readBytes32(36))];\n    }\n}\n",
  "sourcePath": "/home/arachnid/Dropbox/projects/enssec/contracts/algorithms/P256SHA256Algorithm.sol",
  "compiler": {
    "name": "solc",
    "version": "0.7.4+commit.3f05b770.Emscripten.clang"
  },
  "schemaVersion": "3.3.2",
  "updatedAt": "2021-01-20T20:53:41.252Z",
  "devdoc": {
    "kind": "dev",
    "methods": {
      "add(uint256,uint256,uint256,uint256)": {
        "details": "Add two elliptic curve points in affine coordinates."
      },
      "addAndReturnProjectivePoint(uint256,uint256,uint256,uint256)": {
        "details": "Add two points in affine coordinates and return projective point."
      },
      "addProj(uint256,uint256,uint256,uint256,uint256,uint256)": {
        "details": "Add two elliptic curve points in projective coordinates. See https://www.nayuki.io/page/elliptic-curve-point-addition-in-projective-coordinates"
      },
      "isOnCurve(uint256,uint256)": {
        "details": "Check if a point in affine coordinates is on the curve."
      },
      "isZeroCurve(uint256,uint256)": {
        "details": "Check if the curve is the zero curve."
      },
      "multipleGeneratorByScalar(uint256)": {
        "details": "Multiply the curve's generator point by a scalar."
      },
      "multiplyPowerBase2(uint256,uint256,uint256)": {
        "details": "Multiply an elliptic curve point by a 2 power base (i.e., (2^exp)*P))."
      },
      "multiplyScalar(uint256,uint256,uint256)": {
        "details": "Multiply an elliptic curve point by a scalar."
      },
      "toAffinePoint(uint256,uint256,uint256)": {
        "details": "Transform from projective to affine coordinates."
      },
      "toProjectivePoint(uint256,uint256)": {
        "details": "Transform affine coordinates into projective coordinates."
      },
      "twice(uint256,uint256)": {
        "details": "Double an elliptic curve point in affine coordinates."
      },
      "twiceProj(uint256,uint256,uint256)": {
        "details": "Double an elliptic curve point in projective coordinates. See https://www.nayuki.io/page/elliptic-curve-point-addition-in-projective-coordinates"
      },
      "validateSignature(bytes32,uint256[2],uint256[2])": {
        "details": "Validate combination of message, signature, and public key."
      },
      "verify(bytes,bytes,bytes)": {
        "details": "Verifies a signature.",
        "params": {
          "data": "The signed data to verify.",
          "key": "The public key to verify with.",
          "signature": "The signature to verify."
        },
        "returns": {
          "_0": "True iff the signature is valid."
        }
      },
      "zeroAffine()": {
        "details": "Return the zero curve in affine coordinates."
      },
      "zeroProj()": {
        "details": "Return the zero curve in projective coordinates."
      }
    },
    "version": 1
  },
  "userdoc": {
    "kind": "user",
    "methods": {},
    "version": 1
  }
}