{
  "contractName": "RSASHA1Algorithm",
  "abi": [
    {
      "inputs": [
        {
          "internalType": "bytes",
          "name": "key",
          "type": "bytes"
        },
        {
          "internalType": "bytes",
          "name": "data",
          "type": "bytes"
        },
        {
          "internalType": "bytes",
          "name": "sig",
          "type": "bytes"
        }
      ],
      "name": "verify",
      "outputs": [
        {
          "internalType": "bool",
          "name": "",
          "type": "bool"
        }
      ],
      "stateMutability": "view",
      "type": "function"
    }
  ],
  "bytecode": "0x608060405234801561001057600080fd5b50610ed2806100206000396000f3fe608060405234801561001057600080fd5b506004361061002b5760003560e01c8063de8f50a114610030575b600080fd5b6101516004803603606081101561004657600080fd5b810190808035906020019064010000000081111561006357600080fd5b82018360208201111561007557600080fd5b8035906020019184600183028401116401000000008311171561009757600080fd5b9091929391929390803590602001906401000000008111156100b857600080fd5b8201836020820111156100ca57600080fd5b803590602001918460018302840111640100000000831117156100ec57600080fd5b90919293919293908035906020019064010000000081111561010d57600080fd5b82018360208201111561011f57600080fd5b8035906020019184600183028401116401000000008311171561014157600080fd5b9091929391929390505050610169565b60405180821515815260200191505060405180910390f35b600060608060006101c860048b8b8080601f016020809104026020016040519081016040528093929190818152602001838380828437600081840152601f19601f820116905080830192505050505050506104cd90919063ffffffff16565b60ff16905060008161ffff16146102ac5761023760058261ffff168c8c8080601f016020809104026020016040519081016040528093929190818152602001838380828437600081840152601f19601f820116905080830192505050505050506104f19092919063ffffffff16565b92506102a56005820161ffff1660058361ffff168d8d905003038c8c8080601f016020809104026020016040519081016040528093929190818152602001838380828437600081840152601f19601f820116905080830192505050505050506104f19092919063ffffffff16565b91506103d5565b61030460058b8b8080601f016020809104026020016040519081016040528093929190818152602001838380828437600081840152601f19601f8201169050808301925050505050505061057b90919063ffffffff16565b905061036460078261ffff168c8c8080601f016020809104026020016040519081016040528093929190818152602001838380828437600081840152601f19601f820116905080830192505050505050506104f19092919063ffffffff16565b92506103d26007820161ffff1660078361ffff168d8d905003038c8c8080601f016020809104026020016040519081016040528093929190818152602001838380828437600081840152601f19601f820116905080830192505050505050506104f19092919063ffffffff16565b91505b6000606061042884868a8a8080601f016020809104026020016040519081016040528093929190818152602001838380828437600081840152601f19601f820116905080830192505050505050506105a1565b80925081935050508180156104bc575061044f6014825103826105bc90919063ffffffff16565b6bffffffffffffffffffffffff19166104ab8b8b8080601f016020809104026020016040519081016040528093929190818152602001838380828437600081840152601f19601f82011690508083019250505050505050610600565b6bffffffffffffffffffffffff1916145b955050505050509695505050505050565b60008282815181106104db57fe5b602001015160f81c60f81b60f81c905092915050565b60608351828401111561050357600080fd5b60608267ffffffffffffffff8111801561051c57600080fd5b506040519080825280601f01601f19166020018201604052801561054f5781602001600182028036833780820191505090505b509050600080602083019150856020880101905061056e828287610b1e565b8293505050509392505050565b6000825160028301111561058e57600080fd5b61ffff8260028501015116905092915050565b600060606105b0838587610b67565b91509150935093915050565b600082516014830111156105cf57600080fd5b7fffffffffffffffffffffffffffffffffffffffff0000000000000000000000008260208501015116905092915050565b60006040518251602084019350604067ffffffffffffffc06001830116016009828203106001811461063157610638565b6040820191505b50776745230100efcdab890098badcfe001032547600c3d2e1f0610690565b6000838310156106895782820151905082840393506020841015610688576001846020036101000a03198082169150505b5b9392505050565b60005b82811015610a9e576106a6848289610657565b85526106b6846020830189610657565b6020860152604081850310600181146106ce576106d7565b60808286038701535b50604083038114600181146106eb576106fb565b6008850260208701511760208701525b5060405b60808110156107875760408103860151603882038701511860208203870151600c830388015118187c010000000100000001000000010000000100000001000000010000000163800000008204167ffffffffefffffffefffffffefffffffefffffffefffffffefffffffefffffffe6002830216179050808288015250600c810190506106ff565b5060805b61014081101561081457608081038601516070820387015118604082038701516018830388015118187c030000000300000003000000030000000300000003000000030000000363400000008204167ffffffffcfffffffcfffffffcfffffffcfffffffcfffffffcfffffffcfffffffc600483021617905080828801525060188101905061078b565b508160008060005b6050811015610a7057601481046000811461084e576001811461089857600281146108d5576003811461093857610971565b6501000000000085046a01000000000000000000008604189350836f01000000000000000000000000000000860416935083650100000000008604189350635a8279999250610971565b6a010000000000000000000085046f01000000000000000000000000000000860418935083650100000000008604189350636ed9eba19250610971565b6a010000000000000000000085046f01000000000000000000000000000000860417935083650100000000008604169350836a010000000000000000000086046f01000000000000000000000000000000870416179350638f1bbcdc9250610971565b6a010000000000000000000085046f0100000000000000000000000000000086041893508365010000000000860418935063ca62c1d692505b50601f770800000000000000000000000000000000000000000000008504168063ffffffe073080000000000000000000000000000000000000087041617905080840190508063ffffffff86160190508083019050807c0100000000000000000000000000000000000000000000000000000000600484028c0151040190507401000000000000000000000000000000000000000081026501000000000086041794506a0100000000000000000000633fffffff6a040000000000000000000087041663c00000006604000000000000880416170277ffffffff00ffffffff000000000000ffffffff00ffffffff86161794505060018101905061081c565b5077ffffffff00ffffffff00ffffffff00ffffffff00ffffffff838601169450505050604081019050610693565b506c0100000000000000000000000063ffffffff821667ffffffff000000006101008404166bffffffff0000000000000000620100008504166fffffffff000000000000000000000000630100000086041673ffffffff000000000000000000000000000000006401000000008704161717171702945050505050919050565b5b60208110610b425781518352602083019250602082019150602081039050610b1f565b60006001826020036101000a0390508019835116818551168181178652505050505050565b60006060600083518551875160600101019050610b82610e82565b610b958282610c8490919063ffffffff16565b50610bad875160001b82610cd890919063ffffffff16565b50610bc5865160001b82610cd890919063ffffffff16565b50610bdd855160001b82610cd890919063ffffffff16565b50610bf18782610cfa90919063ffffffff16565b50610c058682610cfa90919063ffffffff16565b50610c198582610cfa90919063ffffffff16565b50845167ffffffffffffffff81118015610c3257600080fd5b506040519080825280601f01601f191660200182016040528015610c655781602001600182028036833780820191505090505b50925084516020840183602084510160055afa93505050935093915050565b610c8c610e82565b600060208381610c9857fe5b0614610cb15760208281610ca857fe5b06602003820191505b81836020018181525050604051808452600081528281016020016040525082905092915050565b610ce0610e82565b610cf283846000015151846020610d1c565b905092915050565b610d02610e82565b610d1483846000015151848551610d89565b905092915050565b610d24610e82565b84602001518483011115610d4257610d4185600286850102610e42565b5b60006001836101000a0390508260200360080284901c93508551838682010185831982511617815281518588011115610d7b5784870182525b505085915050949350505050565b610d91610e82565b8251821115610d9f57600080fd5b84602001518285011115610dca57610dc9856002610dc38860200151888701610e66565b02610e42565b5b600080865180518760208301019350808887011115610de95787860182525b60208701925050505b60208410610e155780518252602082019150602081019050602084039350610df2565b60006001856020036101000a03905080198251168184511681811785525050879350505050949350505050565b606082600001519050610e558383610c84565b50610e608382610cfa565b50505050565b600081831115610e7857829050610e7c565b8190505b92915050565b60405180604001604052806060815260200160008152509056fea2646970667358221220a272a235199b241dcc5d15d2706e54caba29df5772030551c27f008dbf99b2c464736f6c63430007040033",
  "immutableReferences": {},
  "source": "pragma solidity ^0.7.4;\n\nimport \"./Algorithm.sol\";\nimport \"../BytesUtils.sol\";\nimport \"./RSAVerify.sol\";\nimport \"@ensdomains/solsha1/contracts/SHA1.sol\";\n\n/**\n* @dev Implements the DNSSEC RSASHA1 algorithm.\n*/\ncontract RSASHA1Algorithm is Algorithm {\n    using BytesUtils for *;\n\n    function verify(bytes calldata key, bytes calldata data, bytes calldata sig) external override view returns (bool) {\n        bytes memory exponent;\n        bytes memory modulus;\n\n        uint16 exponentLen = uint16(key.readUint8(4));\n        if (exponentLen != 0) {\n            exponent = key.substring(5, exponentLen);\n            modulus = key.substring(exponentLen + 5, key.length - exponentLen - 5);\n        } else {\n            exponentLen = key.readUint16(5);\n            exponent = key.substring(7, exponentLen);\n            modulus = key.substring(exponentLen + 7, key.length - exponentLen - 7);\n        }\n\n        // Recover the message from the signature\n        bool ok;\n        bytes memory result;\n        (ok, result) = RSAVerify.rsarecover(modulus, exponent, sig);\n\n        // Verify it ends with the hash of our data\n        return ok && SHA1.sha1(data) == result.readBytes20(result.length - 20);\n    }\n}\n",
  "sourcePath": "/home/arachnid/Dropbox/projects/enssec/contracts/algorithms/RSASHA1Algorithm.sol",
  "compiler": {
    "name": "solc",
    "version": "0.7.4+commit.3f05b770.Emscripten.clang"
  },
  "schemaVersion": "3.3.2",
  "updatedAt": "2021-01-20T20:53:41.257Z",
  "devdoc": {
    "details": "Implements the DNSSEC RSASHA1 algorithm.",
    "kind": "dev",
    "methods": {},
    "version": 1
  },
  "userdoc": {
    "kind": "user",
    "methods": {},
    "version": 1
  }
}