{
  "contractName": "SHA1Digest",
  "abi": [
    {
      "inputs": [
        {
          "internalType": "bytes",
          "name": "data",
          "type": "bytes"
        },
        {
          "internalType": "bytes",
          "name": "hash",
          "type": "bytes"
        }
      ],
      "name": "verify",
      "outputs": [
        {
          "internalType": "bool",
          "name": "",
          "type": "bool"
        }
      ],
      "stateMutability": "pure",
      "type": "function"
    }
  ],
  "bytecode": "0x608060405234801561001057600080fd5b50610787806100206000396000f3fe608060405234801561001057600080fd5b506004361061002b5760003560e01c8063f7e83aee14610030575b600080fd5b6100fc6004803603604081101561004657600080fd5b810190808035906020019064010000000081111561006357600080fd5b82018360208201111561007557600080fd5b8035906020019184600183028401116401000000008311171561009757600080fd5b9091929391929390803590602001906401000000008111156100b857600080fd5b8201836020820111156100ca57600080fd5b803590602001918460018302840111640100000000831117156100ec57600080fd5b9091929391929390505050610114565b60405180821515815260200191505060405180910390f35b60008061016f600085858080601f016020809104026020016040519081016040528093929190818152602001838380828437600081840152601f19601f820116905080830192505050505050506101ef90919063ffffffff16565b6bffffffffffffffffffffffff1916905060006101cf87878080601f016020809104026020016040519081016040528093929190818152602001838380828437600081840152601f19601f82011690508083019250505050505050610233565b9050806bffffffffffffffffffffffff1916821492505050949350505050565b6000825160148301111561020257600080fd5b7fffffffffffffffffffffffffffffffffffffffff0000000000000000000000008260208501015116905092915050565b60006040518251602084019350604067ffffffffffffffc0600183011601600982820310600181146102645761026b565b6040820191505b50776745230100efcdab890098badcfe001032547600c3d2e1f06102c3565b6000838310156102bc57828201519050828403935060208410156102bb576001846020036101000a03198082169150505b5b9392505050565b60005b828110156106d1576102d984828961028a565b85526102e984602083018961028a565b6020860152604081850310600181146103015761030a565b60808286038701535b506040830381146001811461031e5761032e565b6008850260208701511760208701525b5060405b60808110156103ba5760408103860151603882038701511860208203870151600c830388015118187c010000000100000001000000010000000100000001000000010000000163800000008204167ffffffffefffffffefffffffefffffffefffffffefffffffefffffffefffffffe6002830216179050808288015250600c81019050610332565b5060805b61014081101561044757608081038601516070820387015118604082038701516018830388015118187c030000000300000003000000030000000300000003000000030000000363400000008204167ffffffffcfffffffcfffffffcfffffffcfffffffcfffffffcfffffffcfffffffc60048302161790508082880152506018810190506103be565b508160008060005b60508110156106a357601481046000811461048157600181146104cb5760028114610508576003811461056b576105a4565b6501000000000085046a01000000000000000000008604189350836f01000000000000000000000000000000860416935083650100000000008604189350635a82799992506105a4565b6a010000000000000000000085046f01000000000000000000000000000000860418935083650100000000008604189350636ed9eba192506105a4565b6a010000000000000000000085046f01000000000000000000000000000000860417935083650100000000008604169350836a010000000000000000000086046f01000000000000000000000000000000870416179350638f1bbcdc92506105a4565b6a010000000000000000000085046f0100000000000000000000000000000086041893508365010000000000860418935063ca62c1d692505b50601f770800000000000000000000000000000000000000000000008504168063ffffffe073080000000000000000000000000000000000000087041617905080840190508063ffffffff86160190508083019050807c0100000000000000000000000000000000000000000000000000000000600484028c0151040190507401000000000000000000000000000000000000000081026501000000000086041794506a0100000000000000000000633fffffff6a040000000000000000000087041663c00000006604000000000000880416170277ffffffff00ffffffff000000000000ffffffff00ffffffff86161794505060018101905061044f565b5077ffffffff00ffffffff00ffffffff00ffffffff00ffffffff8386011694505050506040810190506102c6565b506c0100000000000000000000000063ffffffff821667ffffffff000000006101008404166bffffffff0000000000000000620100008504166fffffffff000000000000000000000000630100000086041673ffffffff00000000000000000000000000000000640100000000870416171717170294505050505091905056fea264697066735822122014eb0bfc67186b5e794eb7a585fe5f3603ce7c5f7ef904ed8512fc090d34c40264736f6c63430007040033",
  "immutableReferences": {},
  "source": "pragma solidity ^0.7.4;\n\nimport \"./Digest.sol\";\nimport \"../BytesUtils.sol\";\nimport \"@ensdomains/solsha1/contracts/SHA1.sol\";\n\n/**\n* @dev Implements the DNSSEC SHA1 digest.\n*/\ncontract SHA1Digest is Digest {\n    using BytesUtils for *;\n\n    function verify(bytes calldata data, bytes calldata hash) external override pure returns (bool) {\n        bytes32 expected = hash.readBytes20(0);\n        bytes20 computed = SHA1.sha1(data);\n        return expected == computed;\n    }\n}\n",
  "sourcePath": "/home/arachnid/Dropbox/projects/enssec/contracts/digests/SHA1Digest.sol",
  "compiler": {
    "name": "solc",
    "version": "0.7.4+commit.3f05b770.Emscripten.clang"
  },
  "schemaVersion": "3.3.2",
  "updatedAt": "2021-01-20T20:53:41.266Z",
  "devdoc": {
    "details": "Implements the DNSSEC SHA1 digest.",
    "kind": "dev",
    "methods": {
      "verify(bytes,bytes)": {
        "details": "Verifies a cryptographic hash.",
        "params": {
          "data": "The data to hash.",
          "hash": "The hash to compare to."
        },
        "returns": {
          "_0": "True iff the hashed data matches the provided hash value."
        }
      }
    },
    "version": 1
  },
  "userdoc": {
    "kind": "user",
    "methods": {},
    "version": 1
  }
}