{
  "contractName": "SHA1NSEC3Digest",
  "abi": [
    {
      "inputs": [
        {
          "internalType": "bytes",
          "name": "salt",
          "type": "bytes"
        },
        {
          "internalType": "bytes",
          "name": "data",
          "type": "bytes"
        },
        {
          "internalType": "uint256",
          "name": "iterations",
          "type": "uint256"
        }
      ],
      "name": "hash",
      "outputs": [
        {
          "internalType": "bytes32",
          "name": "",
          "type": "bytes32"
        }
      ],
      "stateMutability": "pure",
      "type": "function"
    }
  ],
  "bytecode": "0x608060405234801561001057600080fd5b50610aa5806100206000396000f3fe608060405234801561001057600080fd5b506004361061002b5760003560e01c806368f9dab214610030575b600080fd5b6101066004803603606081101561004657600080fd5b810190808035906020019064010000000081111561006357600080fd5b82018360208201111561007557600080fd5b8035906020019184600183028401116401000000008311171561009757600080fd5b9091929391929390803590602001906401000000008111156100b857600080fd5b8201836020820111156100ca57600080fd5b803590602001918460018302840111640100000000831117156100ec57600080fd5b90919293919293908035906020019092919050505061011c565b6040518082815260200191505060405180910390f35b6000610126610a55565b610144601086869050898990500101826102e690919063ffffffff16565b5061019c85858080601f016020809104026020016040519081016040528093929190818152602001838380828437600081840152601f19601f820116905080830192505050505050508261033a90919063ffffffff16565b506101f487878080601f016020809104026020016040519081016040528093929190818152602001838380828437600081840152601f19601f820116905080830192505050505050508261033a90919063ffffffff16565b506000610204826000015161035c565b905060008411156102c9576102188261087a565b50610230600060601b8361089190919063ffffffff16565b5061028888888080601f016020809104026020016040519081016040528093929190818152602001838380828437600081840152601f19601f820116905080830192505050505050508361033a90919063ffffffff16565b5060005b848110156102c7576102aa600083856108c29092919063ffffffff16565b506102b8836000015161035c565b9150808060010191505061028c565b505b806bffffffffffffffffffffffff19169250505095945050505050565b6102ee610a55565b6000602083816102fa57fe5b0614610313576020828161030a57fe5b06602003820191505b81836020018181525050604051808452600081528281016020016040525082905092915050565b610342610a55565b610354838460000151518485516108ef565b905092915050565b60006040518251602084019350604067ffffffffffffffc06001830116016009828203106001811461038d57610394565b6040820191505b50776745230100efcdab890098badcfe001032547600c3d2e1f06103ec565b6000838310156103e557828201519050828403935060208410156103e4576001846020036101000a03198082169150505b5b9392505050565b60005b828110156107fa576104028482896103b3565b85526104128460208301896103b3565b60208601526040818503106001811461042a57610433565b60808286038701535b506040830381146001811461044757610457565b6008850260208701511760208701525b5060405b60808110156104e35760408103860151603882038701511860208203870151600c830388015118187c010000000100000001000000010000000100000001000000010000000163800000008204167ffffffffefffffffefffffffefffffffefffffffefffffffefffffffefffffffe6002830216179050808288015250600c8101905061045b565b5060805b61014081101561057057608081038601516070820387015118604082038701516018830388015118187c030000000300000003000000030000000300000003000000030000000363400000008204167ffffffffcfffffffcfffffffcfffffffcfffffffcfffffffcfffffffcfffffffc60048302161790508082880152506018810190506104e7565b508160008060005b60508110156107cc5760148104600081146105aa57600181146105f457600281146106315760038114610694576106cd565b6501000000000085046a01000000000000000000008604189350836f01000000000000000000000000000000860416935083650100000000008604189350635a82799992506106cd565b6a010000000000000000000085046f01000000000000000000000000000000860418935083650100000000008604189350636ed9eba192506106cd565b6a010000000000000000000085046f01000000000000000000000000000000860417935083650100000000008604169350836a010000000000000000000086046f01000000000000000000000000000000870416179350638f1bbcdc92506106cd565b6a010000000000000000000085046f0100000000000000000000000000000086041893508365010000000000860418935063ca62c1d692505b50601f770800000000000000000000000000000000000000000000008504168063ffffffe073080000000000000000000000000000000000000087041617905080840190508063ffffffff86160190508083019050807c0100000000000000000000000000000000000000000000000000000000600484028c0151040190507401000000000000000000000000000000000000000081026501000000000086041794506a0100000000000000000000633fffffff6a040000000000000000000087041663c00000006604000000000000880416170277ffffffff00ffffffff000000000000ffffffff00ffffffff861617945050600181019050610578565b5077ffffffff00ffffffff00ffffffff00ffffffff00ffffffff8386011694505050506040810190506103ef565b506c0100000000000000000000000063ffffffff821667ffffffff000000006101008404166bffffffff0000000000000000620100008504166fffffffff000000000000000000000000630100000086041673ffffffff000000000000000000000000000000006401000000008704161717171702945050505050919050565b610882610a55565b81516000815250819050919050565b610899610a55565b6108ba83846000015151846bffffffffffffffffffffffff191660146109a8565b905092915050565b6108ca610a55565b6108e68484846bffffffffffffffffffffffff191660146109a8565b90509392505050565b6108f7610a55565b825182111561090557600080fd5b846020015182850111156109305761092f8560026109298860200151888701610a15565b02610a31565b5b60008086518051876020830101935080888701111561094f5787860182525b60208701925050505b6020841061097b5780518252602082019150602081019050602084039350610958565b60006001856020036101000a03905080198251168184511681811785525050879350505050949350505050565b6109b0610a55565b846020015184830111156109ce576109cd85600286850102610a31565b5b60006001836101000a0390508260200360080284901c93508551838682010185831982511617815281518588011115610a075784870182525b505085915050949350505050565b600081831115610a2757829050610a2b565b8190505b92915050565b606082600001519050610a4483836102e6565b50610a4f838261033a565b50505050565b60405180604001604052806060815260200160008152509056fea26469706673582212206eb98b91735548d3a525f4aca39b0433a9514be20a500b7dec0da03a6f5ba14b64736f6c63430007040033",
  "immutableReferences": {},
  "source": "pragma solidity ^0.7.4;\n\nimport \"./NSEC3Digest.sol\";\nimport \"@ensdomains/solsha1/contracts/SHA1.sol\";\nimport \"@ensdomains/buffer/contracts/Buffer.sol\";\n\n/**\n* @dev Implements the DNSSEC iterated SHA1 digest used for NSEC3 records.\n*/\ncontract SHA1NSEC3Digest is NSEC3Digest {\n    using Buffer for Buffer.buffer;\n\n    function hash(bytes calldata salt, bytes calldata data, uint iterations) external override pure returns (bytes32) {\n        Buffer.buffer memory buf;\n        buf.init(salt.length + data.length + 16);\n\n        buf.append(data);\n        buf.append(salt);\n        bytes20 h = SHA1.sha1(buf.buf);\n        if (iterations > 0) {\n            buf.truncate();\n            buf.appendBytes20(bytes20(0));\n            buf.append(salt);\n\n            for (uint i = 0; i < iterations; i++) {\n                buf.writeBytes20(0, h);\n                h = SHA1.sha1(buf.buf);\n            }\n        }\n\n        return bytes32(h);\n    }\n}\n",
  "sourcePath": "/home/arachnid/Dropbox/projects/enssec/contracts/nsec3digests/SHA1NSEC3Digest.sol",
  "compiler": {
    "name": "solc",
    "version": "0.7.4+commit.3f05b770.Emscripten.clang"
  },
  "schemaVersion": "3.3.2",
  "updatedAt": "2021-01-20T20:53:41.269Z",
  "devdoc": {
    "details": "Implements the DNSSEC iterated SHA1 digest used for NSEC3 records.",
    "kind": "dev",
    "methods": {
      "hash(bytes,bytes,uint256)": {
        "details": "Performs an NSEC3 iterated hash.",
        "params": {
          "data": "The data to hash.",
          "iterations": "The number of iterations to perform.",
          "salt": "The salt value to use on each iteration."
        },
        "returns": {
          "_0": "The result of the iterated hash operation."
        }
      }
    },
    "version": 1
  },
  "userdoc": {
    "kind": "user",
    "methods": {},
    "version": 1
  }
}