{
  "contractName": "SHA256Digest",
  "abi": [
    {
      "inputs": [
        {
          "internalType": "bytes",
          "name": "data",
          "type": "bytes"
        },
        {
          "internalType": "bytes",
          "name": "hash",
          "type": "bytes"
        }
      ],
      "name": "verify",
      "outputs": [
        {
          "internalType": "bool",
          "name": "",
          "type": "bool"
        }
      ],
      "stateMutability": "pure",
      "type": "function"
    }
  ],
  "bytecode": "0x608060405234801561001057600080fd5b5061022d806100206000396000f3fe608060405234801561001057600080fd5b506004361061002b5760003560e01c8063f7e83aee14610030575b600080fd5b6100fc6004803603604081101561004657600080fd5b810190808035906020019064010000000081111561006357600080fd5b82018360208201111561007557600080fd5b8035906020019184600183028401116401000000008311171561009757600080fd5b9091929391929390803590602001906401000000008111156100b857600080fd5b8201836020820111156100ca57600080fd5b803590602001918460018302840111640100000000831117156100ec57600080fd5b9091929391929390505050610114565b60405180821515815260200191505060405180910390f35b600061016e600084848080601f016020809104026020016040519081016040528093929190818152602001838380828437600081840152601f19601f820116905080830192505050505050506101d590919063ffffffff16565b60028686604051808383808284378083019250505092505050602060405180830381855afa1580156101a4573d6000803e3d6000fd5b5050506040513d60208110156101b957600080fd5b8101908080519060200190929190505050149050949350505050565b600082516020830111156101e857600080fd5b8160208401015190509291505056fea2646970667358221220cf5d80f68ef989021b70a82afead1443ea2b8c41603a6726cdeb5352105988e064736f6c63430007040033",
  "immutableReferences": {},
  "source": "pragma solidity ^0.7.4;\n\nimport \"./Digest.sol\";\nimport \"../BytesUtils.sol\";\n\n/**\n* @dev Implements the DNSSEC SHA256 digest.\n*/\ncontract SHA256Digest is Digest {\n    using BytesUtils for *;\n\n    function verify(bytes calldata data, bytes calldata hash) external override pure returns (bool) {\n        return sha256(data) == hash.readBytes32(0);\n    }\n}\n",
  "sourcePath": "/home/arachnid/Dropbox/projects/enssec/contracts/digests/SHA256Digest.sol",
  "compiler": {
    "name": "solc",
    "version": "0.7.4+commit.3f05b770.Emscripten.clang"
  },
  "schemaVersion": "3.3.2",
  "updatedAt": "2021-01-20T20:53:41.267Z",
  "devdoc": {
    "details": "Implements the DNSSEC SHA256 digest.",
    "kind": "dev",
    "methods": {
      "verify(bytes,bytes)": {
        "details": "Verifies a cryptographic hash.",
        "params": {
          "data": "The data to hash.",
          "hash": "The hash to compare to."
        },
        "returns": {
          "_0": "True iff the hashed data matches the provided hash value."
        }
      }
    },
    "version": 1
  },
  "userdoc": {
    "kind": "user",
    "methods": {},
    "version": 1
  }
}