{
  "contractName": "BaseRegistrarImplementation",
  "abi": [
    {
      "inputs": [
        {
          "internalType": "contract ENS",
          "name": "_ens",
          "type": "address"
        },
        {
          "internalType": "bytes32",
          "name": "_baseNode",
          "type": "bytes32"
        }
      ],
      "stateMutability": "nonpayable",
      "type": "constructor"
    },
    {
      "anonymous": false,
      "inputs": [
        {
          "indexed": true,
          "internalType": "address",
          "name": "owner",
          "type": "address"
        },
        {
          "indexed": true,
          "internalType": "address",
          "name": "approved",
          "type": "address"
        },
        {
          "indexed": true,
          "internalType": "uint256",
          "name": "tokenId",
          "type": "uint256"
        }
      ],
      "name": "Approval",
      "type": "event"
    },
    {
      "anonymous": false,
      "inputs": [
        {
          "indexed": true,
          "internalType": "address",
          "name": "owner",
          "type": "address"
        },
        {
          "indexed": true,
          "internalType": "address",
          "name": "operator",
          "type": "address"
        },
        {
          "indexed": false,
          "internalType": "bool",
          "name": "approved",
          "type": "bool"
        }
      ],
      "name": "ApprovalForAll",
      "type": "event"
    },
    {
      "anonymous": false,
      "inputs": [
        {
          "indexed": true,
          "internalType": "address",
          "name": "controller",
          "type": "address"
        }
      ],
      "name": "ControllerAdded",
      "type": "event"
    },
    {
      "anonymous": false,
      "inputs": [
        {
          "indexed": true,
          "internalType": "address",
          "name": "controller",
          "type": "address"
        }
      ],
      "name": "ControllerRemoved",
      "type": "event"
    },
    {
      "anonymous": false,
      "inputs": [
        {
          "indexed": true,
          "internalType": "uint256",
          "name": "id",
          "type": "uint256"
        },
        {
          "indexed": true,
          "internalType": "address",
          "name": "owner",
          "type": "address"
        },
        {
          "indexed": false,
          "internalType": "uint256",
          "name": "expires",
          "type": "uint256"
        }
      ],
      "name": "NameMigrated",
      "type": "event"
    },
    {
      "anonymous": false,
      "inputs": [
        {
          "indexed": true,
          "internalType": "uint256",
          "name": "id",
          "type": "uint256"
        },
        {
          "indexed": true,
          "internalType": "address",
          "name": "owner",
          "type": "address"
        },
        {
          "indexed": false,
          "internalType": "uint256",
          "name": "expires",
          "type": "uint256"
        }
      ],
      "name": "NameRegistered",
      "type": "event"
    },
    {
      "anonymous": false,
      "inputs": [
        {
          "indexed": true,
          "internalType": "uint256",
          "name": "id",
          "type": "uint256"
        },
        {
          "indexed": false,
          "internalType": "uint256",
          "name": "expires",
          "type": "uint256"
        }
      ],
      "name": "NameRenewed",
      "type": "event"
    },
    {
      "anonymous": false,
      "inputs": [
        {
          "indexed": true,
          "internalType": "address",
          "name": "previousOwner",
          "type": "address"
        },
        {
          "indexed": true,
          "internalType": "address",
          "name": "newOwner",
          "type": "address"
        }
      ],
      "name": "OwnershipTransferred",
      "type": "event"
    },
    {
      "anonymous": false,
      "inputs": [
        {
          "indexed": true,
          "internalType": "address",
          "name": "from",
          "type": "address"
        },
        {
          "indexed": true,
          "internalType": "address",
          "name": "to",
          "type": "address"
        },
        {
          "indexed": true,
          "internalType": "uint256",
          "name": "tokenId",
          "type": "uint256"
        }
      ],
      "name": "Transfer",
      "type": "event"
    },
    {
      "inputs": [],
      "name": "GRACE_PERIOD",
      "outputs": [
        {
          "internalType": "uint256",
          "name": "",
          "type": "uint256"
        }
      ],
      "stateMutability": "view",
      "type": "function",
      "constant": true
    },
    {
      "inputs": [
        {
          "internalType": "address",
          "name": "to",
          "type": "address"
        },
        {
          "internalType": "uint256",
          "name": "tokenId",
          "type": "uint256"
        }
      ],
      "name": "approve",
      "outputs": [],
      "stateMutability": "nonpayable",
      "type": "function"
    },
    {
      "inputs": [
        {
          "internalType": "address",
          "name": "owner",
          "type": "address"
        }
      ],
      "name": "balanceOf",
      "outputs": [
        {
          "internalType": "uint256",
          "name": "",
          "type": "uint256"
        }
      ],
      "stateMutability": "view",
      "type": "function",
      "constant": true
    },
    {
      "inputs": [],
      "name": "baseNode",
      "outputs": [
        {
          "internalType": "bytes32",
          "name": "",
          "type": "bytes32"
        }
      ],
      "stateMutability": "view",
      "type": "function",
      "constant": true
    },
    {
      "inputs": [
        {
          "internalType": "address",
          "name": "",
          "type": "address"
        }
      ],
      "name": "controllers",
      "outputs": [
        {
          "internalType": "bool",
          "name": "",
          "type": "bool"
        }
      ],
      "stateMutability": "view",
      "type": "function",
      "constant": true
    },
    {
      "inputs": [],
      "name": "ens",
      "outputs": [
        {
          "internalType": "contract ENS",
          "name": "",
          "type": "address"
        }
      ],
      "stateMutability": "view",
      "type": "function",
      "constant": true
    },
    {
      "inputs": [
        {
          "internalType": "uint256",
          "name": "tokenId",
          "type": "uint256"
        }
      ],
      "name": "getApproved",
      "outputs": [
        {
          "internalType": "address",
          "name": "",
          "type": "address"
        }
      ],
      "stateMutability": "view",
      "type": "function",
      "constant": true
    },
    {
      "inputs": [
        {
          "internalType": "address",
          "name": "owner",
          "type": "address"
        },
        {
          "internalType": "address",
          "name": "operator",
          "type": "address"
        }
      ],
      "name": "isApprovedForAll",
      "outputs": [
        {
          "internalType": "bool",
          "name": "",
          "type": "bool"
        }
      ],
      "stateMutability": "view",
      "type": "function",
      "constant": true
    },
    {
      "inputs": [],
      "name": "name",
      "outputs": [
        {
          "internalType": "string",
          "name": "",
          "type": "string"
        }
      ],
      "stateMutability": "view",
      "type": "function",
      "constant": true
    },
    {
      "inputs": [],
      "name": "owner",
      "outputs": [
        {
          "internalType": "address",
          "name": "",
          "type": "address"
        }
      ],
      "stateMutability": "view",
      "type": "function",
      "constant": true
    },
    {
      "inputs": [],
      "name": "renounceOwnership",
      "outputs": [],
      "stateMutability": "nonpayable",
      "type": "function"
    },
    {
      "inputs": [
        {
          "internalType": "address",
          "name": "from",
          "type": "address"
        },
        {
          "internalType": "address",
          "name": "to",
          "type": "address"
        },
        {
          "internalType": "uint256",
          "name": "tokenId",
          "type": "uint256"
        }
      ],
      "name": "safeTransferFrom",
      "outputs": [],
      "stateMutability": "nonpayable",
      "type": "function"
    },
    {
      "inputs": [
        {
          "internalType": "address",
          "name": "from",
          "type": "address"
        },
        {
          "internalType": "address",
          "name": "to",
          "type": "address"
        },
        {
          "internalType": "uint256",
          "name": "tokenId",
          "type": "uint256"
        },
        {
          "internalType": "bytes",
          "name": "_data",
          "type": "bytes"
        }
      ],
      "name": "safeTransferFrom",
      "outputs": [],
      "stateMutability": "nonpayable",
      "type": "function"
    },
    {
      "inputs": [
        {
          "internalType": "address",
          "name": "operator",
          "type": "address"
        },
        {
          "internalType": "bool",
          "name": "approved",
          "type": "bool"
        }
      ],
      "name": "setApprovalForAll",
      "outputs": [],
      "stateMutability": "nonpayable",
      "type": "function"
    },
    {
      "inputs": [],
      "name": "symbol",
      "outputs": [
        {
          "internalType": "string",
          "name": "",
          "type": "string"
        }
      ],
      "stateMutability": "view",
      "type": "function",
      "constant": true
    },
    {
      "inputs": [
        {
          "internalType": "uint256",
          "name": "tokenId",
          "type": "uint256"
        }
      ],
      "name": "tokenURI",
      "outputs": [
        {
          "internalType": "string",
          "name": "",
          "type": "string"
        }
      ],
      "stateMutability": "view",
      "type": "function",
      "constant": true
    },
    {
      "inputs": [
        {
          "internalType": "address",
          "name": "from",
          "type": "address"
        },
        {
          "internalType": "address",
          "name": "to",
          "type": "address"
        },
        {
          "internalType": "uint256",
          "name": "tokenId",
          "type": "uint256"
        }
      ],
      "name": "transferFrom",
      "outputs": [],
      "stateMutability": "nonpayable",
      "type": "function"
    },
    {
      "inputs": [
        {
          "internalType": "address",
          "name": "newOwner",
          "type": "address"
        }
      ],
      "name": "transferOwnership",
      "outputs": [],
      "stateMutability": "nonpayable",
      "type": "function"
    },
    {
      "inputs": [
        {
          "internalType": "uint256",
          "name": "tokenId",
          "type": "uint256"
        }
      ],
      "name": "ownerOf",
      "outputs": [
        {
          "internalType": "address",
          "name": "",
          "type": "address"
        }
      ],
      "stateMutability": "view",
      "type": "function",
      "constant": true
    },
    {
      "inputs": [
        {
          "internalType": "address",
          "name": "controller",
          "type": "address"
        }
      ],
      "name": "addController",
      "outputs": [],
      "stateMutability": "nonpayable",
      "type": "function"
    },
    {
      "inputs": [
        {
          "internalType": "address",
          "name": "controller",
          "type": "address"
        }
      ],
      "name": "removeController",
      "outputs": [],
      "stateMutability": "nonpayable",
      "type": "function"
    },
    {
      "inputs": [
        {
          "internalType": "address",
          "name": "resolver",
          "type": "address"
        }
      ],
      "name": "setResolver",
      "outputs": [],
      "stateMutability": "nonpayable",
      "type": "function"
    },
    {
      "inputs": [
        {
          "internalType": "uint256",
          "name": "id",
          "type": "uint256"
        }
      ],
      "name": "nameExpires",
      "outputs": [
        {
          "internalType": "uint256",
          "name": "",
          "type": "uint256"
        }
      ],
      "stateMutability": "view",
      "type": "function",
      "constant": true
    },
    {
      "inputs": [
        {
          "internalType": "uint256",
          "name": "id",
          "type": "uint256"
        }
      ],
      "name": "available",
      "outputs": [
        {
          "internalType": "bool",
          "name": "",
          "type": "bool"
        }
      ],
      "stateMutability": "view",
      "type": "function",
      "constant": true
    },
    {
      "inputs": [
        {
          "internalType": "uint256",
          "name": "id",
          "type": "uint256"
        },
        {
          "internalType": "address",
          "name": "owner",
          "type": "address"
        },
        {
          "internalType": "uint256",
          "name": "duration",
          "type": "uint256"
        }
      ],
      "name": "register",
      "outputs": [
        {
          "internalType": "uint256",
          "name": "",
          "type": "uint256"
        }
      ],
      "stateMutability": "nonpayable",
      "type": "function"
    },
    {
      "inputs": [
        {
          "internalType": "uint256",
          "name": "id",
          "type": "uint256"
        },
        {
          "internalType": "address",
          "name": "owner",
          "type": "address"
        },
        {
          "internalType": "uint256",
          "name": "duration",
          "type": "uint256"
        }
      ],
      "name": "registerOnly",
      "outputs": [
        {
          "internalType": "uint256",
          "name": "",
          "type": "uint256"
        }
      ],
      "stateMutability": "nonpayable",
      "type": "function"
    },
    {
      "inputs": [
        {
          "internalType": "uint256",
          "name": "id",
          "type": "uint256"
        },
        {
          "internalType": "uint256",
          "name": "duration",
          "type": "uint256"
        }
      ],
      "name": "renew",
      "outputs": [
        {
          "internalType": "uint256",
          "name": "",
          "type": "uint256"
        }
      ],
      "stateMutability": "nonpayable",
      "type": "function"
    },
    {
      "inputs": [
        {
          "internalType": "uint256",
          "name": "id",
          "type": "uint256"
        },
        {
          "internalType": "address",
          "name": "owner",
          "type": "address"
        }
      ],
      "name": "reclaim",
      "outputs": [],
      "stateMutability": "nonpayable",
      "type": "function"
    },
    {
      "inputs": [
        {
          "internalType": "bytes4",
          "name": "interfaceID",
          "type": "bytes4"
        }
      ],
      "name": "supportsInterface",
      "outputs": [
        {
          "internalType": "bool",
          "name": "",
          "type": "bool"
        }
      ],
      "stateMutability": "view",
      "type": "function",
      "constant": true
    }
  ],
  "bytecode": "0x60806040523480156200001157600080fd5b5060405162003fc938038062003fc9833981810160405281019062000037919062000271565b60405180602001604052806000815250604051806020016040528060008152506000620000696200018b60201b60201c565b9050806000806101000a81548173ffffffffffffffffffffffffffffffffffffffff021916908373ffffffffffffffffffffffffffffffffffffffff1602179055508073ffffffffffffffffffffffffffffffffffffffff16600073ffffffffffffffffffffffffffffffffffffffff167f8be0079c531659141344cd1fd0a4f28419497f9722a3daafe3b4186f6b6457e060405160405180910390a35081600190805190602001906200011f92919062000193565b5080600290805190602001906200013892919062000193565b50505081600760006101000a81548173ffffffffffffffffffffffffffffffffffffffff021916908373ffffffffffffffffffffffffffffffffffffffff1602179055508060088190555050506200039d565b600033905090565b828054620001a19062000304565b90600052602060002090601f016020900481019282620001c5576000855562000211565b82601f10620001e057805160ff191683800117855562000211565b8280016001018555821562000211579182015b8281111562000210578251825591602001919060010190620001f3565b5b50905062000220919062000224565b5090565b5b808211156200023f57600081600090555060010162000225565b5090565b600081519050620002548162000369565b92915050565b6000815190506200026b8162000383565b92915050565b600080604083850312156200028557600080fd5b600062000295858286016200025a565b9250506020620002a88582860162000243565b9150509250929050565b6000620002bf82620002e4565b9050919050565b6000819050919050565b6000620002dd82620002b2565b9050919050565b600073ffffffffffffffffffffffffffffffffffffffff82169050919050565b600060028204905060018216806200031d57607f821691505b602082108114156200033457620003336200033a565b5b50919050565b7f4e487b7100000000000000000000000000000000000000000000000000000000600052602260045260246000fd5b6200037481620002c6565b81146200038057600080fd5b50565b6200038e81620002d0565b81146200039a57600080fd5b50565b613c1c80620003ad6000396000f3fe608060405234801561001057600080fd5b50600436106101cf5760003560e01c806395d89b4111610104578063c87b56dd116100a2578063e985e9c511610071578063e985e9c514610552578063f2fde38b14610582578063f6a74ed71461059e578063fca247ac146105ba576101cf565b8063c87b56dd146104a4578063d6e4fa86146104d4578063da8c229e14610504578063ddf7fcb014610534576101cf565b8063a7fc7a07116100de578063a7fc7a071461041e578063b88d4fde1461043a578063c1a287e214610456578063c475abff14610474576101cf565b806395d89b41146103b457806396e494e8146103d2578063a22cb46514610402576101cf565b80633f15457f116101715780636352211e1161014b5780636352211e1461032c57806370a082311461035c578063715018a61461038c5780638da5cb5b14610396576101cf565b80633f15457f146102d657806342842e0e146102f45780634e543b2614610310576101cf565b8063095ea7b3116101ad578063095ea7b3146102525780630e297b451461026e57806323b872dd1461029e57806328ed4f6c146102ba576101cf565b806301ffc9a7146101d457806306fdde0314610204578063081812fc14610222575b600080fd5b6101ee60048036038101906101e99190612bf2565b6105ea565b6040516101fb91906130ba565b60405180910390f35b61020c610834565b604051610219919061316b565b60405180910390f35b61023c60048036038101906102379190612c44565b6108c6565b6040516102499190613053565b60405180910390f35b61026c60048036038101906102679190612b8d565b61094b565b005b61028860048036038101906102839190612ca9565b610a63565b604051610295919061336d565b60405180910390f35b6102b860048036038101906102b39190612a87565b610a7b565b005b6102d460048036038101906102cf9190612c6d565b610adb565b005b6102de610c8d565b6040516102eb9190613150565b60405180910390f35b61030e60048036038101906103099190612a87565b610cb3565b005b61032a600480360381019061032591906129f9565b610cd3565b005b61034660048036038101906103419190612c44565b610de3565b6040516103539190613053565b60405180910390f35b610376600480360381019061037191906129f9565b610e14565b604051610383919061336d565b60405180910390f35b610394610ecc565b005b61039e611006565b6040516103ab9190613053565b60405180910390f35b6103bc61102f565b6040516103c9919061316b565b60405180910390f35b6103ec60048036038101906103e79190612c44565b6110c1565b6040516103f991906130ba565b60405180910390f35b61041c60048036038101906104179190612b51565b6110ee565b005b610438600480360381019061043391906129f9565b61126f565b005b610454600480360381019061044f9190612ad6565b611389565b005b61045e6113eb565b60405161046b919061336d565b60405180910390f35b61048e60048036038101906104899190612cf8565b6113f2565b60405161049b919061336d565b60405180910390f35b6104be60048036038101906104b99190612c44565b611633565b6040516104cb919061316b565b60405180910390f35b6104ee60048036038101906104e99190612c44565b6116da565b6040516104fb919061336d565b60405180910390f35b61051e600480360381019061051991906129f9565b6116f7565b60405161052b91906130ba565b60405180910390f35b61053c611717565b60405161054991906130d5565b60405180910390f35b61056c60048036038101906105679190612a4b565b61171d565b60405161057991906130ba565b60405180910390f35b61059c600480360381019061059791906129f9565b6117b1565b005b6105b860048036038101906105b391906129f9565b61195a565b005b6105d460048036038101906105cf9190612ca9565b611a74565b6040516105e1919061336d565b60405180910390f35b60007f01ffc9a7a5cef8baa21ed3c5c0d7e23accb804b619e9333b597f47a0d84076e27bffffffffffffffffffffffffffffffffffffffffffffffffffffffff1916827bffffffffffffffffffffffffffffffffffffffffffffffffffffffff191614806107c557507fb88d4fde60196325a28bb7f99a2582e0b46de55b18761e960c14ad7a320994657f42842e0eb38857a7775b4e7364b2775df7325074d088e7fb39590cd6281184ed7f23b872dd7302113369cda2901243429419bec145408fa8b352b3dd92b66c680b7fe985e9c5c6636c6879256001057b28ccac7718ef0ac56553ff9b926452cab8a37fa22cb4651ab9570f89bb516380c40ce76762284fb1f21337ceaf6adab99e7d4a7f081812fc55e34fdc7cf5d8b5cf4e3621fa6423fde952ec6ab24afdc0d85c0b2e7f095ea7b334ae44009aa867bfb386f5c3b4b443ac6f0ee573fa91c4608fbadfba7f6352211e6566aa027e75ac9dbf2423197fbd9b82b9d981a3ab367d355866aa1c7f70a08231b98ef4ca268c9cc3f6b4590e4bfec28280db06bb5d45e689f2a360be18181818181818187bffffffffffffffffffffffffffffffffffffffffffffffffffffffff1916827bffffffffffffffffffffffffffffffffffffffffffffffffffffffff1916145b8061082d57507f28ed4f6c74b219a5819055dfbcd2f1837c046c364cf01fabb6799e4f440d6f137bffffffffffffffffffffffffffffffffffffffffffffffffffffffff1916827bffffffffffffffffffffffffffffffffffffffffffffffffffffffff1916145b9050919050565b606060018054610843906135c0565b80601f016020809104026020016040519081016040528092919081815260200182805461086f906135c0565b80156108bc5780601f10610891576101008083540402835291602001916108bc565b820191906000526020600020905b81548152906001019060200180831161089f57829003601f168201915b5050505050905090565b60006108d182611a8c565b610910576040517f08c379a0000000000000000000000000000000000000000000000000000000008152600401610907906132ad565b60405180910390fd5b6005600083815260200190815260200160002060009054906101000a900473ffffffffffffffffffffffffffffffffffffffff169050919050565b600061095682611af8565b90508073ffffffffffffffffffffffffffffffffffffffff168373ffffffffffffffffffffffffffffffffffffffff1614156109c7576040517f08c379a00000000000000000000000000000000000000000000000000000000081526004016109be9061332d565b60405180910390fd5b8073ffffffffffffffffffffffffffffffffffffffff166109e6611baa565b73ffffffffffffffffffffffffffffffffffffffff161480610a155750610a1481610a0f611baa565b61171d565b5b610a54576040517f08c379a0000000000000000000000000000000000000000000000000000000008152600401610a4b9061322d565b60405180910390fd5b610a5e8383611bb2565b505050565b6000610a728484846000611c6b565b90509392505050565b610a8c610a86611baa565b82611f5f565b610acb576040517f08c379a0000000000000000000000000000000000000000000000000000000008152600401610ac29061334d565b60405180910390fd5b610ad6838383611ff4565b505050565b3073ffffffffffffffffffffffffffffffffffffffff16600760009054906101000a900473ffffffffffffffffffffffffffffffffffffffff1673ffffffffffffffffffffffffffffffffffffffff166302571be36008546040518263ffffffff1660e01b8152600401610b4f91906130d5565b60206040518083038186803b158015610b6757600080fd5b505afa158015610b7b573d6000803e3d6000fd5b505050506040513d601f19601f82011682018060405250810190610b9f9190612a22565b73ffffffffffffffffffffffffffffffffffffffff1614610bbf57600080fd5b610bc93383611f5f565b610bd257600080fd5b600760009054906101000a900473ffffffffffffffffffffffffffffffffffffffff1673ffffffffffffffffffffffffffffffffffffffff166306ab59236008548460001b846040518463ffffffff1660e01b8152600401610c3693929190613119565b602060405180830381600087803b158015610c5057600080fd5b505af1158015610c64573d6000803e3d6000fd5b505050506040513d601f19601f82011682018060405250810190610c889190612bc9565b505050565b600760009054906101000a900473ffffffffffffffffffffffffffffffffffffffff1681565b610cce83838360405180602001604052806000815250611389565b505050565b610cdb611baa565b73ffffffffffffffffffffffffffffffffffffffff16610cf9611006565b73ffffffffffffffffffffffffffffffffffffffff1614610d4f576040517f08c379a0000000000000000000000000000000000000000000000000000000008152600401610d46906132cd565b60405180910390fd5b600760009054906101000a900473ffffffffffffffffffffffffffffffffffffffff1673ffffffffffffffffffffffffffffffffffffffff16631896f70a600854836040518363ffffffff1660e01b8152600401610dae9291906130f0565b600060405180830381600087803b158015610dc857600080fd5b505af1158015610ddc573d6000803e3d6000fd5b5050505050565b600042600a60008481526020019081526020016000205411610e0457600080fd5b610e0d82611af8565b9050919050565b60008073ffffffffffffffffffffffffffffffffffffffff168273ffffffffffffffffffffffffffffffffffffffff161415610e85576040517f08c379a0000000000000000000000000000000000000000000000000000000008152600401610e7c9061324d565b60405180910390fd5b600460008373ffffffffffffffffffffffffffffffffffffffff1673ffffffffffffffffffffffffffffffffffffffff168152602001908152602001600020549050919050565b610ed4611baa565b73ffffffffffffffffffffffffffffffffffffffff16610ef2611006565b73ffffffffffffffffffffffffffffffffffffffff1614610f48576040517f08c379a0000000000000000000000000000000000000000000000000000000008152600401610f3f906132cd565b60405180910390fd5b600073ffffffffffffffffffffffffffffffffffffffff1660008054906101000a900473ffffffffffffffffffffffffffffffffffffffff1673ffffffffffffffffffffffffffffffffffffffff167f8be0079c531659141344cd1fd0a4f28419497f9722a3daafe3b4186f6b6457e060405160405180910390a360008060006101000a81548173ffffffffffffffffffffffffffffffffffffffff021916908373ffffffffffffffffffffffffffffffffffffffff160217905550565b60008060009054906101000a900473ffffffffffffffffffffffffffffffffffffffff16905090565b60606002805461103e906135c0565b80601f016020809104026020016040519081016040528092919081815260200182805461106a906135c0565b80156110b75780601f1061108c576101008083540402835291602001916110b7565b820191906000526020600020905b81548152906001019060200180831161109a57829003601f168201915b5050505050905090565b6000426276a700600a6000858152602001908152602001600020546110e69190613421565b109050919050565b6110f6611baa565b73ffffffffffffffffffffffffffffffffffffffff168273ffffffffffffffffffffffffffffffffffffffff161415611164576040517f08c379a000000000000000000000000000000000000000000000000000000000815260040161115b9061320d565b60405180910390fd5b8060066000611171611baa565b73ffffffffffffffffffffffffffffffffffffffff1673ffffffffffffffffffffffffffffffffffffffff16815260200190815260200160002060008473ffffffffffffffffffffffffffffffffffffffff1673ffffffffffffffffffffffffffffffffffffffff16815260200190815260200160002060006101000a81548160ff0219169083151502179055508173ffffffffffffffffffffffffffffffffffffffff1661121e611baa565b73ffffffffffffffffffffffffffffffffffffffff167f17307eab39ab6107e8899845ad3d59bd9653f200f220920489ca2b5937696c318360405161126391906130ba565b60405180910390a35050565b611277611baa565b73ffffffffffffffffffffffffffffffffffffffff16611295611006565b73ffffffffffffffffffffffffffffffffffffffff16146112eb576040517f08c379a00000000000000000000000000000000000000000000000000000000081526004016112e2906132cd565b60405180910390fd5b6001600960008373ffffffffffffffffffffffffffffffffffffffff1673ffffffffffffffffffffffffffffffffffffffff16815260200190815260200160002060006101000a81548160ff0219169083151502179055508073ffffffffffffffffffffffffffffffffffffffff167f0a8bb31534c0ed46f380cb867bd5c803a189ced9a764e30b3a4991a9901d747460405160405180910390a250565b61139a611394611baa565b83611f5f565b6113d9576040517f08c379a00000000000000000000000000000000000000000000000000000000081526004016113d09061334d565b60405180910390fd5b6113e584848484612250565b50505050565b6276a70081565b60003073ffffffffffffffffffffffffffffffffffffffff16600760009054906101000a900473ffffffffffffffffffffffffffffffffffffffff1673ffffffffffffffffffffffffffffffffffffffff166302571be36008546040518263ffffffff1660e01b815260040161146891906130d5565b60206040518083038186803b15801561148057600080fd5b505afa158015611494573d6000803e3d6000fd5b505050506040513d601f19601f820116820180604052508101906114b89190612a22565b73ffffffffffffffffffffffffffffffffffffffff16146114d857600080fd5b600960003373ffffffffffffffffffffffffffffffffffffffff1673ffffffffffffffffffffffffffffffffffffffff16815260200190815260200160002060009054906101000a900460ff1661152e57600080fd5b426276a700600a6000868152602001908152602001600020546115519190613421565b101561155c57600080fd5b6276a7008261156b9190613421565b6276a70083600a60008781526020019081526020016000205461158e9190613421565b6115989190613421565b116115a257600080fd5b81600a600085815260200190815260200160002060008282546115c59190613421565b92505081905550827f9b87a00e30f1ac65d898f070f8a3488fe60517182d0a2098e1b4b93a54aa9bd6600a60008681526020019081526020016000205460405161160f919061336d565b60405180910390a2600a600084815260200190815260200160002054905092915050565b606061163e82611a8c565b61167d576040517f08c379a00000000000000000000000000000000000000000000000000000000081526004016116749061330d565b60405180910390fd5b60006116876122ac565b905060008151116116a757604051806020016040528060008152506116d2565b806116b1846122c3565b6040516020016116c292919061302f565b6040516020818303038152906040525b915050919050565b6000600a6000838152602001908152602001600020549050919050565b60096020528060005260406000206000915054906101000a900460ff1681565b60085481565b6000600660008473ffffffffffffffffffffffffffffffffffffffff1673ffffffffffffffffffffffffffffffffffffffff16815260200190815260200160002060008373ffffffffffffffffffffffffffffffffffffffff1673ffffffffffffffffffffffffffffffffffffffff16815260200190815260200160002060009054906101000a900460ff16905092915050565b6117b9611baa565b73ffffffffffffffffffffffffffffffffffffffff166117d7611006565b73ffffffffffffffffffffffffffffffffffffffff161461182d576040517f08c379a0000000000000000000000000000000000000000000000000000000008152600401611824906132cd565b60405180910390fd5b600073ffffffffffffffffffffffffffffffffffffffff168173ffffffffffffffffffffffffffffffffffffffff16141561189d576040517f08c379a0000000000000000000000000000000000000000000000000000000008152600401611894906131ad565b60405180910390fd5b8073ffffffffffffffffffffffffffffffffffffffff1660008054906101000a900473ffffffffffffffffffffffffffffffffffffffff1673ffffffffffffffffffffffffffffffffffffffff167f8be0079c531659141344cd1fd0a4f28419497f9722a3daafe3b4186f6b6457e060405160405180910390a3806000806101000a81548173ffffffffffffffffffffffffffffffffffffffff021916908373ffffffffffffffffffffffffffffffffffffffff16021790555050565b611962611baa565b73ffffffffffffffffffffffffffffffffffffffff16611980611006565b73ffffffffffffffffffffffffffffffffffffffff16146119d6576040517f08c379a00000000000000000000000000000000000000000000000000000000081526004016119cd906132cd565b60405180910390fd5b6000600960008373ffffffffffffffffffffffffffffffffffffffff1673ffffffffffffffffffffffffffffffffffffffff16815260200190815260200160002060006101000a81548160ff0219169083151502179055508073ffffffffffffffffffffffffffffffffffffffff167f33d83959be2573f5453b12eb9d43b3499bc57d96bd2f067ba44803c859e8111360405160405180910390a250565b6000611a838484846001611c6b565b90509392505050565b60008073ffffffffffffffffffffffffffffffffffffffff166003600084815260200190815260200160002060009054906101000a900473ffffffffffffffffffffffffffffffffffffffff1673ffffffffffffffffffffffffffffffffffffffff1614159050919050565b6000806003600084815260200190815260200160002060009054906101000a900473ffffffffffffffffffffffffffffffffffffffff169050600073ffffffffffffffffffffffffffffffffffffffff168173ffffffffffffffffffffffffffffffffffffffff161415611ba1576040517f08c379a0000000000000000000000000000000000000000000000000000000008152600401611b989061326d565b60405180910390fd5b80915050919050565b600033905090565b816005600083815260200190815260200160002060006101000a81548173ffffffffffffffffffffffffffffffffffffffff021916908373ffffffffffffffffffffffffffffffffffffffff160217905550808273ffffffffffffffffffffffffffffffffffffffff16611c2583611af8565b73ffffffffffffffffffffffffffffffffffffffff167f8c5be1e5ebec7d5bd14f71427d1e84f3dd0314c0f7b2291e5b200ac8c7c3b92560405160405180910390a45050565b60003073ffffffffffffffffffffffffffffffffffffffff16600760009054906101000a900473ffffffffffffffffffffffffffffffffffffffff1673ffffffffffffffffffffffffffffffffffffffff166302571be36008546040518263ffffffff1660e01b8152600401611ce191906130d5565b60206040518083038186803b158015611cf957600080fd5b505afa158015611d0d573d6000803e3d6000fd5b505050506040513d601f19601f82011682018060405250810190611d319190612a22565b73ffffffffffffffffffffffffffffffffffffffff1614611d5157600080fd5b600960003373ffffffffffffffffffffffffffffffffffffffff1673ffffffffffffffffffffffffffffffffffffffff16815260200190815260200160002060009054906101000a900460ff16611da757600080fd5b611db0856110c1565b611db957600080fd5b6276a70042611dc89190613421565b6276a7008442611dd89190613421565b611de29190613421565b11611dec57600080fd5b8242611df89190613421565b600a600087815260200190815260200160002081905550611e1885611a8c565b15611e2757611e2685612470565b5b611e318486612581565b8115611eef57600760009054906101000a900473ffffffffffffffffffffffffffffffffffffffff1673ffffffffffffffffffffffffffffffffffffffff166306ab59236008548760001b876040518463ffffffff1660e01b8152600401611e9b93929190613119565b602060405180830381600087803b158015611eb557600080fd5b505af1158015611ec9573d6000803e3d6000fd5b505050506040513d601f19601f82011682018060405250810190611eed9190612bc9565b505b8373ffffffffffffffffffffffffffffffffffffffff16857fb3d987963d01b2f68493b4bdb130988f157ea43070d4ad840fee0466ed9370d98542611f349190613421565b604051611f41919061336d565b60405180910390a38242611f559190613421565b9050949350505050565b600080611f6b83610de3565b90508073ffffffffffffffffffffffffffffffffffffffff168473ffffffffffffffffffffffffffffffffffffffff161480611fda57508373ffffffffffffffffffffffffffffffffffffffff16611fc2846108c6565b73ffffffffffffffffffffffffffffffffffffffff16145b80611feb5750611fea818561171d565b5b91505092915050565b8273ffffffffffffffffffffffffffffffffffffffff1661201482611af8565b73ffffffffffffffffffffffffffffffffffffffff161461206a576040517f08c379a0000000000000000000000000000000000000000000000000000000008152600401612061906132ed565b60405180910390fd5b600073ffffffffffffffffffffffffffffffffffffffff168273ffffffffffffffffffffffffffffffffffffffff1614156120da576040517f08c379a00000000000000000000000000000000000000000000000000000000081526004016120d1906131ed565b60405180910390fd5b6120e583838361274f565b6120f0600082611bb2565b6001600460008573ffffffffffffffffffffffffffffffffffffffff1673ffffffffffffffffffffffffffffffffffffffff168152602001908152602001600020600082825461214091906134a8565b925050819055506001600460008473ffffffffffffffffffffffffffffffffffffffff1673ffffffffffffffffffffffffffffffffffffffff16815260200190815260200160002060008282546121979190613421565b92505081905550816003600083815260200190815260200160002060006101000a81548173ffffffffffffffffffffffffffffffffffffffff021916908373ffffffffffffffffffffffffffffffffffffffff160217905550808273ffffffffffffffffffffffffffffffffffffffff168473ffffffffffffffffffffffffffffffffffffffff167fddf252ad1be2c89b69c2b068fc378daa952ba7f163c4a11628f55a4df523b3ef60405160405180910390a4505050565b61225b848484611ff4565b61226784848484612754565b6122a6576040517f08c379a000000000000000000000000000000000000000000000000000000000815260040161229d9061318d565b60405180910390fd5b50505050565b606060405180602001604052806000815250905090565b6060600082141561230b576040518060400160405280600181526020017f3000000000000000000000000000000000000000000000000000000000000000815250905061246b565b600082905060005b6000821461233d57808061232690613623565b915050600a826123369190613477565b9150612313565b60008167ffffffffffffffff81111561237f577f4e487b7100000000000000000000000000000000000000000000000000000000600052604160045260246000fd5b6040519080825280601f01601f1916602001820160405280156123b15781602001600182028036833780820191505090505b5090505b60008514612464576001826123ca91906134a8565b9150600a856123d9919061366c565b60306123e59190613421565b60f81b818381518110612421577f4e487b7100000000000000000000000000000000000000000000000000000000600052603260045260246000fd5b60200101907effffffffffffffffffffffffffffffffffffffffffffffffffffffffffffff1916908160001a905350600a8561245d9190613477565b94506123b5565b8093505050505b919050565b600061247b82611af8565b90506124898160008461274f565b612494600083611bb2565b6001600460008373ffffffffffffffffffffffffffffffffffffffff1673ffffffffffffffffffffffffffffffffffffffff16815260200190815260200160002060008282546124e491906134a8565b925050819055506003600083815260200190815260200160002060006101000a81549073ffffffffffffffffffffffffffffffffffffffff021916905581600073ffffffffffffffffffffffffffffffffffffffff168273ffffffffffffffffffffffffffffffffffffffff167fddf252ad1be2c89b69c2b068fc378daa952ba7f163c4a11628f55a4df523b3ef60405160405180910390a45050565b600073ffffffffffffffffffffffffffffffffffffffff168273ffffffffffffffffffffffffffffffffffffffff1614156125f1576040517f08c379a00000000000000000000000000000000000000000000000000000000081526004016125e89061328d565b60405180910390fd5b6125fa81611a8c565b1561263a576040517f08c379a0000000000000000000000000000000000000000000000000000000008152600401612631906131cd565b60405180910390fd5b6126466000838361274f565b6001600460008473ffffffffffffffffffffffffffffffffffffffff1673ffffffffffffffffffffffffffffffffffffffff16815260200190815260200160002060008282546126969190613421565b92505081905550816003600083815260200190815260200160002060006101000a81548173ffffffffffffffffffffffffffffffffffffffff021916908373ffffffffffffffffffffffffffffffffffffffff160217905550808273ffffffffffffffffffffffffffffffffffffffff16600073ffffffffffffffffffffffffffffffffffffffff167fddf252ad1be2c89b69c2b068fc378daa952ba7f163c4a11628f55a4df523b3ef60405160405180910390a45050565b505050565b60006127758473ffffffffffffffffffffffffffffffffffffffff166128eb565b156128de578373ffffffffffffffffffffffffffffffffffffffff1663150b7a0261279e611baa565b8786866040518563ffffffff1660e01b81526004016127c0949392919061306e565b602060405180830381600087803b1580156127da57600080fd5b505af192505050801561280b57506040513d601f19601f820116820180604052508101906128089190612c1b565b60015b61288e573d806000811461283b576040519150601f19603f3d011682016040523d82523d6000602084013e612840565b606091505b50600081511415612886576040517f08c379a000000000000000000000000000000000000000000000000000000000815260040161287d9061318d565b60405180910390fd5b805181602001fd5b63150b7a0260e01b7bffffffffffffffffffffffffffffffffffffffffffffffffffffffff1916817bffffffffffffffffffffffffffffffffffffffffffffffffffffffff1916149150506128e3565b600190505b949350505050565b600080823b905060008111915050919050565b600061291161290c846133ad565b613388565b90508281526020810184848401111561292957600080fd5b61293484828561357e565b509392505050565b60008135905061294b81613b73565b92915050565b60008151905061296081613b73565b92915050565b60008135905061297581613b8a565b92915050565b60008151905061298a81613ba1565b92915050565b60008135905061299f81613bb8565b92915050565b6000815190506129b481613bb8565b92915050565b600082601f8301126129cb57600080fd5b81356129db8482602086016128fe565b91505092915050565b6000813590506129f381613bcf565b92915050565b600060208284031215612a0b57600080fd5b6000612a198482850161293c565b91505092915050565b600060208284031215612a3457600080fd5b6000612a4284828501612951565b91505092915050565b60008060408385031215612a5e57600080fd5b6000612a6c8582860161293c565b9250506020612a7d8582860161293c565b9150509250929050565b600080600060608486031215612a9c57600080fd5b6000612aaa8682870161293c565b9350506020612abb8682870161293c565b9250506040612acc868287016129e4565b9150509250925092565b60008060008060808587031215612aec57600080fd5b6000612afa8782880161293c565b9450506020612b0b8782880161293c565b9350506040612b1c878288016129e4565b925050606085013567ffffffffffffffff811115612b3957600080fd5b612b45878288016129ba565b91505092959194509250565b60008060408385031215612b6457600080fd5b6000612b728582860161293c565b9250506020612b8385828601612966565b9150509250929050565b60008060408385031215612ba057600080fd5b6000612bae8582860161293c565b9250506020612bbf858286016129e4565b9150509250929050565b600060208284031215612bdb57600080fd5b6000612be98482850161297b565b91505092915050565b600060208284031215612c0457600080fd5b6000612c1284828501612990565b91505092915050565b600060208284031215612c2d57600080fd5b6000612c3b848285016129a5565b91505092915050565b600060208284031215612c5657600080fd5b6000612c64848285016129e4565b91505092915050565b60008060408385031215612c8057600080fd5b6000612c8e858286016129e4565b9250506020612c9f8582860161293c565b9150509250929050565b600080600060608486031215612cbe57600080fd5b6000612ccc868287016129e4565b9350506020612cdd8682870161293c565b9250506040612cee868287016129e4565b9150509250925092565b60008060408385031215612d0b57600080fd5b6000612d19858286016129e4565b9250506020612d2a858286016129e4565b9150509250929050565b612d3d816134dc565b82525050565b612d4c816134ee565b82525050565b612d5b816134fa565b82525050565b6000612d6c826133de565b612d7681856133f4565b9350612d8681856020860161358d565b612d8f81613759565b840191505092915050565b612da38161355a565b82525050565b6000612db4826133e9565b612dbe8185613405565b9350612dce81856020860161358d565b612dd781613759565b840191505092915050565b6000612ded826133e9565b612df78185613416565b9350612e0781856020860161358d565b80840191505092915050565b6000612e20603283613405565b9150612e2b8261376a565b604082019050919050565b6000612e43602683613405565b9150612e4e826137b9565b604082019050919050565b6000612e66601c83613405565b9150612e7182613808565b602082019050919050565b6000612e89602483613405565b9150612e9482613831565b604082019050919050565b6000612eac601983613405565b9150612eb782613880565b602082019050919050565b6000612ecf603883613405565b9150612eda826138a9565b604082019050919050565b6000612ef2602a83613405565b9150612efd826138f8565b604082019050919050565b6000612f15602983613405565b9150612f2082613947565b604082019050919050565b6000612f38602083613405565b9150612f4382613996565b602082019050919050565b6000612f5b602c83613405565b9150612f66826139bf565b604082019050919050565b6000612f7e602083613405565b9150612f8982613a0e565b602082019050919050565b6000612fa1602983613405565b9150612fac82613a37565b604082019050919050565b6000612fc4602f83613405565b9150612fcf82613a86565b604082019050919050565b6000612fe7602183613405565b9150612ff282613ad5565b604082019050919050565b600061300a603183613405565b915061301582613b24565b604082019050919050565b61302981613550565b82525050565b600061303b8285612de2565b91506130478284612de2565b91508190509392505050565b60006020820190506130686000830184612d34565b92915050565b60006080820190506130836000830187612d34565b6130906020830186612d34565b61309d6040830185613020565b81810360608301526130af8184612d61565b905095945050505050565b60006020820190506130cf6000830184612d43565b92915050565b60006020820190506130ea6000830184612d52565b92915050565b60006040820190506131056000830185612d52565b6131126020830184612d34565b9392505050565b600060608201905061312e6000830186612d52565b61313b6020830185612d52565b6131486040830184612d34565b949350505050565b60006020820190506131656000830184612d9a565b92915050565b600060208201905081810360008301526131858184612da9565b905092915050565b600060208201905081810360008301526131a681612e13565b9050919050565b600060208201905081810360008301526131c681612e36565b9050919050565b600060208201905081810360008301526131e681612e59565b9050919050565b6000602082019050818103600083015261320681612e7c565b9050919050565b6000602082019050818103600083015261322681612e9f565b9050919050565b6000602082019050818103600083015261324681612ec2565b9050919050565b6000602082019050818103600083015261326681612ee5565b9050919050565b6000602082019050818103600083015261328681612f08565b9050919050565b600060208201905081810360008301526132a681612f2b565b9050919050565b600060208201905081810360008301526132c681612f4e565b9050919050565b600060208201905081810360008301526132e681612f71565b9050919050565b6000602082019050818103600083015261330681612f94565b9050919050565b6000602082019050818103600083015261332681612fb7565b9050919050565b6000602082019050818103600083015261334681612fda565b9050919050565b6000602082019050818103600083015261336681612ffd565b9050919050565b60006020820190506133826000830184613020565b92915050565b60006133926133a3565b905061339e82826135f2565b919050565b6000604051905090565b600067ffffffffffffffff8211156133c8576133c761372a565b5b6133d182613759565b9050602081019050919050565b600081519050919050565b600081519050919050565b600082825260208201905092915050565b600082825260208201905092915050565b600081905092915050565b600061342c82613550565b915061343783613550565b9250827fffffffffffffffffffffffffffffffffffffffffffffffffffffffffffffffff0382111561346c5761346b61369d565b5b828201905092915050565b600061348282613550565b915061348d83613550565b92508261349d5761349c6136cc565b5b828204905092915050565b60006134b382613550565b91506134be83613550565b9250828210156134d1576134d061369d565b5b828203905092915050565b60006134e782613530565b9050919050565b60008115159050919050565b6000819050919050565b60007fffffffff0000000000000000000000000000000000000000000000000000000082169050919050565b600073ffffffffffffffffffffffffffffffffffffffff82169050919050565b6000819050919050565b60006135658261356c565b9050919050565b600061357782613530565b9050919050565b82818337600083830152505050565b60005b838110156135ab578082015181840152602081019050613590565b838111156135ba576000848401525b50505050565b600060028204905060018216806135d857607f821691505b602082108114156135ec576135eb6136fb565b5b50919050565b6135fb82613759565b810181811067ffffffffffffffff8211171561361a5761361961372a565b5b80604052505050565b600061362e82613550565b91507fffffffffffffffffffffffffffffffffffffffffffffffffffffffffffffffff8214156136615761366061369d565b5b600182019050919050565b600061367782613550565b915061368283613550565b925082613692576136916136cc565b5b828206905092915050565b7f4e487b7100000000000000000000000000000000000000000000000000000000600052601160045260246000fd5b7f4e487b7100000000000000000000000000000000000000000000000000000000600052601260045260246000fd5b7f4e487b7100000000000000000000000000000000000000000000000000000000600052602260045260246000fd5b7f4e487b7100000000000000000000000000000000000000000000000000000000600052604160045260246000fd5b6000601f19601f8301169050919050565b7f4552433732313a207472616e7366657220746f206e6f6e20455243373231526560008201527f63656976657220696d706c656d656e7465720000000000000000000000000000602082015250565b7f4f776e61626c653a206e6577206f776e657220697320746865207a65726f206160008201527f6464726573730000000000000000000000000000000000000000000000000000602082015250565b7f4552433732313a20746f6b656e20616c7265616479206d696e74656400000000600082015250565b7f4552433732313a207472616e7366657220746f20746865207a65726f2061646460008201527f7265737300000000000000000000000000000000000000000000000000000000602082015250565b7f4552433732313a20617070726f766520746f2063616c6c657200000000000000600082015250565b7f4552433732313a20617070726f76652063616c6c6572206973206e6f74206f7760008201527f6e6572206e6f7220617070726f76656420666f7220616c6c0000000000000000602082015250565b7f4552433732313a2062616c616e636520717565727920666f7220746865207a6560008201527f726f206164647265737300000000000000000000000000000000000000000000602082015250565b7f4552433732313a206f776e657220717565727920666f72206e6f6e657869737460008201527f656e7420746f6b656e0000000000000000000000000000000000000000000000602082015250565b7f4552433732313a206d696e7420746f20746865207a65726f2061646472657373600082015250565b7f4552433732313a20617070726f76656420717565727920666f72206e6f6e657860008201527f697374656e7420746f6b656e0000000000000000000000000000000000000000602082015250565b7f4f776e61626c653a2063616c6c6572206973206e6f7420746865206f776e6572600082015250565b7f4552433732313a207472616e73666572206f6620746f6b656e2074686174206960008201527f73206e6f74206f776e0000000000000000000000000000000000000000000000602082015250565b7f4552433732314d657461646174613a2055524920717565727920666f72206e6f60008201527f6e6578697374656e7420746f6b656e0000000000000000000000000000000000602082015250565b7f4552433732313a20617070726f76616c20746f2063757272656e74206f776e6560008201527f7200000000000000000000000000000000000000000000000000000000000000602082015250565b7f4552433732313a207472616e736665722063616c6c6572206973206e6f74206f60008201527f776e6572206e6f7220617070726f766564000000000000000000000000000000602082015250565b613b7c816134dc565b8114613b8757600080fd5b50565b613b93816134ee565b8114613b9e57600080fd5b50565b613baa816134fa565b8114613bb557600080fd5b50565b613bc181613504565b8114613bcc57600080fd5b50565b613bd881613550565b8114613be357600080fd5b5056fea2646970667358221220df41bac29501ec1e6aef8de908ad9048417d941d41f1ab705fc961f5984e964664736f6c63430008040033",
  "immutableReferences": {},
  "source": "pragma solidity >=0.8.4;\n\nimport \"../registry/ENS.sol\";\nimport \"@openzeppelin/contracts/token/ERC721/ERC721.sol\";\n\nimport \"./BaseRegistrar.sol\";\ncontract BaseRegistrarImplementation is ERC721, BaseRegistrar  {\n    // A map of expiry times\n    mapping(uint256=>uint) expiries;\n\n    bytes4 constant private INTERFACE_META_ID = bytes4(keccak256(\"supportsInterface(bytes4)\"));\n    bytes4 constant private ERC721_ID = bytes4(\n        keccak256(\"balanceOf(address)\") ^\n        keccak256(\"ownerOf(uint256)\") ^\n        keccak256(\"approve(address,uint256)\") ^\n        keccak256(\"getApproved(uint256)\") ^\n        keccak256(\"setApprovalForAll(address,bool)\") ^\n        keccak256(\"isApprovedForAll(address,address)\") ^\n        keccak256(\"transferFrom(address,address,uint256)\") ^\n        keccak256(\"safeTransferFrom(address,address,uint256)\") ^\n        keccak256(\"safeTransferFrom(address,address,uint256,bytes)\")\n    );\n    bytes4 constant private RECLAIM_ID = bytes4(keccak256(\"reclaim(uint256,address)\"));\n\n    /**\n     * v2.1.3 version of _isApprovedOrOwner which calls ownerOf(tokenId) and takes grace period into consideration instead of ERC721.ownerOf(tokenId);\n     * https://github.com/OpenZeppelin/openzeppelin-contracts/blob/v2.1.3/contracts/token/ERC721/ERC721.sol#L187\n     * @dev Returns whether the given spender can transfer a given token ID\n     * @param spender address of the spender to query\n     * @param tokenId uint256 ID of the token to be transferred\n     * @return bool whether the msg.sender is approved for the given token ID,\n     *    is an operator of the owner, or is the owner of the token\n     */\n    function _isApprovedOrOwner(address spender, uint256 tokenId) internal view override returns (bool) {\n        address owner = ownerOf(tokenId);\n        return (spender == owner || getApproved(tokenId) == spender || isApprovedForAll(owner, spender));\n    }\n\n    constructor(ENS _ens, bytes32 _baseNode) ERC721(\"\",\"\") {\n        ens = _ens;\n        baseNode = _baseNode;\n    }\n\n    modifier live {\n        require(ens.owner(baseNode) == address(this));\n        _;\n    }\n\n    modifier onlyController {\n        require(controllers[msg.sender]);\n        _;\n    }\n\n    /**\n     * @dev Gets the owner of the specified token ID. Names become unowned\n     *      when their registration expires.\n     * @param tokenId uint256 ID of the token to query the owner of\n     * @return address currently marked as the owner of the given token ID\n     */\n    function ownerOf(uint256 tokenId) public view override(IERC721, ERC721) returns (address) {\n        require(expiries[tokenId] > block.timestamp);\n        return super.ownerOf(tokenId);\n    }\n\n    // Authorises a controller, who can register and renew domains.\n    function addController(address controller) external override onlyOwner {\n        controllers[controller] = true;\n        emit ControllerAdded(controller);\n    }\n\n    // Revoke controller permission for an address.\n    function removeController(address controller) external override onlyOwner {\n        controllers[controller] = false;\n        emit ControllerRemoved(controller);\n    }\n\n    // Set the resolver for the TLD this registrar manages.\n    function setResolver(address resolver) external override onlyOwner {\n        ens.setResolver(baseNode, resolver);\n    }\n\n    // Returns the expiration timestamp of the specified id.\n    function nameExpires(uint256 id) external view override returns(uint) {\n        return expiries[id];\n    }\n\n    // Returns true iff the specified name is available for registration.\n    function available(uint256 id) public view override returns(bool) {\n        // Not available if it's registered here or in its grace period.\n        return expiries[id] + GRACE_PERIOD < block.timestamp;\n    }\n\n    /**\n     * @dev Register a name.\n     * @param id The token ID (keccak256 of the label).\n     * @param owner The address that should own the registration.\n     * @param duration Duration in seconds for the registration.\n     */\n    function register(uint256 id, address owner, uint duration) external override returns(uint) {\n      return _register(id, owner, duration, true);\n    }\n\n    /**\n     * @dev Register a name, without modifying the registry.\n     * @param id The token ID (keccak256 of the label).\n     * @param owner The address that should own the registration.\n     * @param duration Duration in seconds for the registration.\n     */\n    function registerOnly(uint256 id, address owner, uint duration) external returns(uint) {\n      return _register(id, owner, duration, false);\n    }\n\n    function _register(uint256 id, address owner, uint duration, bool updateRegistry) internal live onlyController returns(uint) {\n        require(available(id));\n        require(block.timestamp + duration + GRACE_PERIOD > block.timestamp + GRACE_PERIOD); // Prevent future overflow\n\n        expiries[id] = block.timestamp + duration;\n        if(_exists(id)) {\n            // Name was previously owned, and expired\n            _burn(id);\n        }\n        _mint(owner, id);\n        if(updateRegistry) {\n            ens.setSubnodeOwner(baseNode, bytes32(id), owner);\n        }\n\n        emit NameRegistered(id, owner, block.timestamp + duration);\n\n        return block.timestamp + duration;\n    }\n\n    function renew(uint256 id, uint duration) external override live onlyController returns(uint) {\n        require(expiries[id] + GRACE_PERIOD >= block.timestamp); // Name must be registered here or in grace period\n        require(expiries[id] + duration + GRACE_PERIOD > duration + GRACE_PERIOD); // Prevent future overflow\n\n        expiries[id] += duration;\n        emit NameRenewed(id, expiries[id]);\n        return expiries[id];\n    }\n\n    /**\n     * @dev Reclaim ownership of a name in ENS, if you own it in the registrar.\n     */\n    function reclaim(uint256 id, address owner) external override live {\n        require(_isApprovedOrOwner(msg.sender, id));\n        ens.setSubnodeOwner(baseNode, bytes32(id), owner);\n    }\n\n    function supportsInterface(bytes4 interfaceID) public override(ERC721, IERC165) view returns (bool) {\n        return interfaceID == INTERFACE_META_ID ||\n               interfaceID == ERC721_ID ||\n               interfaceID == RECLAIM_ID;\n    }\n}\n",
  "sourcePath": "/Users/jiang/dev/pns/deploy/contracts/ethregistrar/BaseRegistrarImplementation.sol",
  "compiler": {
    "name": "solc",
    "version": "0.8.4+commit.c7e474f2.Emscripten.clang"
  },
  "schemaVersion": "3.3.4",
  "updatedAt": "2021-06-01T13:04:58.969Z",
  "networkType": "ethereum",
  "devdoc": {
    "kind": "dev",
    "methods": {
      "approve(address,uint256)": {
        "details": "See {IERC721-approve}."
      },
      "balanceOf(address)": {
        "details": "See {IERC721-balanceOf}."
      },
      "getApproved(uint256)": {
        "details": "See {IERC721-getApproved}."
      },
      "isApprovedForAll(address,address)": {
        "details": "See {IERC721-isApprovedForAll}."
      },
      "name()": {
        "details": "See {IERC721Metadata-name}."
      },
      "owner()": {
        "details": "Returns the address of the current owner."
      },
      "ownerOf(uint256)": {
        "details": "Gets the owner of the specified token ID. Names become unowned      when their registration expires.",
        "params": {
          "tokenId": "uint256 ID of the token to query the owner of"
        },
        "returns": {
          "_0": "address currently marked as the owner of the given token ID"
        }
      },
      "reclaim(uint256,address)": {
        "details": "Reclaim ownership of a name in ENS, if you own it in the registrar."
      },
      "register(uint256,address,uint256)": {
        "details": "Register a name.",
        "params": {
          "duration": "Duration in seconds for the registration.",
          "id": "The token ID (keccak256 of the label).",
          "owner": "The address that should own the registration."
        }
      },
      "registerOnly(uint256,address,uint256)": {
        "details": "Register a name, without modifying the registry.",
        "params": {
          "duration": "Duration in seconds for the registration.",
          "id": "The token ID (keccak256 of the label).",
          "owner": "The address that should own the registration."
        }
      },
      "renounceOwnership()": {
        "details": "Leaves the contract without owner. It will not be possible to call `onlyOwner` functions anymore. Can only be called by the current owner. NOTE: Renouncing ownership will leave the contract without an owner, thereby removing any functionality that is only available to the owner."
      },
      "safeTransferFrom(address,address,uint256)": {
        "details": "See {IERC721-safeTransferFrom}."
      },
      "safeTransferFrom(address,address,uint256,bytes)": {
        "details": "See {IERC721-safeTransferFrom}."
      },
      "setApprovalForAll(address,bool)": {
        "details": "See {IERC721-setApprovalForAll}."
      },
      "symbol()": {
        "details": "See {IERC721Metadata-symbol}."
      },
      "tokenURI(uint256)": {
        "details": "See {IERC721Metadata-tokenURI}."
      },
      "transferFrom(address,address,uint256)": {
        "details": "See {IERC721-transferFrom}."
      },
      "transferOwnership(address)": {
        "details": "Transfers ownership of the contract to a new account (`newOwner`). Can only be called by the current owner."
      }
    },
    "version": 1
  },
  "userdoc": {
    "kind": "user",
    "methods": {},
    "version": 1
  }
}