{
  "contractName": "DummyDNSSEC",
  "abi": [
    {
      "inputs": [
        {
          "internalType": "uint16",
          "name": "_expectedType",
          "type": "uint16"
        },
        {
          "internalType": "bytes",
          "name": "_expectedName",
          "type": "bytes"
        },
        {
          "internalType": "uint32",
          "name": "_inception",
          "type": "uint32"
        },
        {
          "internalType": "uint64",
          "name": "_inserted",
          "type": "uint64"
        },
        {
          "internalType": "bytes",
          "name": "_proof",
          "type": "bytes"
        }
      ],
      "name": "setData",
      "outputs": [],
      "stateMutability": "nonpayable",
      "type": "function"
    },
    {
      "inputs": [
        {
          "internalType": "uint16",
          "name": "dnstype",
          "type": "uint16"
        },
        {
          "internalType": "bytes",
          "name": "name",
          "type": "bytes"
        }
      ],
      "name": "rrdata",
      "outputs": [
        {
          "internalType": "uint32",
          "name": "",
          "type": "uint32"
        },
        {
          "internalType": "uint64",
          "name": "",
          "type": "uint64"
        },
        {
          "internalType": "bytes20",
          "name": "",
          "type": "bytes20"
        }
      ],
      "stateMutability": "view",
      "type": "function"
    }
  ],
  "bytecode": "0x608060405234801561001057600080fd5b506106b4806100206000396000f3fe608060405234801561001057600080fd5b50600436106100365760003560e01c8063087991bc1461003b5780638581a99c1461006d575b600080fd5b610055600480360381019061005091906102ce565b610089565b60405161006493929190610466565b60405180910390f35b61008760048036038101906100829190610322565b610119565b005b60008060008060008087876040516020016100a592919061043e565b60405160208183030381529060405280519060200120815260200190815260200160002090508060000160009054906101000a900463ffffffff168160000160049054906101000a900467ffffffffffffffff1682600001600c9054906101000a900460601b935093509350509250925092565b6000806000878760405160200161013192919061043e565b6040516020818303038152906040528051906020012081526020019081526020016000209050838160000160006101000a81548163ffffffff021916908363ffffffff160217905550828160000160046101000a81548167ffffffffffffffff021916908367ffffffffffffffff16021790555060008251146101ea57818051906020012081600001600c6101000a81548173ffffffffffffffffffffffffffffffffffffffff021916908360601c021790555061021f565b600060601b81600001600c6101000a81548173ffffffffffffffffffffffffffffffffffffffff021916908360601c02179055505b505050505050565b600061023a610235846104c2565b61049d565b90508281526020810184848401111561025257600080fd5b61025d848285610567565b509392505050565b600082601f83011261027657600080fd5b8135610286848260208601610227565b91505092915050565b60008135905061029e81610639565b92915050565b6000813590506102b381610650565b92915050565b6000813590506102c881610667565b92915050565b600080604083850312156102e157600080fd5b60006102ef8582860161028f565b925050602083013567ffffffffffffffff81111561030c57600080fd5b61031885828601610265565b9150509250929050565b600080600080600060a0868803121561033a57600080fd5b60006103488882890161028f565b955050602086013567ffffffffffffffff81111561036557600080fd5b61037188828901610265565b9450506040610382888289016102a4565b9350506060610393888289016102b9565b925050608086013567ffffffffffffffff8111156103b057600080fd5b6103bc88828901610265565b9150509295509295909350565b6103d281610509565b82525050565b60006103e3826104f3565b6103ed81856104fe565b93506103fd818560208601610576565b80840191505092915050565b61041a61041582610535565b6105da565b82525050565b61042981610543565b82525050565b61043881610553565b82525050565b600061044a8285610409565b60028201915061045a82846103d8565b91508190509392505050565b600060608201905061047b6000830186610420565b610488602083018561042f565b61049560408301846103c9565b949350505050565b60006104a76104b8565b90506104b382826105a9565b919050565b6000604051905090565b600067ffffffffffffffff8211156104dd576104dc6105ec565b5b6104e68261061b565b9050602081019050919050565b600081519050919050565b600081905092915050565b60007fffffffffffffffffffffffffffffffffffffffff00000000000000000000000082169050919050565b600061ffff82169050919050565b600063ffffffff82169050919050565b600067ffffffffffffffff82169050919050565b82818337600083830152505050565b60005b83811015610594578082015181840152602081019050610579565b838111156105a3576000848401525b50505050565b6105b28261061b565b810181811067ffffffffffffffff821117156105d1576105d06105ec565b5b80604052505050565b60006105e58261062c565b9050919050565b7f4e487b7100000000000000000000000000000000000000000000000000000000600052604160045260246000fd5b6000601f19601f8301169050919050565b60008160f01b9050919050565b61064281610535565b811461064d57600080fd5b50565b61065981610543565b811461066457600080fd5b50565b61067081610553565b811461067b57600080fd5b5056fea264697066735822122097ccd1318ded6ff070978124075763ee7e72d98c0c828061a0bf71b1b98c574e64736f6c63430008040033",
  "immutableReferences": {},
  "source": "pragma solidity >=0.8.4;\n\nimport \"../../registry/ENSRegistry.sol\";\n\ncontract DummyDNSSEC {\n\n    struct Data {\n        uint32 inception;\n        uint64 inserted;\n        bytes20 hash;\n    }\n\n    mapping (bytes32 => Data) private datas;\n\n    function setData(uint16 _expectedType, bytes memory _expectedName, uint32 _inception, uint64 _inserted, bytes memory _proof) public {\n        Data storage rr = datas[keccak256(abi.encodePacked(_expectedType, _expectedName))];\n        rr.inception = _inception;\n        rr.inserted = _inserted;\n\n        if (_proof.length != 0) {\n            rr.hash = bytes20(keccak256(_proof));\n        } else {\n            rr.hash = bytes20(0);\n        }\n    }\n\n    function rrdata(uint16 dnstype, bytes memory name) public view returns (uint32, uint64, bytes20) {\n        Data storage rr = datas[keccak256(abi.encodePacked(dnstype, name))];\n        return (rr.inception, rr.inserted, rr.hash);\n    }\n}\n",
  "sourcePath": "/Users/jiang/dev/pns/deploy/contracts/ethregistrar/mocks/DummyDNSSEC.sol",
  "compiler": {
    "name": "solc",
    "version": "0.8.4+commit.c7e474f2.Emscripten.clang"
  },
  "schemaVersion": "3.3.4",
  "updatedAt": "2021-05-31T09:55:10.517Z",
  "devdoc": {
    "kind": "dev",
    "methods": {},
    "version": 1
  },
  "userdoc": {
    "kind": "user",
    "methods": {},
    "version": 1
  }
}