{
  "contractName": "StablePriceOracle",
  "abi": [
    {
      "inputs": [
        {
          "internalType": "contract AggregatorInterface",
          "name": "_usdOracle",
          "type": "address"
        },
        {
          "internalType": "uint256[]",
          "name": "_rentPrices",
          "type": "uint256[]"
        }
      ],
      "stateMutability": "nonpayable",
      "type": "constructor"
    },
    {
      "anonymous": false,
      "inputs": [
        {
          "indexed": false,
          "internalType": "address",
          "name": "oracle",
          "type": "address"
        }
      ],
      "name": "OracleChanged",
      "type": "event"
    },
    {
      "anonymous": false,
      "inputs": [
        {
          "indexed": true,
          "internalType": "address",
          "name": "previousOwner",
          "type": "address"
        },
        {
          "indexed": true,
          "internalType": "address",
          "name": "newOwner",
          "type": "address"
        }
      ],
      "name": "OwnershipTransferred",
      "type": "event"
    },
    {
      "anonymous": false,
      "inputs": [
        {
          "indexed": false,
          "internalType": "uint256[]",
          "name": "prices",
          "type": "uint256[]"
        }
      ],
      "name": "RentPriceChanged",
      "type": "event"
    },
    {
      "inputs": [],
      "name": "owner",
      "outputs": [
        {
          "internalType": "address",
          "name": "",
          "type": "address"
        }
      ],
      "stateMutability": "view",
      "type": "function",
      "constant": true
    },
    {
      "inputs": [],
      "name": "renounceOwnership",
      "outputs": [],
      "stateMutability": "nonpayable",
      "type": "function"
    },
    {
      "inputs": [
        {
          "internalType": "uint256",
          "name": "",
          "type": "uint256"
        }
      ],
      "name": "rentPrices",
      "outputs": [
        {
          "internalType": "uint256",
          "name": "",
          "type": "uint256"
        }
      ],
      "stateMutability": "view",
      "type": "function",
      "constant": true
    },
    {
      "inputs": [
        {
          "internalType": "address",
          "name": "newOwner",
          "type": "address"
        }
      ],
      "name": "transferOwnership",
      "outputs": [],
      "stateMutability": "nonpayable",
      "type": "function"
    },
    {
      "inputs": [],
      "name": "usdOracle",
      "outputs": [
        {
          "internalType": "contract AggregatorInterface",
          "name": "",
          "type": "address"
        }
      ],
      "stateMutability": "view",
      "type": "function",
      "constant": true
    },
    {
      "inputs": [
        {
          "internalType": "string",
          "name": "name",
          "type": "string"
        },
        {
          "internalType": "uint256",
          "name": "expires",
          "type": "uint256"
        },
        {
          "internalType": "uint256",
          "name": "duration",
          "type": "uint256"
        }
      ],
      "name": "price",
      "outputs": [
        {
          "internalType": "uint256",
          "name": "",
          "type": "uint256"
        }
      ],
      "stateMutability": "view",
      "type": "function",
      "constant": true
    },
    {
      "inputs": [
        {
          "internalType": "uint256[]",
          "name": "_rentPrices",
          "type": "uint256[]"
        }
      ],
      "name": "setPrices",
      "outputs": [],
      "stateMutability": "nonpayable",
      "type": "function"
    },
    {
      "inputs": [
        {
          "internalType": "contract AggregatorInterface",
          "name": "_usdOracle",
          "type": "address"
        }
      ],
      "name": "setOracle",
      "outputs": [],
      "stateMutability": "nonpayable",
      "type": "function"
    },
    {
      "inputs": [
        {
          "internalType": "string",
          "name": "name",
          "type": "string"
        },
        {
          "internalType": "uint256",
          "name": "expires",
          "type": "uint256"
        },
        {
          "internalType": "uint256",
          "name": "duration",
          "type": "uint256"
        }
      ],
      "name": "premium",
      "outputs": [
        {
          "internalType": "uint256",
          "name": "",
          "type": "uint256"
        }
      ],
      "stateMutability": "view",
      "type": "function",
      "constant": true
    },
    {
      "inputs": [
        {
          "internalType": "bytes4",
          "name": "interfaceID",
          "type": "bytes4"
        }
      ],
      "name": "supportsInterface",
      "outputs": [
        {
          "internalType": "bool",
          "name": "",
          "type": "bool"
        }
      ],
      "stateMutability": "view",
      "type": "function",
      "constant": true
    }
  ],
  "bytecode": "0x60806040523480156200001157600080fd5b5060405162001d8138038062001d81833981810160405281019062000037919062000397565b6000620000496200014160201b60201c565b9050806000806101000a81548173ffffffffffffffffffffffffffffffffffffffff021916908373ffffffffffffffffffffffffffffffffffffffff1602179055508073ffffffffffffffffffffffffffffffffffffffff16600073ffffffffffffffffffffffffffffffffffffffff167f8be0079c531659141344cd1fd0a4f28419497f9722a3daafe3b4186f6b6457e060405160405180910390a35081600260006101000a81548173ffffffffffffffffffffffffffffffffffffffff021916908373ffffffffffffffffffffffffffffffffffffffff16021790555062000139816200014960201b60201c565b5050620006ba565b600033905090565b620001596200014160201b60201c565b73ffffffffffffffffffffffffffffffffffffffff166200017f6200022d60201b60201c565b73ffffffffffffffffffffffffffffffffffffffff1614620001d8576040517f08c379a0000000000000000000000000000000000000000000000000000000008152600401620001cf90620004d1565b60405180910390fd5b8060019080519060200190620001f092919062000256565b507f73422d94aedd596c2d4d39f27a01033adc390a9054efaf259afefd95ef7331df81604051620002229190620004ad565b60405180910390a150565b60008060009054906101000a900473ffffffffffffffffffffffffffffffffffffffff16905090565b82805482825590600052602060002090810192821562000295579160200282015b828111156200029457825182559160200191906001019062000277565b5b509050620002a49190620002a8565b5090565b5b80821115620002c3576000816000905550600101620002a9565b5090565b6000620002de620002d8846200051c565b620004f3565b90508083825260208201905082856020860282011115620002fe57600080fd5b60005b8581101562000332578162000317888262000380565b84526020840193506020830192505060018101905062000301565b5050509392505050565b600082601f8301126200034e57600080fd5b815162000360848260208601620002c7565b91505092915050565b6000815190506200037a8162000686565b92915050565b6000815190506200039181620006a0565b92915050565b60008060408385031215620003ab57600080fd5b6000620003bb8582860162000369565b925050602083015167ffffffffffffffff811115620003d957600080fd5b620003e7858286016200033c565b9150509250929050565b6000620003ff83836200049c565b60208301905092915050565b600062000418826200055b565b62000424818562000573565b935062000431836200054b565b8060005b83811015620004685781516200044c8882620003f1565b9750620004598362000566565b92505060018101905062000435565b5085935050505092915050565b60006200048460208362000584565b915062000491826200065d565b602082019050919050565b620004a781620005dd565b82525050565b60006020820190508181036000830152620004c981846200040b565b905092915050565b60006020820190508181036000830152620004ec8162000475565b9050919050565b6000620004ff62000512565b90506200050d8282620005e7565b919050565b6000604051905090565b600067ffffffffffffffff8211156200053a57620005396200061d565b5b602082029050602081019050919050565b6000819050602082019050919050565b600081519050919050565b6000602082019050919050565b600082825260208201905092915050565b600082825260208201905092915050565b6000620005a282620005bd565b9050919050565b6000620005b68262000595565b9050919050565b600073ffffffffffffffffffffffffffffffffffffffff82169050919050565b6000819050919050565b620005f2826200064c565b810181811067ffffffffffffffff821117156200061457620006136200061d565b5b80604052505050565b7f4e487b7100000000000000000000000000000000000000000000000000000000600052604160045260246000fd5b6000601f19601f8301169050919050565b7f4f776e61626c653a2063616c6c6572206973206e6f7420746865206f776e6572600082015250565b6200069181620005a9565b81146200069d57600080fd5b50565b620006ab81620005dd565b8114620006b757600080fd5b50565b6116b780620006ca6000396000f3fe608060405234801561001057600080fd5b506004361061009e5760003560e01c80637adbf973116100665780637adbf973146101595780638da5cb5b14610175578063a34e359614610193578063c8a4271f146101c3578063f2fde38b146101e15761009e565b806301ffc9a7146100a357806306d5d0b6146100d357806350e9a71514610103578063715018a61461013357806379cf92d31461013d575b600080fd5b6100bd60048036038101906100b89190610f35565b6101fd565b6040516100ca9190611189565b60405180910390f35b6100ed60048036038101906100e8919061101c565b6102f1565b6040516100fa91906111ff565b60405180910390f35b61011d60048036038101906101189190610fb0565b610315565b60405161012a91906111ff565b60405180910390f35b61013b610468565b005b61015760048036038101906101529190610ef4565b6105a2565b005b610173600480360381019061016e9190610f5e565b61066f565b005b61017d610766565b60405161018a919061114c565b60405180910390f35b6101ad60048036038101906101a89190610fb0565b61078f565b6040516101ba91906111ff565b60405180910390f35b6101cb6107f2565b6040516101d891906111a4565b60405180910390f35b6101fb60048036038101906101f69190610ecb565b610818565b005b60007f01ffc9a7a5cef8baa21ed3c5c0d7e23accb804b619e9333b597f47a0d84076e27bffffffffffffffffffffffffffffffffffffffffffffffffffffffff1916827bffffffffffffffffffffffffffffffffffffffffffffffffffffffff191614806102ea57507fa34e3596c835a2bb0c76af3bc7896686f9d9abbb37ea27272246c0e9dab761c57f50e9a715a506f81ba3cfca69197fa8231c19274521697ca4e52316238d69d8a9187bffffffffffffffffffffffffffffffffffffffffffffffffffffffff1916827bffffffffffffffffffffffffffffffffffffffffffffffffffffffff1916145b9050919050565b6001818154811061030157600080fd5b906000526020600020016000915090505481565b60008061036586868080601f016020809104026020016040519081016040528093929190818152602001838380828437600081840152601f19601f820116905080830192505050505050506109c1565b905060018054905081111561037d5760018054905090505b6000811161038a57600080fd5b60006103ee846001808561039e9190611396565b815481106103d5577f4e487b7100000000000000000000000000000000000000000000000000000000600052603260045260246000fd5b9060005260206000200154610b9c90919063ffffffff16565b905061045161044288888080601f016020809104026020016040519081016040528093929190818152602001838380828437600081840152601f19601f820116905080830192505050505050508787610be1565b82610bea90919063ffffffff16565b905061045c81610c12565b92505050949350505050565b610470610ce8565b73ffffffffffffffffffffffffffffffffffffffff1661048e610766565b73ffffffffffffffffffffffffffffffffffffffff16146104e4576040517f08c379a00000000000000000000000000000000000000000000000000000000081526004016104db906111df565b60405180910390fd5b600073ffffffffffffffffffffffffffffffffffffffff1660008054906101000a900473ffffffffffffffffffffffffffffffffffffffff1673ffffffffffffffffffffffffffffffffffffffff167f8be0079c531659141344cd1fd0a4f28419497f9722a3daafe3b4186f6b6457e060405160405180910390a360008060006101000a81548173ffffffffffffffffffffffffffffffffffffffff021916908373ffffffffffffffffffffffffffffffffffffffff160217905550565b6105aa610ce8565b73ffffffffffffffffffffffffffffffffffffffff166105c8610766565b73ffffffffffffffffffffffffffffffffffffffff161461061e576040517f08c379a0000000000000000000000000000000000000000000000000000000008152600401610615906111df565b60405180910390fd5b8060019080519060200190610634929190610d18565b507f73422d94aedd596c2d4d39f27a01033adc390a9054efaf259afefd95ef7331df816040516106649190611167565b60405180910390a150565b610677610ce8565b73ffffffffffffffffffffffffffffffffffffffff16610695610766565b73ffffffffffffffffffffffffffffffffffffffff16146106eb576040517f08c379a00000000000000000000000000000000000000000000000000000000081526004016106e2906111df565b60405180910390fd5b80600260006101000a81548173ffffffffffffffffffffffffffffffffffffffff021916908373ffffffffffffffffffffffffffffffffffffffff1602179055507f0e05ae75e8b926552cf6fcd744d19f422561e3ced1e426868730852702dbe4188160405161075b919061114c565b60405180910390a150565b60008060009054906101000a900473ffffffffffffffffffffffffffffffffffffffff16905090565b60006107e86107e386868080601f016020809104026020016040519081016040528093929190818152602001838380828437600081840152601f19601f820116905080830192505050505050508585610be1565b610c12565b9050949350505050565b600260009054906101000a900473ffffffffffffffffffffffffffffffffffffffff1681565b610820610ce8565b73ffffffffffffffffffffffffffffffffffffffff1661083e610766565b73ffffffffffffffffffffffffffffffffffffffff1614610894576040517f08c379a000000000000000000000000000000000000000000000000000000000815260040161088b906111df565b60405180910390fd5b600073ffffffffffffffffffffffffffffffffffffffff168173ffffffffffffffffffffffffffffffffffffffff161415610904576040517f08c379a00000000000000000000000000000000000000000000000000000000081526004016108fb906111bf565b60405180910390fd5b8073ffffffffffffffffffffffffffffffffffffffff1660008054906101000a900473ffffffffffffffffffffffffffffffffffffffff1673ffffffffffffffffffffffffffffffffffffffff167f8be0079c531659141344cd1fd0a4f28419497f9722a3daafe3b4186f6b6457e060405160405180910390a3806000806101000a81548173ffffffffffffffffffffffffffffffffffffffff021916908373ffffffffffffffffffffffffffffffffffffffff16021790555050565b60008060008084519050600092505b80821015610b91576000858381518110610a13577f4e487b7100000000000000000000000000000000000000000000000000000000600052603260045260246000fd5b602001015160f81c60f81b9050608060f81b817effffffffffffffffffffffffffffffffffffffffffffffffffffffffffffff19161015610a6257600183610a5b91906112b5565b9250610b7d565b60e060f81b817effffffffffffffffffffffffffffffffffffffffffffffffffffffffffffff19161015610aa457600283610a9d91906112b5565b9250610b7c565b60f060f81b817effffffffffffffffffffffffffffffffffffffffffffffffffffffffffffff19161015610ae657600383610adf91906112b5565b9250610b7b565b60f8801b817effffffffffffffffffffffffffffffffffffffffffffffffffffffffffffff19161015610b2757600483610b2091906112b5565b9250610b7a565b60fc60f81b817effffffffffffffffffffffffffffffffffffffffffffffffffffffffffffff19161015610b6957600583610b6291906112b5565b9250610b79565b600683610b7691906112b5565b92505b5b5b5b5b508280610b89906114af565b9350506109d0565b829350505050919050565b600080831415610baf5760009050610bdb565b60008284610bbd919061133c565b9050828482610bcc919061130b565b14610bd657600080fd5b809150505b92915050565b60009392505050565b6000808284610bf991906112b5565b905083811015610c0857600080fd5b8091505092915050565b600080600260009054906101000a900473ffffffffffffffffffffffffffffffffffffffff1673ffffffffffffffffffffffffffffffffffffffff166350d25bcd6040518163ffffffff1660e01b815260040160206040518083038186803b158015610c7d57600080fd5b505afa158015610c91573d6000803e3d6000fd5b505050506040513d601f19601f82011682018060405250810190610cb59190610f87565b9050610ce081610cd26305f5e10086610b9c90919063ffffffff16565b610cf090919063ffffffff16565b915050919050565b600033905090565b6000808211610cfe57600080fd5b60008284610d0c919061130b565b90508091505092915050565b828054828255906000526020600020908101928215610d54579160200282015b82811115610d53578251825591602001919060010190610d38565b5b509050610d619190610d65565b5090565b5b80821115610d7e576000816000905550600101610d66565b5090565b6000610d95610d908461123f565b61121a565b90508083825260208201905082856020860282011115610db457600080fd5b60005b85811015610de45781610dca8882610eb6565b845260208401935060208301925050600181019050610db7565b5050509392505050565b600081359050610dfd8161160e565b92915050565b600082601f830112610e1457600080fd5b8135610e24848260208601610d82565b91505092915050565b600081359050610e3c81611625565b92915050565b600081359050610e518161163c565b92915050565b600081519050610e6681611653565b92915050565b60008083601f840112610e7e57600080fd5b8235905067ffffffffffffffff811115610e9757600080fd5b602083019150836001820283011115610eaf57600080fd5b9250929050565b600081359050610ec58161166a565b92915050565b600060208284031215610edd57600080fd5b6000610eeb84828501610dee565b91505092915050565b600060208284031215610f0657600080fd5b600082013567ffffffffffffffff811115610f2057600080fd5b610f2c84828501610e03565b91505092915050565b600060208284031215610f4757600080fd5b6000610f5584828501610e2d565b91505092915050565b600060208284031215610f7057600080fd5b6000610f7e84828501610e42565b91505092915050565b600060208284031215610f9957600080fd5b6000610fa784828501610e57565b91505092915050565b60008060008060608587031215610fc657600080fd5b600085013567ffffffffffffffff811115610fe057600080fd5b610fec87828801610e6c565b94509450506020610fff87828801610eb6565b925050604061101087828801610eb6565b91505092959194509250565b60006020828403121561102e57600080fd5b600061103c84828501610eb6565b91505092915050565b6000611051838361112e565b60208301905092915050565b611066816113ca565b82525050565b60006110778261127b565b6110818185611293565b935061108c8361126b565b8060005b838110156110bd5781516110a48882611045565b97506110af83611286565b925050600181019050611090565b5085935050505092915050565b6110d3816113dc565b82525050565b6110e28161145a565b82525050565b60006110f56026836112a4565b915061110082611596565b604082019050919050565b60006111186020836112a4565b9150611123826115e5565b602082019050919050565b61113781611450565b82525050565b61114681611450565b82525050565b6000602082019050611161600083018461105d565b92915050565b60006020820190508181036000830152611181818461106c565b905092915050565b600060208201905061119e60008301846110ca565b92915050565b60006020820190506111b960008301846110d9565b92915050565b600060208201905081810360008301526111d8816110e8565b9050919050565b600060208201905081810360008301526111f88161110b565b9050919050565b6000602082019050611214600083018461113d565b92915050565b6000611224611235565b9050611230828261147e565b919050565b6000604051905090565b600067ffffffffffffffff82111561125a57611259611556565b5b602082029050602081019050919050565b6000819050602082019050919050565b600081519050919050565b6000602082019050919050565b600082825260208201905092915050565b600082825260208201905092915050565b60006112c082611450565b91506112cb83611450565b9250827fffffffffffffffffffffffffffffffffffffffffffffffffffffffffffffffff03821115611300576112ff6114f8565b5b828201905092915050565b600061131682611450565b915061132183611450565b92508261133157611330611527565b5b828204905092915050565b600061134782611450565b915061135283611450565b9250817fffffffffffffffffffffffffffffffffffffffffffffffffffffffffffffffff048311821515161561138b5761138a6114f8565b5b828202905092915050565b60006113a182611450565b91506113ac83611450565b9250828210156113bf576113be6114f8565b5b828203905092915050565b60006113d582611430565b9050919050565b60008115159050919050565b60007fffffffff0000000000000000000000000000000000000000000000000000000082169050919050565b600061141f826113ca565b9050919050565b6000819050919050565b600073ffffffffffffffffffffffffffffffffffffffff82169050919050565b6000819050919050565b60006114658261146c565b9050919050565b600061147782611430565b9050919050565b61148782611585565b810181811067ffffffffffffffff821117156114a6576114a5611556565b5b80604052505050565b60006114ba82611450565b91507fffffffffffffffffffffffffffffffffffffffffffffffffffffffffffffffff8214156114ed576114ec6114f8565b5b600182019050919050565b7f4e487b7100000000000000000000000000000000000000000000000000000000600052601160045260246000fd5b7f4e487b7100000000000000000000000000000000000000000000000000000000600052601260045260246000fd5b7f4e487b7100000000000000000000000000000000000000000000000000000000600052604160045260246000fd5b6000601f19601f8301169050919050565b7f4f776e61626c653a206e6577206f776e657220697320746865207a65726f206160008201527f6464726573730000000000000000000000000000000000000000000000000000602082015250565b7f4f776e61626c653a2063616c6c6572206973206e6f7420746865206f776e6572600082015250565b611617816113ca565b811461162257600080fd5b50565b61162e816113e8565b811461163957600080fd5b50565b61164581611414565b811461165057600080fd5b50565b61165c81611426565b811461166757600080fd5b50565b61167381611450565b811461167e57600080fd5b5056fea2646970667358221220586bce968764c020679ecae637189adcc5ebf60d1f8d1dcca51a56fd6318198764736f6c63430008040033",
  "immutableReferences": {},
  "source": "pragma solidity >=0.8.4;\n\nimport \"./PriceOracle.sol\";\nimport \"./SafeMath.sol\";\nimport \"./StringUtils.sol\";\nimport \"@openzeppelin/contracts/access/Ownable.sol\";\n\ninterface AggregatorInterface {\n  function latestAnswer() external view returns (int256);\n}\n\n\n// StablePriceOracle sets a price in USD, based on an oracle.\ncontract StablePriceOracle is Ownable, PriceOracle {\n    using SafeMath for *;\n    using StringUtils for *;\n\n    // Rent in base price units by length. Element 0 is for 1-length names, and so on.\n    uint[] public rentPrices;\n\n    // Oracle address\n    AggregatorInterface public usdOracle;\n\n    event OracleChanged(address oracle);\n\n    event RentPriceChanged(uint[] prices);\n\n    bytes4 constant private INTERFACE_META_ID = bytes4(keccak256(\"supportsInterface(bytes4)\"));\n    bytes4 constant private ORACLE_ID = bytes4(keccak256(\"price(string,uint256,uint256)\") ^ keccak256(\"premium(string,uint256,uint256)\"));\n\n    constructor(AggregatorInterface _usdOracle, uint[] memory _rentPrices) public {\n        usdOracle = _usdOracle;\n        setPrices(_rentPrices);\n    }\n\n    function price(string calldata name, uint expires, uint duration) external view override returns(uint) {\n        uint len = name.strlen();\n        if(len > rentPrices.length) {\n            len = rentPrices.length;\n        }\n        require(len > 0);\n        \n        uint basePrice = rentPrices[len - 1].mul(duration);\n        basePrice = basePrice.add(_premium(name, expires, duration));\n\n        return attoUSDToWei(basePrice);\n    }\n\n    /**\n     * @dev Sets rent prices.\n     * @param _rentPrices The price array. Each element corresponds to a specific\n     *                    name length; names longer than the length of the array\n     *                    default to the price of the last element. Values are\n     *                    in base price units, equal to one attodollar (1e-18\n     *                    dollar) each.\n     */\n    function setPrices(uint[] memory _rentPrices) public onlyOwner {\n        rentPrices = _rentPrices;\n        emit RentPriceChanged(_rentPrices);\n    }\n\n    /**\n     * @dev Sets the price oracle address\n     * @param _usdOracle The address of the price oracle to use.\n     */\n    function setOracle(AggregatorInterface _usdOracle) public onlyOwner {\n        usdOracle = _usdOracle;\n        emit OracleChanged(address(_usdOracle));\n    }\n\n    /**\n     * @dev Returns the pricing premium in wei.\n     */\n    function premium(string calldata name, uint expires, uint duration) external view returns(uint) {\n        return attoUSDToWei(_premium(name, expires, duration));\n    }\n\n    /**\n     * @dev Returns the pricing premium in internal base units.\n     */\n    function _premium(string memory name, uint expires, uint duration) virtual internal view returns(uint) {\n        return 0;\n    }\n\n    function attoUSDToWei(uint amount) internal view returns(uint) {\n        uint ethPrice = uint(usdOracle.latestAnswer());\n        return amount.mul(1e8).div(ethPrice);\n    }\n\n    function weiToAttoUSD(uint amount) internal view returns(uint) {\n        uint ethPrice = uint(usdOracle.latestAnswer());\n        return amount.mul(ethPrice).div(1e8);\n    }\n\n    function supportsInterface(bytes4 interfaceID) public view virtual returns (bool) {\n        return interfaceID == INTERFACE_META_ID || interfaceID == ORACLE_ID;\n    }\n}\n",
  "sourcePath": "/Users/jiang/dev/pns/deploy/contracts/ethregistrar/StablePriceOracle.sol",
  "compiler": {
    "name": "solc",
    "version": "0.8.4+commit.c7e474f2.Emscripten.clang"
  },
  "schemaVersion": "3.3.4",
  "updatedAt": "2021-06-01T13:04:59.126Z",
  "networkType": "ethereum",
  "devdoc": {
    "kind": "dev",
    "methods": {
      "owner()": {
        "details": "Returns the address of the current owner."
      },
      "premium(string,uint256,uint256)": {
        "details": "Returns the pricing premium in wei."
      },
      "price(string,uint256,uint256)": {
        "details": "Returns the price to register or renew a name.",
        "params": {
          "duration": "How long the name is being registered or extended for, in seconds.",
          "expires": "When the name presently expires (0 if this is a new registration).",
          "name": "The name being registered or renewed."
        },
        "returns": {
          "_0": "The price of this renewal or registration, in wei."
        }
      },
      "renounceOwnership()": {
        "details": "Leaves the contract without owner. It will not be possible to call `onlyOwner` functions anymore. Can only be called by the current owner. NOTE: Renouncing ownership will leave the contract without an owner, thereby removing any functionality that is only available to the owner."
      },
      "setOracle(address)": {
        "details": "Sets the price oracle address",
        "params": {
          "_usdOracle": "The address of the price oracle to use."
        }
      },
      "setPrices(uint256[])": {
        "details": "Sets rent prices.",
        "params": {
          "_rentPrices": "The price array. Each element corresponds to a specific                    name length; names longer than the length of the array                    default to the price of the last element. Values are                    in base price units, equal to one attodollar (1e-18                    dollar) each."
        }
      },
      "transferOwnership(address)": {
        "details": "Transfers ownership of the contract to a new account (`newOwner`). Can only be called by the current owner."
      }
    },
    "version": 1
  },
  "userdoc": {
    "kind": "user",
    "methods": {},
    "version": 1
  }
}