{
  "contractName": "TestRegistrar",
  "abi": [
    {
      "inputs": [
        {
          "internalType": "contract ENS",
          "name": "ensAddr",
          "type": "address"
        },
        {
          "internalType": "bytes32",
          "name": "node",
          "type": "bytes32"
        }
      ],
      "stateMutability": "nonpayable",
      "type": "constructor"
    },
    {
      "inputs": [],
      "name": "ens",
      "outputs": [
        {
          "internalType": "contract ENS",
          "name": "",
          "type": "address"
        }
      ],
      "stateMutability": "view",
      "type": "function"
    },
    {
      "inputs": [
        {
          "internalType": "bytes32",
          "name": "",
          "type": "bytes32"
        }
      ],
      "name": "expiryTimes",
      "outputs": [
        {
          "internalType": "uint256",
          "name": "",
          "type": "uint256"
        }
      ],
      "stateMutability": "view",
      "type": "function"
    },
    {
      "inputs": [],
      "name": "rootNode",
      "outputs": [
        {
          "internalType": "bytes32",
          "name": "",
          "type": "bytes32"
        }
      ],
      "stateMutability": "view",
      "type": "function"
    },
    {
      "inputs": [
        {
          "internalType": "bytes32",
          "name": "label",
          "type": "bytes32"
        },
        {
          "internalType": "address",
          "name": "owner",
          "type": "address"
        }
      ],
      "name": "register",
      "outputs": [],
      "stateMutability": "nonpayable",
      "type": "function"
    }
  ],
  "bytecode": "0x608060405234801561001057600080fd5b5060405161066b38038061066b833981810160405281019061003291906100aa565b816000806101000a81548173ffffffffffffffffffffffffffffffffffffffff021916908373ffffffffffffffffffffffffffffffffffffffff160217905550806001819055505050610162565b60008151905061008f81610134565b92915050565b6000815190506100a48161014b565b92915050565b600080604083850312156100bd57600080fd5b60006100cb85828601610095565b92505060206100dc85828601610080565b9150509250929050565b60006100f182610114565b9050919050565b6000819050919050565b600061010d826100e6565b9050919050565b600073ffffffffffffffffffffffffffffffffffffffff82169050919050565b61013d816100f8565b811461014857600080fd5b50565b61015481610102565b811461015f57600080fd5b50565b6104fa806101716000396000f3fe608060405234801561001057600080fd5b506004361061004c5760003560e01c80633f15457f14610051578063af9f26e41461006f578063d22057a91461009f578063faff50a8146100bb575b600080fd5b6100596100d9565b6040516100669190610371565b60405180910390f35b61008960048036038101906100849190610255565b6100fd565b604051610096919061038c565b60405180910390f35b6100b960048036038101906100b491906102a7565b610115565b005b6100c3610210565b6040516100d0919061031f565b60405180910390f35b60008054906101000a900473ffffffffffffffffffffffffffffffffffffffff1681565b60026020528060005260406000206000915090505481565b4260026000848152602001908152602001600020541061013457600080fd5b6224ea004261014391906103a7565b600260008481526020019081526020016000208190555060008054906101000a900473ffffffffffffffffffffffffffffffffffffffff1673ffffffffffffffffffffffffffffffffffffffff166306ab592360015484846040518463ffffffff1660e01b81526004016101b99392919061033a565b602060405180830381600087803b1580156101d357600080fd5b505af11580156101e7573d6000803e3d6000fd5b505050506040513d601f19601f8201168201806040525081019061020b919061027e565b505050565b60015481565b60008135905061022581610496565b92915050565b60008135905061023a816104ad565b92915050565b60008151905061024f816104ad565b92915050565b60006020828403121561026757600080fd5b60006102758482850161022b565b91505092915050565b60006020828403121561029057600080fd5b600061029e84828501610240565b91505092915050565b600080604083850312156102ba57600080fd5b60006102c88582860161022b565b92505060206102d985828601610216565b9150509250929050565b6102ec816103fd565b82525050565b6102fb8161040f565b82525050565b61030a81610443565b82525050565b61031981610439565b82525050565b600060208201905061033460008301846102f2565b92915050565b600060608201905061034f60008301866102f2565b61035c60208301856102f2565b61036960408301846102e3565b949350505050565b60006020820190506103866000830184610301565b92915050565b60006020820190506103a16000830184610310565b92915050565b60006103b282610439565b91506103bd83610439565b9250827fffffffffffffffffffffffffffffffffffffffffffffffffffffffffffffffff038211156103f2576103f1610467565b5b828201905092915050565b600061040882610419565b9050919050565b6000819050919050565b600073ffffffffffffffffffffffffffffffffffffffff82169050919050565b6000819050919050565b600061044e82610455565b9050919050565b600061046082610419565b9050919050565b7f4e487b7100000000000000000000000000000000000000000000000000000000600052601160045260246000fd5b61049f816103fd565b81146104aa57600080fd5b50565b6104b68161040f565b81146104c157600080fd5b5056fea264697066735822122067560c58aa4d68f8ea4445f41813019be5031453a4c3580b5260772625759c3864736f6c63430008040033",
  "immutableReferences": {},
  "source": "pragma solidity >=0.8.4;\n\nimport \"./ENS.sol\";\n\n/**\n * A registrar that allocates subdomains to the first person to claim them, but\n * expires registrations a fixed period after they're initially claimed.\n */\ncontract TestRegistrar {\n    uint constant registrationPeriod = 4 weeks;\n\n    ENS public ens;\n    bytes32 public rootNode;\n    mapping (bytes32 => uint) public expiryTimes;\n\n    /**\n     * Constructor.\n     * @param ensAddr The address of the ENS registry.\n     * @param node The node that this registrar administers.\n     */\n    constructor(ENS ensAddr, bytes32 node) public {\n        ens = ensAddr;\n        rootNode = node;\n    }\n\n    /**\n     * Register a name that's not currently registered\n     * @param label The hash of the label to register.\n     * @param owner The address of the new owner.\n     */\n    function register(bytes32 label, address owner) public {\n        require(expiryTimes[label] < block.timestamp);\n\n        expiryTimes[label] = block.timestamp + registrationPeriod;\n        ens.setSubnodeOwner(rootNode, label, owner);\n    }\n}\n",
  "sourcePath": "/Users/jiang/dev/pns/deploy/contracts/registry/TestRegistrar.sol",
  "compiler": {
    "name": "solc",
    "version": "0.8.4+commit.c7e474f2.Emscripten.clang"
  },
  "schemaVersion": "3.3.4",
  "updatedAt": "2021-05-31T09:55:10.541Z",
  "devdoc": {
    "kind": "dev",
    "methods": {
      "constructor": {
        "params": {
          "ensAddr": "The address of the ENS registry.",
          "node": "The node that this registrar administers."
        }
      },
      "register(bytes32,address)": {
        "params": {
          "label": "The hash of the label to register.",
          "owner": "The address of the new owner."
        }
      }
    },
    "version": 1
  },
  "userdoc": {
    "kind": "user",
    "methods": {
      "constructor": {
        "notice": "Constructor."
      },
      "register(bytes32,address)": {
        "notice": "Register a name that's not currently registered"
      }
    },
    "notice": "A registrar that allocates subdomains to the first person to claim them, but expires registrations a fixed period after they're initially claimed.",
    "version": 1
  }
}